{
  "address": "0x62497C9c68AE2f85B10113554374bCeFD5c465d3",
  "abi": [
    {
      "inputs": [],
      "stateMutability": "nonpayable",
      "type": "constructor"
    },
    {
      "anonymous": false,
      "inputs": [
        {
          "indexed": true,
          "internalType": "address",
          "name": "from",
          "type": "address"
        },
        {
          "indexed": true,
          "internalType": "address",
          "name": "to",
          "type": "address"
        }
      ],
      "name": "OwnershipTransferRequested",
      "type": "event"
    },
    {
      "anonymous": false,
      "inputs": [
        {
          "indexed": true,
          "internalType": "address",
          "name": "from",
          "type": "address"
        },
        {
          "indexed": true,
          "internalType": "address",
          "name": "to",
          "type": "address"
        }
      ],
      "name": "OwnershipTransferred",
      "type": "event"
    },
    {
      "inputs": [],
      "name": "acceptOwnership",
      "outputs": [],
      "stateMutability": "nonpayable",
      "type": "function"
    },
    {
      "inputs": [
        {
          "internalType": "uint64",
          "name": "_secretVersion",
          "type": "uint64"
        },
        {
          "internalType": "uint8",
          "name": "_secretSlot",
          "type": "uint8"
        }
      ],
      "name": "changeSlotAndVersionDon",
      "outputs": [],
      "stateMutability": "nonpayable",
      "type": "function"
    },
    {
      "inputs": [
        {
          "internalType": "uint64",
          "name": "_subId",
          "type": "uint64"
        },
        {
          "internalType": "bytes32",
          "name": "_donId",
          "type": "bytes32"
        }
      ],
      "name": "changeSubIdAndDonId",
      "outputs": [],
      "stateMutability": "nonpayable",
      "type": "function"
    },
    {
      "inputs": [],
      "name": "donId",
      "outputs": [
        {
          "internalType": "bytes32",
          "name": "",
          "type": "bytes32"
        }
      ],
      "stateMutability": "view",
      "type": "function"
    },
    {
      "inputs": [],
      "name": "owner",
      "outputs": [
        {
          "internalType": "address",
          "name": "",
          "type": "address"
        }
      ],
      "stateMutability": "view",
      "type": "function"
    },
    {
      "inputs": [],
      "name": "s_mintSourceCode",
      "outputs": [
        {
          "internalType": "string",
          "name": "",
          "type": "string"
        }
      ],
      "stateMutability": "view",
      "type": "function"
    },
    {
      "inputs": [],
      "name": "s_redeemSourceCode",
      "outputs": [
        {
          "internalType": "string",
          "name": "",
          "type": "string"
        }
      ],
      "stateMutability": "view",
      "type": "function"
    },
    {
      "inputs": [],
      "name": "secretSlot",
      "outputs": [
        {
          "internalType": "uint8",
          "name": "",
          "type": "uint8"
        }
      ],
      "stateMutability": "view",
      "type": "function"
    },
    {
      "inputs": [],
      "name": "secretVersion",
      "outputs": [
        {
          "internalType": "uint64",
          "name": "",
          "type": "uint64"
        }
      ],
      "stateMutability": "view",
      "type": "function"
    },
    {
      "inputs": [
        {
          "internalType": "string",
          "name": "mintSourceCode",
          "type": "string"
        }
      ],
      "name": "setMintCode",
      "outputs": [],
      "stateMutability": "nonpayable",
      "type": "function"
    },
    {
      "inputs": [
        {
          "internalType": "string",
          "name": "redeemSourceCode",
          "type": "string"
        }
      ],
      "name": "setRedeemCode",
      "outputs": [],
      "stateMutability": "nonpayable",
      "type": "function"
    },
    {
      "inputs": [],
      "name": "subId",
      "outputs": [
        {
          "internalType": "uint64",
          "name": "",
          "type": "uint64"
        }
      ],
      "stateMutability": "view",
      "type": "function"
    },
    {
      "inputs": [],
      "name": "tester",
      "outputs": [
        {
          "internalType": "bool",
          "name": "",
          "type": "bool"
        }
      ],
      "stateMutability": "view",
      "type": "function"
    },
    {
      "inputs": [],
      "name": "testerint",
      "outputs": [
        {
          "internalType": "uint256",
          "name": "",
          "type": "uint256"
        }
      ],
      "stateMutability": "view",
      "type": "function"
    },
    {
      "inputs": [
        {
          "internalType": "address",
          "name": "to",
          "type": "address"
        }
      ],
      "name": "transferOwnership",
      "outputs": [],
      "stateMutability": "nonpayable",
      "type": "function"
    }
  ],
  "transactionHash": "0x0a1fcf0309ead8735aafe7fdee814cbe8d7284fa60a8c44a06599bd79330b777",
  "args": [],
  "numDeployments": 7,
  "solcInputHash": "9320b1a9bb46327dcd7c359659a75a6c",
  "bytecode": "0x60806040526000600160146101000a81548160ff021916908315150217905550600360025534801561003057600080fd5b50338060008073ffffffffffffffffffffffffffffffffffffffff168273ffffffffffffffffffffffffffffffffffffffff16036100a3576040517f08c379a000000000000000000000000000000000000000000000000000000000815260040161009a906102b8565b60405180910390fd5b816000806101000a81548173ffffffffffffffffffffffffffffffffffffffff021916908373ffffffffffffffffffffffffffffffffffffffff160217905550600073ffffffffffffffffffffffffffffffffffffffff168173ffffffffffffffffffffffffffffffffffffffff1614610127576101268161012f60201b60201c565b5b505050610344565b3373ffffffffffffffffffffffffffffffffffffffff168173ffffffffffffffffffffffffffffffffffffffff160361019d576040517f08c379a000000000000000000000000000000000000000000000000000000000815260040161019490610324565b60405180910390fd5b80600160006101000a81548173ffffffffffffffffffffffffffffffffffffffff021916908373ffffffffffffffffffffffffffffffffffffffff1602179055508073ffffffffffffffffffffffffffffffffffffffff1660008054906101000a900473ffffffffffffffffffffffffffffffffffffffff1673ffffffffffffffffffffffffffffffffffffffff167fed8889f560326eb138920d842192f0eb3dd22b4f139c87a2c57538e05bae127860405160405180910390a350565b600082825260208201905092915050565b7f43616e6e6f7420736574206f776e657220746f207a65726f0000000000000000600082015250565b60006102a260188361025b565b91506102ad8261026c565b602082019050919050565b600060208201905081810360008301526102d181610295565b9050919050565b7f43616e6e6f74207472616e7366657220746f2073656c66000000000000000000600082015250565b600061030e60178361025b565b9150610319826102d8565b602082019050919050565b6000602082019050818103600083015261033d81610301565b9050919050565b6111d8806103536000396000f3fe608060405234801561001057600080fd5b50600436106100f55760003560e01c80638da5cb5b11610097578063e29dd56b11610066578063e29dd56b1461022c578063eb1d28bb14610248578063ebcaaa4c14610266578063f2fde38b14610282576100f5565b80638da5cb5b146101b45780638dbe7b9d146101d2578063ae5fc35a146101f0578063b65681a21461020e576100f5565b80635279e89f116100d35780635279e89f1461015057806352b1033b1461016e57806379ba50971461018c5780638308abd414610196576100f5565b80630f50cec3146100fa5780631a20d9eb146101165780634c11ae7f14610134575b600080fd5b610114600480360381019061010f91906109ca565b61029e565b005b61011e6102b9565b60405161012b9190610a36565b60405180910390f35b61014e60048036038101906101499190610ab3565b6102d3565b005b61015861030f565b6040516101659190610b0c565b60405180910390f35b610176610315565b6040516101839190610b43565b60405180910390f35b610194610328565b005b61019e6104bd565b6040516101ab9190610b79565b60405180910390f35b6101bc6104d0565b6040516101c99190610bd5565b60405180910390f35b6101da6104f9565b6040516101e79190610bff565b60405180910390f35b6101f86104ff565b6040516102059190610c99565b60405180910390f35b61021661058d565b6040516102239190610c99565b60405180910390f35b610246600480360381019061024191906109ca565b61061b565b005b610250610636565b60405161025d9190610a36565b60405180910390f35b610280600480360381019061027b9190610ce7565b610650565b005b61029c60048036038101906102979190610d53565b6106a0565b005b6102a66106b4565b80600490816102b59190610f8c565b5050565b600760009054906101000a900467ffffffffffffffff1681565b6102db6106b4565b81600560006101000a81548167ffffffffffffffff021916908367ffffffffffffffff160217905550806006819055505050565b60025481565b600760089054906101000a900460ff1681565b600160009054906101000a900473ffffffffffffffffffffffffffffffffffffffff1673ffffffffffffffffffffffffffffffffffffffff163373ffffffffffffffffffffffffffffffffffffffff16146103b8576040517f08c379a00000000000000000000000000000000000000000000000000000000081526004016103af906110aa565b60405180910390fd5b60008060009054906101000a900473ffffffffffffffffffffffffffffffffffffffff169050336000806101000a81548173ffffffffffffffffffffffffffffffffffffffff021916908373ffffffffffffffffffffffffffffffffffffffff1602179055506000600160006101000a81548173ffffffffffffffffffffffffffffffffffffffff021916908373ffffffffffffffffffffffffffffffffffffffff1602179055503373ffffffffffffffffffffffffffffffffffffffff168173ffffffffffffffffffffffffffffffffffffffff167f8be0079c531659141344cd1fd0a4f28419497f9722a3daafe3b4186f6b6457e060405160405180910390a350565b600160149054906101000a900460ff1681565b60008060009054906101000a900473ffffffffffffffffffffffffffffffffffffffff16905090565b60065481565b6004805461050c90610daf565b80601f016020809104026020016040519081016040528092919081815260200182805461053890610daf565b80156105855780601f1061055a57610100808354040283529160200191610585565b820191906000526020600020905b81548152906001019060200180831161056857829003601f168201915b505050505081565b6003805461059a90610daf565b80601f01602080910402602001604051908101604052809291908181526020018280546105c690610daf565b80156106135780601f106105e857610100808354040283529160200191610613565b820191906000526020600020905b8154815290600101906020018083116105f657829003601f168201915b505050505081565b6106236106b4565b80600390816106329190610f8c565b5050565b600560009054906101000a900467ffffffffffffffff1681565b6106586106b4565b81600760006101000a81548167ffffffffffffffff021916908367ffffffffffffffff16021790555080600760086101000a81548160ff021916908360ff1602179055505050565b6106a86106b4565b6106b181610744565b50565b60008054906101000a900473ffffffffffffffffffffffffffffffffffffffff1673ffffffffffffffffffffffffffffffffffffffff163373ffffffffffffffffffffffffffffffffffffffff1614610742576040517f08c379a000000000000000000000000000000000000000000000000000000000815260040161073990611116565b60405180910390fd5b565b3373ffffffffffffffffffffffffffffffffffffffff168173ffffffffffffffffffffffffffffffffffffffff16036107b2576040517f08c379a00000000000000000000000000000000000000000000000000000000081526004016107a990611182565b60405180910390fd5b80600160006101000a81548173ffffffffffffffffffffffffffffffffffffffff021916908373ffffffffffffffffffffffffffffffffffffffff1602179055508073ffffffffffffffffffffffffffffffffffffffff1660008054906101000a900473ffffffffffffffffffffffffffffffffffffffff1673ffffffffffffffffffffffffffffffffffffffff167fed8889f560326eb138920d842192f0eb3dd22b4f139c87a2c57538e05bae127860405160405180910390a350565b6000604051905090565b600080fd5b600080fd5b600080fd5b600080fd5b6000601f19601f8301169050919050565b7f4e487b7100000000000000000000000000000000000000000000000000000000600052604160045260246000fd5b6108d78261088e565b810181811067ffffffffffffffff821117156108f6576108f561089f565b5b80604052505050565b6000610909610870565b905061091582826108ce565b919050565b600067ffffffffffffffff8211156109355761093461089f565b5b61093e8261088e565b9050602081019050919050565b82818337600083830152505050565b600061096d6109688461091a565b6108ff565b90508281526020810184848401111561098957610988610889565b5b61099484828561094b565b509392505050565b600082601f8301126109b1576109b0610884565b5b81356109c184826020860161095a565b91505092915050565b6000602082840312156109e0576109df61087a565b5b600082013567ffffffffffffffff8111156109fe576109fd61087f565b5b610a0a8482850161099c565b91505092915050565b600067ffffffffffffffff82169050919050565b610a3081610a13565b82525050565b6000602082019050610a4b6000830184610a27565b92915050565b610a5a81610a13565b8114610a6557600080fd5b50565b600081359050610a7781610a51565b92915050565b6000819050919050565b610a9081610a7d565b8114610a9b57600080fd5b50565b600081359050610aad81610a87565b92915050565b60008060408385031215610aca57610ac961087a565b5b6000610ad885828601610a68565b9250506020610ae985828601610a9e565b9150509250929050565b6000819050919050565b610b0681610af3565b82525050565b6000602082019050610b216000830184610afd565b92915050565b600060ff82169050919050565b610b3d81610b27565b82525050565b6000602082019050610b586000830184610b34565b92915050565b60008115159050919050565b610b7381610b5e565b82525050565b6000602082019050610b8e6000830184610b6a565b92915050565b600073ffffffffffffffffffffffffffffffffffffffff82169050919050565b6000610bbf82610b94565b9050919050565b610bcf81610bb4565b82525050565b6000602082019050610bea6000830184610bc6565b92915050565b610bf981610a7d565b82525050565b6000602082019050610c146000830184610bf0565b92915050565b600081519050919050565b600082825260208201905092915050565b60005b83811015610c54578082015181840152602081019050610c39565b60008484015250505050565b6000610c6b82610c1a565b610c758185610c25565b9350610c85818560208601610c36565b610c8e8161088e565b840191505092915050565b60006020820190508181036000830152610cb38184610c60565b905092915050565b610cc481610b27565b8114610ccf57600080fd5b50565b600081359050610ce181610cbb565b92915050565b60008060408385031215610cfe57610cfd61087a565b5b6000610d0c85828601610a68565b9250506020610d1d85828601610cd2565b9150509250929050565b610d3081610bb4565b8114610d3b57600080fd5b50565b600081359050610d4d81610d27565b92915050565b600060208284031215610d6957610d6861087a565b5b6000610d7784828501610d3e565b91505092915050565b7f4e487b7100000000000000000000000000000000000000000000000000000000600052602260045260246000fd5b60006002820490506001821680610dc757607f821691505b602082108103610dda57610dd9610d80565b5b50919050565b60008190508160005260206000209050919050565b60006020601f8301049050919050565b600082821b905092915050565b600060088302610e427fffffffffffffffffffffffffffffffffffffffffffffffffffffffffffffffff82610e05565b610e4c8683610e05565b95508019841693508086168417925050509392505050565b6000819050919050565b6000610e89610e84610e7f84610af3565b610e64565b610af3565b9050919050565b6000819050919050565b610ea383610e6e565b610eb7610eaf82610e90565b848454610e12565b825550505050565b600090565b610ecc610ebf565b610ed7818484610e9a565b505050565b5b81811015610efb57610ef0600082610ec4565b600181019050610edd565b5050565b601f821115610f4057610f1181610de0565b610f1a84610df5565b81016020851015610f29578190505b610f3d610f3585610df5565b830182610edc565b50505b505050565b600082821c905092915050565b6000610f6360001984600802610f45565b1980831691505092915050565b6000610f7c8383610f52565b9150826002028217905092915050565b610f9582610c1a565b67ffffffffffffffff811115610fae57610fad61089f565b5b610fb88254610daf565b610fc3828285610eff565b600060209050601f831160018114610ff65760008415610fe4578287015190505b610fee8582610f70565b865550611056565b601f19841661100486610de0565b60005b8281101561102c57848901518255600182019150602085019450602081019050611007565b868310156110495784890151611045601f891682610f52565b8355505b6001600288020188555050505b505050505050565b7f4d7573742062652070726f706f736564206f776e657200000000000000000000600082015250565b6000611094601683610c25565b915061109f8261105e565b602082019050919050565b600060208201905081810360008301526110c381611087565b9050919050565b7f4f6e6c792063616c6c61626c65206279206f776e657200000000000000000000600082015250565b6000611100601683610c25565b915061110b826110ca565b602082019050919050565b6000602082019050818103600083015261112f816110f3565b9050919050565b7f43616e6e6f74207472616e7366657220746f2073656c66000000000000000000600082015250565b600061116c601783610c25565b915061117782611136565b602082019050919050565b6000602082019050818103600083015261119b8161115f565b905091905056fea2646970667358221220ebbc01972f6dd92ab863ec2b94f72a02ae182e7fd78c6a310245ffed11adb6c164736f6c63430008190033",
  "devdoc": {
    "kind": "dev",
    "methods": {},
    "version": 1
  },
  "userdoc": {
    "kind": "user",
    "methods": {
      "acceptOwnership()": {
        "notice": "Allows an ownership transfer to be completed by the recipient."
      },
      "owner()": {
        "notice": "Get the current owner"
      },
      "transferOwnership(address)": {
        "notice": "Allows an owner to begin transferring ownership to a new address."
      }
    },
    "version": 1
  },
  "storageLayout": {
    "storage": [
      {
        "astId": 29,
        "contract": "contracts/dStockSourceCodeStorage.sol:dStockSourceCodeStorage",
        "label": "s_owner",
        "offset": 0,
        "slot": "0",
        "type": "t_address"
      },
      {
        "astId": 31,
        "contract": "contracts/dStockSourceCodeStorage.sol:dStockSourceCodeStorage",
        "label": "s_pendingOwner",
        "offset": 0,
        "slot": "1",
        "type": "t_address"
      },
      {
        "astId": 208,
        "contract": "contracts/dStockSourceCodeStorage.sol:dStockSourceCodeStorage",
        "label": "tester",
        "offset": 20,
        "slot": "1",
        "type": "t_bool"
      },
      {
        "astId": 211,
        "contract": "contracts/dStockSourceCodeStorage.sol:dStockSourceCodeStorage",
        "label": "testerint",
        "offset": 0,
        "slot": "2",
        "type": "t_uint256"
      },
      {
        "astId": 213,
        "contract": "contracts/dStockSourceCodeStorage.sol:dStockSourceCodeStorage",
        "label": "s_mintSourceCode",
        "offset": 0,
        "slot": "3",
        "type": "t_string_storage"
      },
      {
        "astId": 215,
        "contract": "contracts/dStockSourceCodeStorage.sol:dStockSourceCodeStorage",
        "label": "s_redeemSourceCode",
        "offset": 0,
        "slot": "4",
        "type": "t_string_storage"
      },
      {
        "astId": 217,
        "contract": "contracts/dStockSourceCodeStorage.sol:dStockSourceCodeStorage",
        "label": "subId",
        "offset": 0,
        "slot": "5",
        "type": "t_uint64"
      },
      {
        "astId": 219,
        "contract": "contracts/dStockSourceCodeStorage.sol:dStockSourceCodeStorage",
        "label": "donId",
        "offset": 0,
        "slot": "6",
        "type": "t_bytes32"
      },
      {
        "astId": 221,
        "contract": "contracts/dStockSourceCodeStorage.sol:dStockSourceCodeStorage",
        "label": "secretVersion",
        "offset": 0,
        "slot": "7",
        "type": "t_uint64"
      },
      {
        "astId": 223,
        "contract": "contracts/dStockSourceCodeStorage.sol:dStockSourceCodeStorage",
        "label": "secretSlot",
        "offset": 8,
        "slot": "7",
        "type": "t_uint8"
      }
    ],
    "types": {
      "t_address": {
        "encoding": "inplace",
        "label": "address",
        "numberOfBytes": "20"
      },
      "t_bool": {
        "encoding": "inplace",
        "label": "bool",
        "numberOfBytes": "1"
      },
      "t_bytes32": {
        "encoding": "inplace",
        "label": "bytes32",
        "numberOfBytes": "32"
      },
      "t_string_storage": {
        "encoding": "bytes",
        "label": "string",
        "numberOfBytes": "32"
      },
      "t_uint256": {
        "encoding": "inplace",
        "label": "uint256",
        "numberOfBytes": "32"
      },
      "t_uint64": {
        "encoding": "inplace",
        "label": "uint64",
        "numberOfBytes": "8"
      },
      "t_uint8": {
        "encoding": "inplace",
        "label": "uint8",
        "numberOfBytes": "1"
      }
    }
  }
}