{
  "address": "0x0786638B3B22731aA043841E8690AB9155172428",
  "abi": [
    {
      "inputs": [
        {
          "internalType": "string",
          "name": "mintSourceCode",
          "type": "string"
        },
        {
          "internalType": "uint64",
          "name": "subId",
          "type": "uint64"
        },
        {
          "internalType": "address",
          "name": "FUNCTIONS_ROUTER",
          "type": "address"
        },
        {
          "internalType": "address",
          "name": "USDC",
          "type": "address"
        },
        {
          "internalType": "bytes32",
          "name": "DON_ID",
          "type": "bytes32"
        },
        {
          "internalType": "uint64",
          "name": "_secretVersion",
          "type": "uint64"
        },
        {
          "internalType": "uint8",
          "name": "_secretSlot",
          "type": "uint8"
        },
        {
          "internalType": "string",
          "name": "stockName",
          "type": "string"
        },
        {
          "internalType": "address",
          "name": "storeSorceCodeAddress",
          "type": "address"
        }
      ],
      "stateMutability": "nonpayable",
      "type": "constructor"
    },
    {
      "inputs": [
        {
          "internalType": "address",
          "name": "spender",
          "type": "address"
        },
        {
          "internalType": "uint256",
          "name": "allowance",
          "type": "uint256"
        },
        {
          "internalType": "uint256",
          "name": "needed",
          "type": "uint256"
        }
      ],
      "name": "ERC20InsufficientAllowance",
      "type": "error"
    },
    {
      "inputs": [
        {
          "internalType": "address",
          "name": "sender",
          "type": "address"
        },
        {
          "internalType": "uint256",
          "name": "balance",
          "type": "uint256"
        },
        {
          "internalType": "uint256",
          "name": "needed",
          "type": "uint256"
        }
      ],
      "name": "ERC20InsufficientBalance",
      "type": "error"
    },
    {
      "inputs": [
        {
          "internalType": "address",
          "name": "approver",
          "type": "address"
        }
      ],
      "name": "ERC20InvalidApprover",
      "type": "error"
    },
    {
      "inputs": [
        {
          "internalType": "address",
          "name": "receiver",
          "type": "address"
        }
      ],
      "name": "ERC20InvalidReceiver",
      "type": "error"
    },
    {
      "inputs": [
        {
          "internalType": "address",
          "name": "sender",
          "type": "address"
        }
      ],
      "name": "ERC20InvalidSender",
      "type": "error"
    },
    {
      "inputs": [
        {
          "internalType": "address",
          "name": "spender",
          "type": "address"
        }
      ],
      "name": "ERC20InvalidSpender",
      "type": "error"
    },
    {
      "inputs": [],
      "name": "EmptyArgs",
      "type": "error"
    },
    {
      "inputs": [],
      "name": "EmptySource",
      "type": "error"
    },
    {
      "inputs": [],
      "name": "NoInlineSecrets",
      "type": "error"
    },
    {
      "inputs": [],
      "name": "OnlyRouterCanFulfill",
      "type": "error"
    },
    {
      "inputs": [],
      "name": "dSTOCK__DoesntMeetMinimumWithdrawAmount",
      "type": "error"
    },
    {
      "inputs": [],
      "name": "dSTOCK__NotEnoughCollateral",
      "type": "error"
    },
    {
      "inputs": [],
      "name": "dSTOCK__notEnoughTslainBroker",
      "type": "error"
    },
    {
      "inputs": [],
      "name": "dSTOCK__transferFailed",
      "type": "error"
    },
    {
      "anonymous": false,
      "inputs": [
        {
          "indexed": true,
          "internalType": "address",
          "name": "owner",
          "type": "address"
        },
        {
          "indexed": true,
          "internalType": "address",
          "name": "spender",
          "type": "address"
        },
        {
          "indexed": false,
          "internalType": "uint256",
          "name": "value",
          "type": "uint256"
        }
      ],
      "name": "Approval",
      "type": "event"
    },
    {
      "anonymous": false,
      "inputs": [
        {
          "indexed": true,
          "internalType": "address",
          "name": "from",
          "type": "address"
        },
        {
          "indexed": true,
          "internalType": "address",
          "name": "to",
          "type": "address"
        }
      ],
      "name": "OwnershipTransferRequested",
      "type": "event"
    },
    {
      "anonymous": false,
      "inputs": [
        {
          "indexed": true,
          "internalType": "address",
          "name": "from",
          "type": "address"
        },
        {
          "indexed": true,
          "internalType": "address",
          "name": "to",
          "type": "address"
        }
      ],
      "name": "OwnershipTransferred",
      "type": "event"
    },
    {
      "anonymous": false,
      "inputs": [
        {
          "indexed": true,
          "internalType": "bytes32",
          "name": "id",
          "type": "bytes32"
        }
      ],
      "name": "RequestFulfilled",
      "type": "event"
    },
    {
      "anonymous": false,
      "inputs": [
        {
          "indexed": true,
          "internalType": "bytes32",
          "name": "id",
          "type": "bytes32"
        }
      ],
      "name": "RequestSent",
      "type": "event"
    },
    {
      "anonymous": false,
      "inputs": [
        {
          "indexed": true,
          "internalType": "address",
          "name": "from",
          "type": "address"
        },
        {
          "indexed": true,
          "internalType": "address",
          "name": "to",
          "type": "address"
        },
        {
          "indexed": false,
          "internalType": "uint256",
          "name": "value",
          "type": "uint256"
        }
      ],
      "name": "Transfer",
      "type": "event"
    },
    {
      "inputs": [],
      "name": "USDC_DECIMALS",
      "outputs": [
        {
          "internalType": "uint256",
          "name": "",
          "type": "uint256"
        }
      ],
      "stateMutability": "view",
      "type": "function"
    },
    {
      "inputs": [],
      "name": "_redeemFulFillRequest",
      "outputs": [],
      "stateMutability": "nonpayable",
      "type": "function"
    },
    {
      "inputs": [],
      "name": "acceptOwnership",
      "outputs": [],
      "stateMutability": "nonpayable",
      "type": "function"
    },
    {
      "inputs": [
        {
          "internalType": "address",
          "name": "owner",
          "type": "address"
        },
        {
          "internalType": "address",
          "name": "spender",
          "type": "address"
        }
      ],
      "name": "allowance",
      "outputs": [
        {
          "internalType": "uint256",
          "name": "",
          "type": "uint256"
        }
      ],
      "stateMutability": "view",
      "type": "function"
    },
    {
      "inputs": [
        {
          "internalType": "address",
          "name": "spender",
          "type": "address"
        },
        {
          "internalType": "uint256",
          "name": "value",
          "type": "uint256"
        }
      ],
      "name": "approve",
      "outputs": [
        {
          "internalType": "bool",
          "name": "",
          "type": "bool"
        }
      ],
      "stateMutability": "nonpayable",
      "type": "function"
    },
    {
      "inputs": [
        {
          "internalType": "address",
          "name": "account",
          "type": "address"
        }
      ],
      "name": "balanceOf",
      "outputs": [
        {
          "internalType": "uint256",
          "name": "",
          "type": "uint256"
        }
      ],
      "stateMutability": "view",
      "type": "function"
    },
    {
      "inputs": [
        {
          "internalType": "uint64",
          "name": "_secretVersion",
          "type": "uint64"
        },
        {
          "internalType": "uint8",
          "name": "_secretSlot",
          "type": "uint8"
        }
      ],
      "name": "changeSlotAndVersionDon",
      "outputs": [],
      "stateMutability": "nonpayable",
      "type": "function"
    },
    {
      "inputs": [],
      "name": "decimals",
      "outputs": [
        {
          "internalType": "uint8",
          "name": "",
          "type": "uint8"
        }
      ],
      "stateMutability": "view",
      "type": "function"
    },
    {
      "inputs": [
        {
          "internalType": "uint256",
          "name": "amountToFund",
          "type": "uint256"
        }
      ],
      "name": "fundAccount",
      "outputs": [],
      "stateMutability": "nonpayable",
      "type": "function"
    },
    {
      "inputs": [
        {
          "internalType": "bytes32",
          "name": "requestId",
          "type": "bytes32"
        }
      ],
      "name": "getRequest",
      "outputs": [
        {
          "components": [
            {
              "internalType": "uint256",
              "name": "amountUsdcSent",
              "type": "uint256"
            },
            {
              "internalType": "address",
              "name": "requester",
              "type": "address"
            },
            {
              "internalType": "enum dSTOCK.MintOrRedeem",
              "name": "mintOrRedeem",
              "type": "uint8"
            }
          ],
          "internalType": "struct dSTOCK.dStockRequest",
          "name": "",
          "type": "tuple"
        }
      ],
      "stateMutability": "view",
      "type": "function"
    },
    {
      "inputs": [
        {
          "internalType": "address",
          "name": "user",
          "type": "address"
        }
      ],
      "name": "getWithdrawalAmount",
      "outputs": [
        {
          "internalType": "uint256",
          "name": "",
          "type": "uint256"
        }
      ],
      "stateMutability": "view",
      "type": "function"
    },
    {
      "inputs": [
        {
          "internalType": "bytes32",
          "name": "requestId",
          "type": "bytes32"
        },
        {
          "internalType": "bytes",
          "name": "response",
          "type": "bytes"
        },
        {
          "internalType": "bytes",
          "name": "err",
          "type": "bytes"
        }
      ],
      "name": "handleOracleFulfillment",
      "outputs": [],
      "stateMutability": "nonpayable",
      "type": "function"
    },
    {
      "inputs": [],
      "name": "httpRequestNonce",
      "outputs": [
        {
          "internalType": "uint256",
          "name": "",
          "type": "uint256"
        }
      ],
      "stateMutability": "view",
      "type": "function"
    },
    {
      "inputs": [],
      "name": "i_DON_ID",
      "outputs": [
        {
          "internalType": "bytes32",
          "name": "",
          "type": "bytes32"
        }
      ],
      "stateMutability": "view",
      "type": "function"
    },
    {
      "inputs": [],
      "name": "i_FUNCTIONS_ROUTER",
      "outputs": [
        {
          "internalType": "address",
          "name": "",
          "type": "address"
        }
      ],
      "stateMutability": "view",
      "type": "function"
    },
    {
      "inputs": [],
      "name": "i_USDC",
      "outputs": [
        {
          "internalType": "address",
          "name": "",
          "type": "address"
        }
      ],
      "stateMutability": "view",
      "type": "function"
    },
    {
      "inputs": [],
      "name": "i_storeSorceCodeAddress",
      "outputs": [
        {
          "internalType": "address",
          "name": "",
          "type": "address"
        }
      ],
      "stateMutability": "view",
      "type": "function"
    },
    {
      "inputs": [],
      "name": "name",
      "outputs": [
        {
          "internalType": "string",
          "name": "",
          "type": "string"
        }
      ],
      "stateMutability": "view",
      "type": "function"
    },
    {
      "inputs": [],
      "name": "owner",
      "outputs": [
        {
          "internalType": "address",
          "name": "",
          "type": "address"
        }
      ],
      "stateMutability": "view",
      "type": "function"
    },
    {
      "inputs": [],
      "name": "s_mintSourceCode",
      "outputs": [
        {
          "internalType": "string",
          "name": "",
          "type": "string"
        }
      ],
      "stateMutability": "view",
      "type": "function"
    },
    {
      "inputs": [],
      "name": "s_redeemSourceCode",
      "outputs": [
        {
          "internalType": "string",
          "name": "",
          "type": "string"
        }
      ],
      "stateMutability": "view",
      "type": "function"
    },
    {
      "inputs": [
        {
          "internalType": "bytes32",
          "name": "requestId",
          "type": "bytes32"
        }
      ],
      "name": "s_requestIdToRequest",
      "outputs": [
        {
          "internalType": "uint256",
          "name": "amountUsdcSent",
          "type": "uint256"
        },
        {
          "internalType": "address",
          "name": "requester",
          "type": "address"
        },
        {
          "internalType": "enum dSTOCK.MintOrRedeem",
          "name": "mintOrRedeem",
          "type": "uint8"
        }
      ],
      "stateMutability": "view",
      "type": "function"
    },
    {
      "inputs": [
        {
          "internalType": "address",
          "name": "user",
          "type": "address"
        }
      ],
      "name": "s_userToWithdrawAmount",
      "outputs": [
        {
          "internalType": "uint256",
          "name": "pendingWithdrawAmount",
          "type": "uint256"
        }
      ],
      "stateMutability": "view",
      "type": "function"
    },
    {
      "inputs": [],
      "name": "secretSlot",
      "outputs": [
        {
          "internalType": "uint8",
          "name": "",
          "type": "uint8"
        }
      ],
      "stateMutability": "view",
      "type": "function"
    },
    {
      "inputs": [],
      "name": "secretVersion",
      "outputs": [
        {
          "internalType": "uint64",
          "name": "",
          "type": "uint64"
        }
      ],
      "stateMutability": "view",
      "type": "function"
    },
    {
      "inputs": [
        {
          "internalType": "uint256",
          "name": "amountUSDC",
          "type": "uint256"
        }
      ],
      "name": "sendMintRequest",
      "outputs": [
        {
          "internalType": "bytes32",
          "name": "",
          "type": "bytes32"
        }
      ],
      "stateMutability": "nonpayable",
      "type": "function"
    },
    {
      "inputs": [],
      "name": "sendRedeemRequest",
      "outputs": [],
      "stateMutability": "nonpayable",
      "type": "function"
    },
    {
      "inputs": [
        {
          "internalType": "string",
          "name": "redeemSourceCode",
          "type": "string"
        }
      ],
      "name": "setRedeemCode",
      "outputs": [],
      "stateMutability": "nonpayable",
      "type": "function"
    },
    {
      "inputs": [],
      "name": "symbol",
      "outputs": [
        {
          "internalType": "string",
          "name": "",
          "type": "string"
        }
      ],
      "stateMutability": "view",
      "type": "function"
    },
    {
      "inputs": [],
      "name": "totalSupply",
      "outputs": [
        {
          "internalType": "uint256",
          "name": "",
          "type": "uint256"
        }
      ],
      "stateMutability": "view",
      "type": "function"
    },
    {
      "inputs": [
        {
          "internalType": "address",
          "name": "to",
          "type": "address"
        },
        {
          "internalType": "uint256",
          "name": "value",
          "type": "uint256"
        }
      ],
      "name": "transfer",
      "outputs": [
        {
          "internalType": "bool",
          "name": "",
          "type": "bool"
        }
      ],
      "stateMutability": "nonpayable",
      "type": "function"
    },
    {
      "inputs": [
        {
          "internalType": "address",
          "name": "from",
          "type": "address"
        },
        {
          "internalType": "address",
          "name": "to",
          "type": "address"
        },
        {
          "internalType": "uint256",
          "name": "value",
          "type": "uint256"
        }
      ],
      "name": "transferFrom",
      "outputs": [
        {
          "internalType": "bool",
          "name": "",
          "type": "bool"
        }
      ],
      "stateMutability": "nonpayable",
      "type": "function"
    },
    {
      "inputs": [
        {
          "internalType": "address",
          "name": "to",
          "type": "address"
        }
      ],
      "name": "transferOwnership",
      "outputs": [],
      "stateMutability": "nonpayable",
      "type": "function"
    },
    {
      "inputs": [
        {
          "internalType": "address",
          "name": "user",
          "type": "address"
        }
      ],
      "name": "userBalance",
      "outputs": [
        {
          "internalType": "uint256",
          "name": "accountbalance",
          "type": "uint256"
        }
      ],
      "stateMutability": "view",
      "type": "function"
    },
    {
      "inputs": [],
      "name": "withdraw",
      "outputs": [],
      "stateMutability": "nonpayable",
      "type": "function"
    }
  ],
  "transactionHash": "0x5b9f1cfe868487ac1a610a15160fafd38f7d5675a0929cae1b47bd275233f0e8",
  "args": [
    "//tester1\nconst SLEEP_TIME = 2000 // 2 seconds\n\nconst headers = {\n    accept: \"application/json\",\n    \"content-type\": \"application/json\",\n    \"APCA-API-KEY-ID\": secrets.alpacaKey,\n    \"APCA-API-SECRET-KEY\": secrets.alpacaSecret,\n}\n\nasync function main() {\n    const stockTicker = args[0]\n    const amountQty = args[1]\n    const nonce = args[2]\n\n    const isMarketOpen = await checkMarket()\n\n    if (isMarketOpen) {\n        const idOfOpenOrder = await checkOpenedOrder(nonce)\n        if (idOfOpenOrder == \"01\") {\n            const side = \"buy\"\n            const order_id = await placeOrder(\n                stockTicker,\n                amountQty,\n                side,\n                nonce,\n            )\n\n            await sleep(SLEEP_TIME)\n            const responseDetails = await orderDetails(order_id)\n\n            if (responseDetails.status === \"filled\") {\n                if (responseDetails.status === \"filled\") {\n                    return Functions.encodeUint256(0)\n                }\n            } else {\n                return Functions.encodeUint256(0)\n            }\n        } else {\n            await sleep(SLEEP_TIME)\n            const responseDetails = await orderDetails(idOfOpenOrder)\n            if (responseDetails.status === \"filled\") {\n                return Functions.encodeUint256(\n                    parseInt(Number(responseDetails.filled_qty) * 1e18),\n                )\n            } else {\n                return Functions.encodeUint256(0)\n            }\n        }\n    } else {\n        return Functions.encodeUint256(0)\n    }\n}\n\n// returns string: client_order_id, string: orderStatus, int: responseStatus\nasync function placeOrder(symbol, qty, side, nonceId) {\n    // TODO, something is wrong with this request, need to fix\n    const alpacaBuyRequest = Functions.makeHttpRequest({\n        method: \"POST\",\n        url: \"https://paper-api.alpaca.markets/v2/orders\",\n        headers: headers,\n        data: {\n            side: side,\n            type: \"market\",\n            time_in_force: \"day\",\n            symbol: symbol,\n            notional: qty,\n            client_order_id: nonceId,\n        },\n    })\n\n    const responseRaw = await alpacaBuyRequest\n    const response = responseRaw.data\n\n    return response.id\n}\n\nasync function checkOpenedOrder(nonceId) {\n    const openOrderDetails = Functions.makeHttpRequest({\n        method: \"GET\",\n        url: `https://paper-api.alpaca.markets/v2/orders?status=all&limit=20`,\n        headers: headers,\n    })\n\n    const openOrdersArrayRaw = await openOrderDetails\n    const openOrdersArray = openOrdersArrayRaw.data\n\n    for (let i = 0; i < openOrdersArray.length; i++) {\n        if (openOrdersArray[i].client_order_id === nonceId) {\n            return openOrdersArray[i].id\n        }\n    }\n    return \"01\"\n}\n\nasync function orderDetails(order_id) {\n    const alpacaOrderDetailsRequest = Functions.makeHttpRequest({\n        method: \"GET\",\n        url: `https://paper-api.alpaca.markets/v2/orders/${order_id}`,\n        headers: headers,\n    })\n\n    const responseDetailsRaw = await alpacaOrderDetailsRequest\n\n    const responseDetails = responseDetailsRaw.data\n\n    return responseDetails\n}\n\n// returns int: responseStatus\nasync function cancelOrder(order_id) {\n    const alpacaCancelRequest = Functions.makeHttpRequest({\n        method: \"DELETE\",\n        url: `https://paper-api.alpaca.markets/v2/orders/${order_id}`,\n        headers: headers,\n    })\n\n    const [response] = await Promise.all([alpacaCancelRequest])\n\n    const responseStatus = response.status\n    return responseStatus\n}\n\n// @returns bool\nasync function waitForOrderToFill(order_id) {\n    let numberOfSleeps = 0\n    const capNumberOfSleeps = 10\n    let filled = false\n\n    while (numberOfSleeps < capNumberOfSleeps) {\n        const alpacaOrderStatusRequest = Functions.makeHttpRequest({\n            method: \"GET\",\n            url: `https://paper-api.alpaca.markets/v2/orders/${order_id}`,\n            headers: headers,\n        })\n\n        const [response] = await Promise.all([alpacaOrderStatusRequest])\n\n        const responseStatus = response.status\n        const { status: orderStatus } = response.data\n        if (responseStatus !== 200) {\n            return false\n        }\n        if (orderStatus === \"filled\") {\n            filled = true\n            break\n        }\n        numberOfSleeps++\n        await sleep(SLEEP_TIME)\n    }\n    return filled\n}\n\nfunction _checkKeys() {\n    if (secrets.alpacaKey == \"\" || secrets.alpacaSecret === \"\") {\n        throw Error(\"need alpaca keys\")\n    }\n}\n\nasync function checkMarket() {\n    const marketStatus = Functions.makeHttpRequest({\n        method: \"GET\",\n        url: \"https://paper-api.alpaca.markets/v2/clock\",\n        headers: headers,\n    })\n\n    const marketStatusResponseRaw = await marketStatus\n    const marketStatusResponse = marketStatusResponseRaw.data\n\n    return marketStatusResponse.is_open\n}\n\nfunction sleep(ms) {\n    return new Promise((resolve) => setTimeout(resolve, ms))\n}\n\nconst result = await main()\nreturn result\n",
    "3179",
    "0xb83E47C2bC239B3bf370bc41e1459A34b41238D0",
    "0x1c7D4B196Cb0C7B01d743Fbc6116a902379C7238",
    {
      "0": 102,
      "1": 117,
      "2": 110,
      "3": 45,
      "4": 101,
      "5": 116,
      "6": 104,
      "7": 101,
      "8": 114,
      "9": 101,
      "10": 117,
      "11": 109,
      "12": 45,
      "13": 115,
      "14": 101,
      "15": 112,
      "16": 111,
      "17": 108,
      "18": 105,
      "19": 97,
      "20": 45,
      "21": 49,
      "22": 0,
      "23": 0,
      "24": 0,
      "25": 0,
      "26": 0,
      "27": 0,
      "28": 0,
      "29": 0,
      "30": 0,
      "31": 0
    },
    1721153517,
    0,
    "TSLA",
    "0x62497C9c68AE2f85B10113554374bCeFD5c465d3"
  ],
  "numDeployments": 10,
  "solcInputHash": "0f4d573619818d2a06ceb40d9246e55e",
  "bytecode": "0x61012060405261085c6007556001600860146101000a81548160ff021916908315150217905550670de0b6b3a7640000600a556402540be400600b5534801561004757600080fd5b50604051614d18380380614d18833981810160405281019061006991906106ab565b818260405160200161007b9190610840565b60405160208183030381529060405288338060008073ffffffffffffffffffffffffffffffffffffffff168273ffffffffffffffffffffffffffffffffffffffff16036100fd576040517f08c379a00000000000000000000000000000000000000000000000000000000081526004016100f4906108bf565b60405180910390fd5b816000806101000a81548173ffffffffffffffffffffffffffffffffffffffff021916908373ffffffffffffffffffffffffffffffffffffffff160217905550600073ffffffffffffffffffffffffffffffffffffffff168173ffffffffffffffffffffffffffffffffffffffff161461018157610180816102fd60201b60201c565b5b5050508073ffffffffffffffffffffffffffffffffffffffff1660808173ffffffffffffffffffffffffffffffffffffffff16815250505081600590816101c89190610af5565b5080600690816101d89190610af5565b50505088600c90816101ea9190610af5565b508767ffffffffffffffff1660e08167ffffffffffffffff16815250508673ffffffffffffffffffffffffffffffffffffffff1660a08173ffffffffffffffffffffffffffffffffffffffff16815250508573ffffffffffffffffffffffffffffffffffffffff1660c08173ffffffffffffffffffffffffffffffffffffffff168152505084600e8190555083600f60006101000a81548167ffffffffffffffff021916908367ffffffffffffffff16021790555082600f60086101000a81548160ff021916908360ff1602179055508073ffffffffffffffffffffffffffffffffffffffff166101008173ffffffffffffffffffffffffffffffffffffffff1681525050505050505050505050610c33565b3373ffffffffffffffffffffffffffffffffffffffff168173ffffffffffffffffffffffffffffffffffffffff160361036b576040517f08c379a000000000000000000000000000000000000000000000000000000000815260040161036290610c13565b60405180910390fd5b80600160006101000a81548173ffffffffffffffffffffffffffffffffffffffff021916908373ffffffffffffffffffffffffffffffffffffffff1602179055508073ffffffffffffffffffffffffffffffffffffffff1660008054906101000a900473ffffffffffffffffffffffffffffffffffffffff1673ffffffffffffffffffffffffffffffffffffffff167fed8889f560326eb138920d842192f0eb3dd22b4f139c87a2c57538e05bae127860405160405180910390a350565b6000604051905090565b600080fd5b600080fd5b600080fd5b600080fd5b6000601f19601f8301169050919050565b7f4e487b7100000000000000000000000000000000000000000000000000000000600052604160045260246000fd5b61049082610447565b810181811067ffffffffffffffff821117156104af576104ae610458565b5b80604052505050565b60006104c2610429565b90506104ce8282610487565b919050565b600067ffffffffffffffff8211156104ee576104ed610458565b5b6104f782610447565b9050602081019050919050565b60005b83811015610522578082015181840152602081019050610507565b60008484015250505050565b600061054161053c846104d3565b6104b8565b90508281526020810184848401111561055d5761055c610442565b5b610568848285610504565b509392505050565b600082601f8301126105855761058461043d565b5b815161059584826020860161052e565b91505092915050565b600067ffffffffffffffff82169050919050565b6105bb8161059e565b81146105c657600080fd5b50565b6000815190506105d8816105b2565b92915050565b600073ffffffffffffffffffffffffffffffffffffffff82169050919050565b6000610609826105de565b9050919050565b610619816105fe565b811461062457600080fd5b50565b60008151905061063681610610565b92915050565b6000819050919050565b61064f8161063c565b811461065a57600080fd5b50565b60008151905061066c81610646565b92915050565b600060ff82169050919050565b61068881610672565b811461069357600080fd5b50565b6000815190506106a58161067f565b92915050565b60008060008060008060008060006101208a8c0312156106ce576106cd610433565b5b60008a015167ffffffffffffffff8111156106ec576106eb610438565b5b6106f88c828d01610570565b99505060206107098c828d016105c9565b985050604061071a8c828d01610627565b975050606061072b8c828d01610627565b965050608061073c8c828d0161065d565b95505060a061074d8c828d016105c9565b94505060c061075e8c828d01610696565b93505060e08a015167ffffffffffffffff81111561077f5761077e610438565b5b61078b8c828d01610570565b92505061010061079d8c828d01610627565b9150509295985092959850929598565b600081905092915050565b7f6400000000000000000000000000000000000000000000000000000000000000600082015250565b60006107ee6001836107ad565b91506107f9826107b8565b600182019050919050565b600081519050919050565b600061081a82610804565b61082481856107ad565b9350610834818560208601610504565b80840191505092915050565b600061084b826107e1565b9150610857828461080f565b915081905092915050565b600082825260208201905092915050565b7f43616e6e6f7420736574206f776e657220746f207a65726f0000000000000000600082015250565b60006108a9601883610862565b91506108b482610873565b602082019050919050565b600060208201905081810360008301526108d88161089c565b9050919050565b7f4e487b7100000000000000000000000000000000000000000000000000000000600052602260045260246000fd5b6000600282049050600182168061092657607f821691505b602082108103610939576109386108df565b5b50919050565b60008190508160005260206000209050919050565b60006020601f8301049050919050565b600082821b905092915050565b6000600883026109a17fffffffffffffffffffffffffffffffffffffffffffffffffffffffffffffffff82610964565b6109ab8683610964565b95508019841693508086168417925050509392505050565b6000819050919050565b6000819050919050565b60006109f26109ed6109e8846109c3565b6109cd565b6109c3565b9050919050565b6000819050919050565b610a0c836109d7565b610a20610a18826109f9565b848454610971565b825550505050565b600090565b610a35610a28565b610a40818484610a03565b505050565b5b81811015610a6457610a59600082610a2d565b600181019050610a46565b5050565b601f821115610aa957610a7a8161093f565b610a8384610954565b81016020851015610a92578190505b610aa6610a9e85610954565b830182610a45565b50505b505050565b600082821c905092915050565b6000610acc60001984600802610aae565b1980831691505092915050565b6000610ae58383610abb565b9150826002028217905092915050565b610afe82610804565b67ffffffffffffffff811115610b1757610b16610458565b5b610b21825461090e565b610b2c828285610a68565b600060209050601f831160018114610b5f5760008415610b4d578287015190505b610b578582610ad9565b865550610bbf565b601f198416610b6d8661093f565b60005b82811015610b9557848901518255600182019150602085019450602081019050610b70565b86831015610bb25784890151610bae601f891682610abb565b8355505b6001600288020188555050505b505050505050565b7f43616e6e6f74207472616e7366657220746f2073656c66000000000000000000600082015250565b6000610bfd601783610862565b9150610c0882610bc7565b602082019050919050565b60006020820190508181036000830152610c2c81610bf0565b9050919050565b60805160a05160c05160e05161010051614093610c8560003960006114e8015260006110780152600081816109a80152610ce301526000610a830152600081816107c60152611d9701526140936000f3fe608060405234801561001057600080fd5b50600436106102115760003560e01c806370a0823111610125578063b65681a2116100ad578063dd62ed3e1161007c578063dd62ed3e146105e8578063ebcaaa4c14610618578063f2fde38b14610634578063fb1e61ca14610650578063fed112111461068057610211565b8063b65681a21461055c578063b96e07771461057a578063c1419def14610598578063c7a2533b146105b657610211565b806395d89b41116100f457806395d89b41146104b6578063a9059cbb146104d4578063ab13416114610504578063ae5fc35a14610534578063b2d6adfd1461055257610211565b806370a082311461044057806379ba509714610470578063804b40961461047a5780638da5cb5b1461049857610211565b80631a20d9eb116101a85780633ccfd60b116101775780633ccfd60b146103c057806346c5f518146103ca57806352b1033b146103e857806356582bf9146104065780636c64928a1461043657610211565b80631a20d9eb1461033657806323b872dd14610354578063313ce5671461038457806337d1f3af146103a257610211565b80630ca76175116101e45780630ca76175146102b05780630f50cec3146102cc57806311582673146102e857806318160ddd1461031857610211565b80630103c92b1461021657806306fdde0314610246578063095ea7b314610264578063097b16c714610294575b600080fd5b610230600480360381019061022b9190612dee565b61069e565b60405161023d9190612e34565b60405180910390f35b61024e6106b6565b60405161025b9190612edf565b60405180910390f35b61027e60048036038101906102799190612f2d565b610748565b60405161028b9190612f88565b60405180910390f35b6102ae60048036038101906102a99190612fa3565b61076b565b005b6102ca60048036038101906102c5919061313b565b6107c4565b005b6102e660048036038101906102e19190613267565b610886565b005b61030260048036038101906102fd9190612dee565b6108a1565b60405161030f9190612e34565b60405180910390f35b6103206108b9565b60405161032d9190612e34565b60405180910390f35b61033e6108c3565b60405161034b91906132d3565b60405180910390f35b61036e600480360381019061036991906132ee565b6108dd565b60405161037b9190612f88565b60405180910390f35b61038c61090c565b604051610399919061335d565b60405180910390f35b6103aa610915565b6040516103b79190613387565b60405180910390f35b6103c861091b565b005b6103d2610a81565b6040516103df91906133b1565b60405180910390f35b6103f0610aa5565b6040516103fd919061335d565b60405180910390f35b610420600480360381019061041b9190612dee565b610ab8565b60405161042d9190612e34565b60405180910390f35b61043e610b01565b005b61045a60048036038101906104559190612dee565b610b03565b6040516104679190612e34565b60405180910390f35b610478610b4c565b005b610482610ce1565b60405161048f91906133b1565b60405180910390f35b6104a0610d05565b6040516104ad91906133b1565b60405180910390f35b6104be610d2e565b6040516104cb9190612edf565b60405180910390f35b6104ee60048036038101906104e99190612f2d565b610dc0565b6040516104fb9190612f88565b60405180910390f35b61051e60048036038101906105199190612fa3565b610de3565b60405161052b9190613387565b60405180910390f35b61053c6111b1565b6040516105499190612edf565b60405180910390f35b61055a61123f565b005b610564611241565b6040516105719190612edf565b60405180910390f35b6105826112cf565b60405161058f9190612e34565b60405180910390f35b6105a06112d5565b6040516105ad9190612e34565b60405180910390f35b6105d060048036038101906105cb91906133cc565b6112dc565b6040516105df93929190613470565b60405180910390f35b61060260048036038101906105fd91906134a7565b611333565b60405161060f9190612e34565b60405180910390f35b610632600480360381019061062d919061353f565b6113ba565b005b61064e60048036038101906106499190612dee565b61140a565b005b61066a600480360381019061066591906133cc565b61141e565b60405161067791906135ee565b60405180910390f35b6106886114e6565b60405161069591906133b1565b60405180910390f35b60096020528060005260406000206000915090505481565b6060600580546106c590613638565b80601f01602080910402602001604051908101604052809291908181526020018280546106f190613638565b801561073e5780601f106107135761010080835404028352916020019161073e565b820191906000526020600020905b81548152906001019060200180831161072157829003601f168201915b5050505050905090565b60008061075361150a565b9050610760818585611512565b600191505092915050565b80600960003373ffffffffffffffffffffffffffffffffffffffff1673ffffffffffffffffffffffffffffffffffffffff16815260200190815260200160002060008282546107ba9190613698565b9250508190555050565b7f000000000000000000000000000000000000000000000000000000000000000073ffffffffffffffffffffffffffffffffffffffff163373ffffffffffffffffffffffffffffffffffffffff1614610849576040517fc6829f8300000000000000000000000000000000000000000000000000000000815260040160405180910390fd5b610854838383611524565b827f85e1543bf2f84fe80c6badbce3648c8539ad1df4d2b3d822938ca0538be727e660405160405180910390a2505050565b61088e611533565b80600d908161089d9190613878565b5050565b60126020528060005260406000206000915090505481565b6000600454905090565b600f60009054906101000a900467ffffffffffffffff1681565b6000806108e861150a565b90506108f58582856115c3565b610900858585611657565b60019150509392505050565b60006012905090565b600e5481565b6000601260003373ffffffffffffffffffffffffffffffffffffffff1673ffffffffffffffffffffffffffffffffffffffff1681526020019081526020016000205490506000601260003373ffffffffffffffffffffffffffffffffffffffff1673ffffffffffffffffffffffffffffffffffffffff1681526020019081526020016000208190555060007f000000000000000000000000000000000000000000000000000000000000000073ffffffffffffffffffffffffffffffffffffffff1663a9059cbb33846040518363ffffffff1660e01b8152600401610a0192919061394a565b6020604051808303816000875af1158015610a20573d6000803e3d6000fd5b505050506040513d601f19601f82011682018060405250810190610a44919061399f565b905080610a7d576040517fb908b72500000000000000000000000000000000000000000000000000000000815260040160405180910390fd5b5050565b7f000000000000000000000000000000000000000000000000000000000000000081565b600f60089054906101000a900460ff1681565b6000601260008373ffffffffffffffffffffffffffffffffffffffff1673ffffffffffffffffffffffffffffffffffffffff168152602001908152602001600020549050919050565b565b6000600260008373ffffffffffffffffffffffffffffffffffffffff1673ffffffffffffffffffffffffffffffffffffffff168152602001908152602001600020549050919050565b600160009054906101000a900473ffffffffffffffffffffffffffffffffffffffff1673ffffffffffffffffffffffffffffffffffffffff163373ffffffffffffffffffffffffffffffffffffffff1614610bdc576040517f08c379a0000000000000000000000000000000000000000000000000000000008152600401610bd390613a18565b60405180910390fd5b60008060009054906101000a900473ffffffffffffffffffffffffffffffffffffffff169050336000806101000a81548173ffffffffffffffffffffffffffffffffffffffff021916908373ffffffffffffffffffffffffffffffffffffffff1602179055506000600160006101000a81548173ffffffffffffffffffffffffffffffffffffffff021916908373ffffffffffffffffffffffffffffffffffffffff1602179055503373ffffffffffffffffffffffffffffffffffffffff168173ffffffffffffffffffffffffffffffffffffffff167f8be0079c531659141344cd1fd0a4f28419497f9722a3daafe3b4186f6b6457e060405160405180910390a350565b7f000000000000000000000000000000000000000000000000000000000000000081565b60008060009054906101000a900473ffffffffffffffffffffffffffffffffffffffff16905090565b606060068054610d3d90613638565b80601f0160208091040260200160405190810160405280929190818152602001828054610d6990613638565b8015610db65780601f10610d8b57610100808354040283529160200191610db6565b820191906000526020600020905b815481529060010190602001808311610d9957829003601f168201915b5050505050905090565b600080610dcb61150a565b9050610dd8818585611657565b600191505092915050565b6000610ded611533565b600960003373ffffffffffffffffffffffffffffffffffffffff1673ffffffffffffffffffffffffffffffffffffffff16815260200190815260200160002054620f424083610e3c9190613a38565b10610e7c576040517f08c379a0000000000000000000000000000000000000000000000000000000008152600401610e7390613aec565b60405180910390fd5b610e84612c87565b610f21600c8054610e9490613638565b80601f0160208091040260200160405190810160405280929190818152602001828054610ec090613638565b8015610f0d5780601f10610ee257610100808354040283529160200191610f0d565b820191906000526020600020905b815481529060010190602001808311610ef057829003601f168201915b50505050508261174b90919063ffffffff16565b610f5b600f60089054906101000a900460ff16600f60009054906101000a900467ffffffffffffffff168361175c9092919063ffffffff16565b6000600367ffffffffffffffff811115610f7857610f77613010565b5b604051908082528060200260200182016040528015610fab57816020015b6060815260200190600190039081610f965790505b5090506040518060400160405280600481526020017f54534c410000000000000000000000000000000000000000000000000000000081525081600081518110610ff857610ff7613b0c565b5b602002602001018190525061100c8461186c565b816001815181106110205761101f613b0c565b5b602002602001018190525061103660075461186c565b8160028151811061104a57611049613b0c565b5b6020026020010181905250611068818361193a90919063ffffffff16565b60006110a361107684611982565b7f0000000000000000000000000000000000000000000000000000000000000000620493e0600e54611d92565b90506040518060600160405280620f4240876110bf9190613a38565b81526020013373ffffffffffffffffffffffffffffffffffffffff168152602001600060018111156110f4576110f36133f9565b5b815250601160008381526020019081526020016000206000820151816000015560208201518160010160006101000a81548173ffffffffffffffffffffffffffffffffffffffff021916908373ffffffffffffffffffffffffffffffffffffffff16021790555060408201518160010160146101000a81548160ff02191690836001811115611186576111856133f9565b5b0217905550905050600760008154809291906111a190613b3b565b9190505550809350505050919050565b600d80546111be90613638565b80601f01602080910402602001604051908101604052809291908181526020018280546111ea90613638565b80156112375780601f1061120c57610100808354040283529160200191611237565b820191906000526020600020905b81548152906001019060200180831161121a57829003601f168201915b505050505081565b565b600c805461124e90613638565b80601f016020809104026020016040519081016040528092919081815260200182805461127a90613638565b80156112c75780601f1061129c576101008083540402835291602001916112c7565b820191906000526020600020905b8154815290600101906020018083116112aa57829003601f168201915b505050505081565b60075481565b620f424081565b60116020528060005260406000206000915090508060000154908060010160009054906101000a900473ffffffffffffffffffffffffffffffffffffffff16908060010160149054906101000a900460ff16905083565b6000600360008473ffffffffffffffffffffffffffffffffffffffff1673ffffffffffffffffffffffffffffffffffffffff16815260200190815260200160002060008373ffffffffffffffffffffffffffffffffffffffff1673ffffffffffffffffffffffffffffffffffffffff16815260200190815260200160002054905092915050565b6113c2611533565b81600f60006101000a81548167ffffffffffffffff021916908367ffffffffffffffff16021790555080600f60086101000a81548160ff021916908360ff1602179055505050565b611412611533565b61141b81611e75565b50565b611426612cf9565b60116000838152602001908152602001600020604051806060016040529081600082015481526020016001820160009054906101000a900473ffffffffffffffffffffffffffffffffffffffff1673ffffffffffffffffffffffffffffffffffffffff1673ffffffffffffffffffffffffffffffffffffffff1681526020016001820160149054906101000a900460ff1660018111156114c9576114c86133f9565b5b60018111156114db576114da6133f9565b5b815250509050919050565b7f000000000000000000000000000000000000000000000000000000000000000081565b600033905090565b61151f8383836001611fa1565b505050565b61152e8383612178565b505050565b60008054906101000a900473ffffffffffffffffffffffffffffffffffffffff1673ffffffffffffffffffffffffffffffffffffffff163373ffffffffffffffffffffffffffffffffffffffff16146115c1576040517f08c379a00000000000000000000000000000000000000000000000000000000081526004016115b890613bcf565b60405180910390fd5b565b60006115cf8484611333565b90507fffffffffffffffffffffffffffffffffffffffffffffffffffffffffffffffff81146116515781811015611641578281836040517ffb8f41b200000000000000000000000000000000000000000000000000000000815260040161163893929190613bef565b60405180910390fd5b61165084848484036000611fa1565b5b50505050565b600073ffffffffffffffffffffffffffffffffffffffff168373ffffffffffffffffffffffffffffffffffffffff16036116c95760006040517f96c6fd1e0000000000000000000000000000000000000000000000000000000081526004016116c091906133b1565b60405180910390fd5b600073ffffffffffffffffffffffffffffffffffffffff168273ffffffffffffffffffffffffffffffffffffffff160361173b5760006040517fec442f0500000000000000000000000000000000000000000000000000000000815260040161173291906133b1565b60405180910390fd5b611746838383612255565b505050565b611758826000808461247d565b5050565b6000611769610100612527565b90506117b36040518060400160405280600681526020017f736c6f74494400000000000000000000000000000000000000000000000000008152508261254e90919063ffffffff16565b6117c98360ff168261257790919063ffffffff16565b6118116040518060400160405280600781526020017f76657273696f6e000000000000000000000000000000000000000000000000008152508261254e90919063ffffffff16565b611824828261257790919063ffffffff16565b60028460200190600281111561183d5761183c6133f9565b5b90816002811115611851576118506133f9565b5b81525050806000015160000151846080018190525050505050565b60606000600161187b84612587565b01905060008167ffffffffffffffff81111561189a57611899613010565b5b6040519080825280601f01601f1916602001820160405280156118cc5781602001600182028036833780820191505090505b509050600082602001820190505b60011561192f578080600190039150507f3031323334353637383961626364656600000000000000000000000000000000600a86061a8153600a858161192357611922613c26565b5b049450600085036118da575b819350505050919050565b6000815103611975576040517ffe936cb700000000000000000000000000000000000000000000000000000000815260040160405180910390fd5b808260a001819052505050565b60606000611991610100612527565b90506119db6040518060400160405280600c81526020017f636f64654c6f636174696f6e00000000000000000000000000000000000000008152508261254e90919063ffffffff16565b611a04836000015160028111156119f5576119f46133f9565b5b826126da90919063ffffffff16565b611a4c6040518060400160405280600881526020017f6c616e67756167650000000000000000000000000000000000000000000000008152508261254e90919063ffffffff16565b611a7583604001516000811115611a6657611a656133f9565b5b826126da90919063ffffffff16565b611abd6040518060400160405280600681526020017f736f7572636500000000000000000000000000000000000000000000000000008152508261254e90919063ffffffff16565b611ad483606001518261254e90919063ffffffff16565b60008360a00151511115611b8a57611b2a6040518060400160405280600481526020017f61726773000000000000000000000000000000000000000000000000000000008152508261254e90919063ffffffff16565b611b338161272a565b60005b8360a0015151811015611b7f57611b748460a001518281518110611b5d57611b5c613b0c565b5b60200260200101518361254e90919063ffffffff16565b806001019050611b36565b50611b8981612752565b5b60008360800151511115611ccb5760006002811115611bac57611bab6133f9565b5b83602001516002811115611bc357611bc26133f9565b5b03611bfa576040517fa80d31f700000000000000000000000000000000000000000000000000000000815260040160405180910390fd5b611c426040518060400160405280600f81526020017f736563726574734c6f636174696f6e00000000000000000000000000000000008152508261254e90919063ffffffff16565b611c6b83602001516002811115611c5c57611c5b6133f9565b5b826126da90919063ffffffff16565b611cb36040518060400160405280600781526020017f73656372657473000000000000000000000000000000000000000000000000008152508261254e90919063ffffffff16565b611cca83608001518261277a90919063ffffffff16565b5b60008360c00151511115611d8157611d216040518060400160405280600981526020017f62797465734172677300000000000000000000000000000000000000000000008152508261254e90919063ffffffff16565b611d2a8161272a565b60005b8360c0015151811015611d7657611d6b8460c001518281518110611d5457611d53613b0c565b5b60200260200101518361277a90919063ffffffff16565b806001019050611d2d565b50611d8081612752565b5b806000015160000151915050919050565b6000807f000000000000000000000000000000000000000000000000000000000000000073ffffffffffffffffffffffffffffffffffffffff1663461d27628688600188886040518663ffffffff1660e01b8152600401611df7959493929190613ce6565b6020604051808303816000875af1158015611e16573d6000803e3d6000fd5b505050506040513d601f19601f82011682018060405250810190611e3a9190613d55565b9050807f1131472297a800fee664d1d89cfa8f7676ff07189ecc53f80bbb5f4969099db860405160405180910390a280915050949350505050565b3373ffffffffffffffffffffffffffffffffffffffff168173ffffffffffffffffffffffffffffffffffffffff1603611ee3576040517f08c379a0000000000000000000000000000000000000000000000000000000008152600401611eda90613dce565b60405180910390fd5b80600160006101000a81548173ffffffffffffffffffffffffffffffffffffffff021916908373ffffffffffffffffffffffffffffffffffffffff1602179055508073ffffffffffffffffffffffffffffffffffffffff1660008054906101000a900473ffffffffffffffffffffffffffffffffffffffff1673ffffffffffffffffffffffffffffffffffffffff167fed8889f560326eb138920d842192f0eb3dd22b4f139c87a2c57538e05bae127860405160405180910390a350565b600073ffffffffffffffffffffffffffffffffffffffff168473ffffffffffffffffffffffffffffffffffffffff16036120135760006040517fe602df0500000000000000000000000000000000000000000000000000000000815260040161200a91906133b1565b60405180910390fd5b600073ffffffffffffffffffffffffffffffffffffffff168373ffffffffffffffffffffffffffffffffffffffff16036120855760006040517f94280d6200000000000000000000000000000000000000000000000000000000815260040161207c91906133b1565b60405180910390fd5b81600360008673ffffffffffffffffffffffffffffffffffffffff1673ffffffffffffffffffffffffffffffffffffffff16815260200190815260200160002060008573ffffffffffffffffffffffffffffffffffffffff1673ffffffffffffffffffffffffffffffffffffffff168152602001908152602001600020819055508015612172578273ffffffffffffffffffffffffffffffffffffffff168473ffffffffffffffffffffffffffffffffffffffff167f8c5be1e5ebec7d5bd14f71427d1e84f3dd0314c0f7b2291e5b200ac8c7c3b925846040516121699190612e34565b60405180910390a35b50505050565b60008161218490613e13565b60001c146122515760006011600084815260200190815260200160002060010160009054906101000a900473ffffffffffffffffffffffffffffffffffffffff16905060006011600085815260200190815260200160002060000154905080600960008473ffffffffffffffffffffffffffffffffffffffff1673ffffffffffffffffffffffffffffffffffffffff16815260200190815260200160002060008282546122319190613e7a565b9250508190555061224e828461224690613e13565b60001c6127a3565b50505b5050565b600073ffffffffffffffffffffffffffffffffffffffff168373ffffffffffffffffffffffffffffffffffffffff16036122a757806004600082825461229b9190613698565b9250508190555061237c565b6000600260008573ffffffffffffffffffffffffffffffffffffffff1673ffffffffffffffffffffffffffffffffffffffff16815260200190815260200160002054905081811015612334578381836040517fe450d38c00000000000000000000000000000000000000000000000000000000815260040161232b93929190613bef565b60405180910390fd5b818103600260008673ffffffffffffffffffffffffffffffffffffffff1673ffffffffffffffffffffffffffffffffffffffff16815260200190815260200160002081905550505b600073ffffffffffffffffffffffffffffffffffffffff168273ffffffffffffffffffffffffffffffffffffffff16036123c55780600460008282540392505081905550612413565b80600260008473ffffffffffffffffffffffffffffffffffffffff1673ffffffffffffffffffffffffffffffffffffffff168152602001908152602001600020600082825401925050819055505b8173ffffffffffffffffffffffffffffffffffffffff168373ffffffffffffffffffffffffffffffffffffffff167fddf252ad1be2c89b69c2b068fc378daa952ba7f163c4a11628f55a4df523b3ef836040516124709190612e34565b60405180910390a3505050565b60008151036124b8576040517f22ce3edd00000000000000000000000000000000000000000000000000000000815260040160405180910390fd5b82846000019060028111156124d0576124cf6133f9565b5b908160028111156124e4576124e36133f9565b5b815250508184604001906000811115612500576124ff6133f9565b5b90816000811115612514576125136133f9565b5b8152505080846060018190525050505050565b61252f612d42565b61253d816000015183612825565b506000816020018181525050919050565b61255b826003835161289e565b612572818360000151612a4790919063ffffffff16565b505050565b6125838260008361289e565b5050565b600080600090507a184f03e93ff9f4daa797ed6e38ed64bf6a1f01000000000000000083106125e5577a184f03e93ff9f4daa797ed6e38ed64bf6a1f01000000000000000083816125db576125da613c26565b5b0492506040810190505b6d04ee2d6d415b85acef81000000008310612622576d04ee2d6d415b85acef8100000000838161261857612617613c26565b5b0492506020810190505b662386f26fc10000831061265157662386f26fc10000838161264757612646613c26565b5b0492506010810190505b6305f5e100831061267a576305f5e10083816126705761266f613c26565b5b0492506008810190505b612710831061269f57612710838161269557612694613c26565b5b0492506004810190505b606483106126c257606483816126b8576126b7613c26565b5b0492506002810190505b600a83106126d1576001810190505b80915050919050565b6126fc60026005600660ff16901b178360000151612a6390919063ffffffff16565b5061272682826040516020016127129190612e34565b60405160208183030381529060405261277a565b5050565b612735816004612acd565b6001816020018181516127489190613698565b9150818152505050565b61275d816007612acd565b6001816020018181516127709190613e7a565b9150818152505050565b612787826002835161289e565b61279e818360000151612a4790919063ffffffff16565b505050565b600073ffffffffffffffffffffffffffffffffffffffff168273ffffffffffffffffffffffffffffffffffffffff16036128155760006040517fec442f0500000000000000000000000000000000000000000000000000000000815260040161280c91906133b1565b60405180910390fd5b61282160008383612255565b5050565b61282d612d62565b600060208361283c9190613eae565b146128685760208261284e9190613eae565b602061285a9190613e7a565b826128659190613698565b91505b81836020018181525050604051808452600081528281016020018181101561288f57600080fd5b80604052505082905092915050565b60178167ffffffffffffffff16116128d9576128d38160058460ff16901b60ff16178460000151612a6390919063ffffffff16565b50612a42565b60ff8167ffffffffffffffff16116129375761290c601860058460ff16901b178460000151612a6390919063ffffffff16565b506129318167ffffffffffffffff1660018560000151612af39092919063ffffffff16565b50612a41565b61ffff8167ffffffffffffffff16116129965761296b601960058460ff16901b178460000151612a6390919063ffffffff16565b506129908167ffffffffffffffff1660028560000151612af39092919063ffffffff16565b50612a40565b63ffffffff8167ffffffffffffffff16116129f7576129cc601a60058460ff16901b178460000151612a6390919063ffffffff16565b506129f18167ffffffffffffffff1660048560000151612af39092919063ffffffff16565b50612a3f565b612a18601b60058460ff16901b178460000151612a6390919063ffffffff16565b50612a3d8167ffffffffffffffff1660088560000151612af39092919063ffffffff16565b505b5b5b5b505050565b612a4f612d62565b612a5b83838451612b80565b905092915050565b612a6b612d62565b600083600001515190506000600182612a849190613698565b905084602001518210612aa857612aa785600283612aa29190613a38565b612c63565b5b84516020838201018581538151831115612ac0578282525b5050849250505092915050565b612aee601f60058360ff16901b178360000151612a6390919063ffffffff16565b505050565b612afb612d62565b6000846000015151905060008184612b139190613698565b90508560200151811115612b3857612b3786600283612b329190613a38565b612c63565b5b6000600185610100612b4a9190614012565b612b549190613e7a565b905086518281018783198251161781528151841115612b71578382525b50508693505050509392505050565b612b88612d62565b8251821115612b9657600080fd5b6000846000015151905060008382612bae9190613698565b90508560200151811115612bd357612bd286600283612bcd9190613a38565b612c63565b5b60008087518051856020830101935080851115612bee578482525b60208901925050505b60208610612c355780518252602082612c109190613698565b9150602081612c1f9190613698565b9050602086612c2e9190613e7a565b9550612bf7565b60006001876020036101000a0390508019825116818451168181178552505050879450505050509392505050565b600082600001519050612c768383612825565b50612c818382612a47565b50505050565b6040518060e0016040528060006002811115612ca657612ca56133f9565b5b815260200160006002811115612cbf57612cbe6133f9565b5b8152602001600080811115612cd757612cd66133f9565b5b8152602001606081526020016060815260200160608152602001606081525090565b604051806060016040528060008152602001600073ffffffffffffffffffffffffffffffffffffffff16815260200160006001811115612d3c57612d3b6133f9565b5b81525090565b6040518060400160405280612d55612d62565b8152602001600081525090565b604051806040016040528060608152602001600081525090565b6000604051905090565b600080fd5b600080fd5b600073ffffffffffffffffffffffffffffffffffffffff82169050919050565b6000612dbb82612d90565b9050919050565b612dcb81612db0565b8114612dd657600080fd5b50565b600081359050612de881612dc2565b92915050565b600060208284031215612e0457612e03612d86565b5b6000612e1284828501612dd9565b91505092915050565b6000819050919050565b612e2e81612e1b565b82525050565b6000602082019050612e496000830184612e25565b92915050565b600081519050919050565b600082825260208201905092915050565b60005b83811015612e89578082015181840152602081019050612e6e565b60008484015250505050565b6000601f19601f8301169050919050565b6000612eb182612e4f565b612ebb8185612e5a565b9350612ecb818560208601612e6b565b612ed481612e95565b840191505092915050565b60006020820190508181036000830152612ef98184612ea6565b905092915050565b612f0a81612e1b565b8114612f1557600080fd5b50565b600081359050612f2781612f01565b92915050565b60008060408385031215612f4457612f43612d86565b5b6000612f5285828601612dd9565b9250506020612f6385828601612f18565b9150509250929050565b60008115159050919050565b612f8281612f6d565b82525050565b6000602082019050612f9d6000830184612f79565b92915050565b600060208284031215612fb957612fb8612d86565b5b6000612fc784828501612f18565b91505092915050565b6000819050919050565b612fe381612fd0565b8114612fee57600080fd5b50565b60008135905061300081612fda565b92915050565b600080fd5b600080fd5b7f4e487b7100000000000000000000000000000000000000000000000000000000600052604160045260246000fd5b61304882612e95565b810181811067ffffffffffffffff8211171561306757613066613010565b5b80604052505050565b600061307a612d7c565b9050613086828261303f565b919050565b600067ffffffffffffffff8211156130a6576130a5613010565b5b6130af82612e95565b9050602081019050919050565b82818337600083830152505050565b60006130de6130d98461308b565b613070565b9050828152602081018484840111156130fa576130f961300b565b5b6131058482856130bc565b509392505050565b600082601f83011261312257613121613006565b5b81356131328482602086016130cb565b91505092915050565b60008060006060848603121561315457613153612d86565b5b600061316286828701612ff1565b935050602084013567ffffffffffffffff81111561318357613182612d8b565b5b61318f8682870161310d565b925050604084013567ffffffffffffffff8111156131b0576131af612d8b565b5b6131bc8682870161310d565b9150509250925092565b600067ffffffffffffffff8211156131e1576131e0613010565b5b6131ea82612e95565b9050602081019050919050565b600061320a613205846131c6565b613070565b9050828152602081018484840111156132265761322561300b565b5b6132318482856130bc565b509392505050565b600082601f83011261324e5761324d613006565b5b813561325e8482602086016131f7565b91505092915050565b60006020828403121561327d5761327c612d86565b5b600082013567ffffffffffffffff81111561329b5761329a612d8b565b5b6132a784828501613239565b91505092915050565b600067ffffffffffffffff82169050919050565b6132cd816132b0565b82525050565b60006020820190506132e860008301846132c4565b92915050565b60008060006060848603121561330757613306612d86565b5b600061331586828701612dd9565b935050602061332686828701612dd9565b925050604061333786828701612f18565b9150509250925092565b600060ff82169050919050565b61335781613341565b82525050565b6000602082019050613372600083018461334e565b92915050565b61338181612fd0565b82525050565b600060208201905061339c6000830184613378565b92915050565b6133ab81612db0565b82525050565b60006020820190506133c660008301846133a2565b92915050565b6000602082840312156133e2576133e1612d86565b5b60006133f084828501612ff1565b91505092915050565b7f4e487b7100000000000000000000000000000000000000000000000000000000600052602160045260246000fd5b60028110613439576134386133f9565b5b50565b600081905061344a82613428565b919050565b600061345a8261343c565b9050919050565b61346a8161344f565b82525050565b60006060820190506134856000830186612e25565b61349260208301856133a2565b61349f6040830184613461565b949350505050565b600080604083850312156134be576134bd612d86565b5b60006134cc85828601612dd9565b92505060206134dd85828601612dd9565b9150509250929050565b6134f0816132b0565b81146134fb57600080fd5b50565b60008135905061350d816134e7565b92915050565b61351c81613341565b811461352757600080fd5b50565b60008135905061353981613513565b92915050565b6000806040838503121561355657613555612d86565b5b6000613564858286016134fe565b92505060206135758582860161352a565b9150509250929050565b61358881612e1b565b82525050565b61359781612db0565b82525050565b6135a68161344f565b82525050565b6060820160008201516135c2600085018261357f565b5060208201516135d5602085018261358e565b5060408201516135e8604085018261359d565b50505050565b600060608201905061360360008301846135ac565b92915050565b7f4e487b7100000000000000000000000000000000000000000000000000000000600052602260045260246000fd5b6000600282049050600182168061365057607f821691505b60208210810361366357613662613609565b5b50919050565b7f4e487b7100000000000000000000000000000000000000000000000000000000600052601160045260246000fd5b60006136a382612e1b565b91506136ae83612e1b565b92508282019050808211156136c6576136c5613669565b5b92915050565b60008190508160005260206000209050919050565b60006020601f8301049050919050565b600082821b905092915050565b60006008830261372e7fffffffffffffffffffffffffffffffffffffffffffffffffffffffffffffffff826136f1565b61373886836136f1565b95508019841693508086168417925050509392505050565b6000819050919050565b600061377561377061376b84612e1b565b613750565b612e1b565b9050919050565b6000819050919050565b61378f8361375a565b6137a361379b8261377c565b8484546136fe565b825550505050565b600090565b6137b86137ab565b6137c3818484613786565b505050565b5b818110156137e7576137dc6000826137b0565b6001810190506137c9565b5050565b601f82111561382c576137fd816136cc565b613806846136e1565b81016020851015613815578190505b613829613821856136e1565b8301826137c8565b50505b505050565b600082821c905092915050565b600061384f60001984600802613831565b1980831691505092915050565b6000613868838361383e565b9150826002028217905092915050565b61388182612e4f565b67ffffffffffffffff81111561389a57613899613010565b5b6138a48254613638565b6138af8282856137eb565b600060209050601f8311600181146138e257600084156138d0578287015190505b6138da858261385c565b865550613942565b601f1984166138f0866136cc565b60005b82811015613918578489015182556001820191506020850194506020810190506138f3565b868310156139355784890151613931601f89168261383e565b8355505b6001600288020188555050505b505050505050565b600060408201905061395f60008301856133a2565b61396c6020830184612e25565b9392505050565b61397c81612f6d565b811461398757600080fd5b50565b60008151905061399981613973565b92915050565b6000602082840312156139b5576139b4612d86565b5b60006139c38482850161398a565b91505092915050565b7f4d7573742062652070726f706f736564206f776e657200000000000000000000600082015250565b6000613a02601683612e5a565b9150613a0d826139cc565b602082019050919050565b60006020820190508181036000830152613a31816139f5565b9050919050565b6000613a4382612e1b565b9150613a4e83612e1b565b9250828202613a5c81612e1b565b91508282048414831517613a7357613a72613669565b5b5092915050565b7f4e6f7420656e6f7567687420757364632062616c616e63652c2066756e64206360008201527f6f6e747261637420666972737400000000000000000000000000000000000000602082015250565b6000613ad6602d83612e5a565b9150613ae182613a7a565b604082019050919050565b60006020820190508181036000830152613b0581613ac9565b9050919050565b7f4e487b7100000000000000000000000000000000000000000000000000000000600052603260045260246000fd5b6000613b4682612e1b565b91507fffffffffffffffffffffffffffffffffffffffffffffffffffffffffffffffff8203613b7857613b77613669565b5b600182019050919050565b7f4f6e6c792063616c6c61626c65206279206f776e657200000000000000000000600082015250565b6000613bb9601683612e5a565b9150613bc482613b83565b602082019050919050565b60006020820190508181036000830152613be881613bac565b9050919050565b6000606082019050613c0460008301866133a2565b613c116020830185612e25565b613c1e6040830184612e25565b949350505050565b7f4e487b7100000000000000000000000000000000000000000000000000000000600052601260045260246000fd5b600081519050919050565b600082825260208201905092915050565b6000613c7c82613c55565b613c868185613c60565b9350613c96818560208601612e6b565b613c9f81612e95565b840191505092915050565b600061ffff82169050919050565b613cc181613caa565b82525050565b600063ffffffff82169050919050565b613ce081613cc7565b82525050565b600060a082019050613cfb60008301886132c4565b8181036020830152613d0d8187613c71565b9050613d1c6040830186613cb8565b613d296060830185613cd7565b613d366080830184613378565b9695505050505050565b600081519050613d4f81612fda565b92915050565b600060208284031215613d6b57613d6a612d86565b5b6000613d7984828501613d40565b91505092915050565b7f43616e6e6f74207472616e7366657220746f2073656c66000000000000000000600082015250565b6000613db8601783612e5a565b9150613dc382613d82565b602082019050919050565b60006020820190508181036000830152613de781613dab565b9050919050565b6000819050602082019050919050565b6000613e0a8251612fd0565b80915050919050565b6000613e1e82613c55565b82613e2884613dee565b9050613e3381613dfe565b92506020821015613e7357613e6e7fffffffffffffffffffffffffffffffffffffffffffffffffffffffffffffffff836020036008026136f1565b831692505b5050919050565b6000613e8582612e1b565b9150613e9083612e1b565b9250828203905081811115613ea857613ea7613669565b5b92915050565b6000613eb982612e1b565b9150613ec483612e1b565b925082613ed457613ed3613c26565b5b828206905092915050565b60008160011c9050919050565b6000808291508390505b6001851115613f3657808604811115613f1257613f11613669565b5b6001851615613f215780820291505b8081029050613f2f85613edf565b9450613ef6565b94509492505050565b600082613f4f576001905061400b565b81613f5d576000905061400b565b8160018114613f735760028114613f7d57613fac565b600191505061400b565b60ff841115613f8f57613f8e613669565b5b8360020a915084821115613fa657613fa5613669565b5b5061400b565b5060208310610133831016604e8410600b8410161715613fe15782820a905083811115613fdc57613fdb613669565b5b61400b565b613fee8484846001613eec565b9250905081840481111561400557614004613669565b5b81810290505b9392505050565b600061401d82612e1b565b915061402883612e1b565b92506140557fffffffffffffffffffffffffffffffffffffffffffffffffffffffffffffffff8484613f3f565b90509291505056fea264697066735822122023cfb7dd1cd3575d01279b5b7d8ae7e03794063da94adf3595e4be9ab376cabc64736f6c63430008190033",
  "devdoc": {
    "errors": {
      "ERC20InsufficientAllowance(address,uint256,uint256)": [
        {
          "details": "Indicates a failure with the `spender`s `allowance`. Used in transfers.",
          "params": {
            "allowance": "Amount of tokens a `spender` is allowed to operate with.",
            "needed": "Minimum amount required to perform a transfer.",
            "spender": "Address that may be allowed to operate on tokens without being their owner."
          }
        }
      ],
      "ERC20InsufficientBalance(address,uint256,uint256)": [
        {
          "details": "Indicates an error related to the current `balance` of a `sender`. Used in transfers.",
          "params": {
            "balance": "Current balance for the interacting account.",
            "needed": "Minimum amount required to perform a transfer.",
            "sender": "Address whose tokens are being transferred."
          }
        }
      ],
      "ERC20InvalidApprover(address)": [
        {
          "details": "Indicates a failure with the `approver` of a token to be approved. Used in approvals.",
          "params": {
            "approver": "Address initiating an approval operation."
          }
        }
      ],
      "ERC20InvalidReceiver(address)": [
        {
          "details": "Indicates a failure with the token `receiver`. Used in transfers.",
          "params": {
            "receiver": "Address to which tokens are being transferred."
          }
        }
      ],
      "ERC20InvalidSender(address)": [
        {
          "details": "Indicates a failure with the token `sender`. Used in transfers.",
          "params": {
            "sender": "Address whose tokens are being transferred."
          }
        }
      ],
      "ERC20InvalidSpender(address)": [
        {
          "details": "Indicates a failure with the `spender` to be approved. Used in approvals.",
          "params": {
            "spender": "Address that may be allowed to operate on tokens without being their owner."
          }
        }
      ]
    },
    "events": {
      "Approval(address,address,uint256)": {
        "details": "Emitted when the allowance of a `spender` for an `owner` is set by a call to {approve}. `value` is the new allowance."
      },
      "Transfer(address,address,uint256)": {
        "details": "Emitted when `value` tokens are moved from one account (`from`) to another (`to`). Note that `value` may be zero."
      }
    },
    "kind": "dev",
    "methods": {
      "allowance(address,address)": {
        "details": "See {IERC20-allowance}."
      },
      "approve(address,uint256)": {
        "details": "See {IERC20-approve}. NOTE: If `value` is the maximum `uint256`, the allowance is not updated on `transferFrom`. This is semantically equivalent to an infinite approval. Requirements: - `spender` cannot be the zero address."
      },
      "balanceOf(address)": {
        "details": "See {IERC20-balanceOf}."
      },
      "decimals()": {
        "details": "Returns the number of decimals used to get its user representation. For example, if `decimals` equals `2`, a balance of `505` tokens should be displayed to a user as `5.05` (`505 / 10 ** 2`). Tokens usually opt for a value of 18, imitating the relationship between Ether and Wei. This is the default value returned by this function, unless it's overridden. NOTE: This information is only used for _display_ purposes: it in no way affects any of the arithmetic of the contract, including {IERC20-balanceOf} and {IERC20-transfer}."
      },
      "handleOracleFulfillment(bytes32,bytes,bytes)": {
        "details": "Either response or error parameter will be set, but never both.",
        "params": {
          "err": "Aggregated error either from the request's source code or from the execution pipeline.",
          "requestId": "The requestId returned by FunctionsClient.sendRequest().",
          "response": "Aggregated response from the request's source code."
        }
      },
      "name()": {
        "details": "Returns the name of the token."
      },
      "symbol()": {
        "details": "Returns the symbol of the token, usually a shorter version of the name."
      },
      "totalSupply()": {
        "details": "See {IERC20-totalSupply}."
      },
      "transfer(address,uint256)": {
        "details": "See {IERC20-transfer}. Requirements: - `to` cannot be the zero address. - the caller must have a balance of at least `value`."
      },
      "transferFrom(address,address,uint256)": {
        "details": "See {IERC20-transferFrom}. Emits an {Approval} event indicating the updated allowance. This is not required by the EIP. See the note at the beginning of {ERC20}. NOTE: Does not update the allowance if the current allowance is the maximum `uint256`. Requirements: - `from` and `to` cannot be the zero address. - `from` must have a balance of at least `value`. - the caller must have allowance for ``from``'s tokens of at least `value`."
      }
    },
    "version": 1
  },
  "userdoc": {
    "kind": "user",
    "methods": {
      "acceptOwnership()": {
        "notice": "Allows an ownership transfer to be completed by the recipient."
      },
      "handleOracleFulfillment(bytes32,bytes,bytes)": {
        "notice": "Chainlink Functions response handler called by the Functions Router during fullilment from the designated transmitter node in an OCR round."
      },
      "owner()": {
        "notice": "Get the current owner"
      },
      "transferOwnership(address)": {
        "notice": "Allows an owner to begin transferring ownership to a new address."
      }
    },
    "version": 1
  },
  "storageLayout": {
    "storage": [
      {
        "astId": 816,
        "contract": "contracts/dSTOCK.sol:dSTOCK",
        "label": "s_owner",
        "offset": 0,
        "slot": "0",
        "type": "t_address"
      },
      {
        "astId": 818,
        "contract": "contracts/dSTOCK.sol:dSTOCK",
        "label": "s_pendingOwner",
        "offset": 0,
        "slot": "1",
        "type": "t_address"
      },
      {
        "astId": 2427,
        "contract": "contracts/dSTOCK.sol:dSTOCK",
        "label": "_balances",
        "offset": 0,
        "slot": "2",
        "type": "t_mapping(t_address,t_uint256)"
      },
      {
        "astId": 2433,
        "contract": "contracts/dSTOCK.sol:dSTOCK",
        "label": "_allowances",
        "offset": 0,
        "slot": "3",
        "type": "t_mapping(t_address,t_mapping(t_address,t_uint256))"
      },
      {
        "astId": 2435,
        "contract": "contracts/dSTOCK.sol:dSTOCK",
        "label": "_totalSupply",
        "offset": 0,
        "slot": "4",
        "type": "t_uint256"
      },
      {
        "astId": 2437,
        "contract": "contracts/dSTOCK.sol:dSTOCK",
        "label": "_name",
        "offset": 0,
        "slot": "5",
        "type": "t_string_storage"
      },
      {
        "astId": 2439,
        "contract": "contracts/dSTOCK.sol:dSTOCK",
        "label": "_symbol",
        "offset": 0,
        "slot": "6",
        "type": "t_string_storage"
      },
      {
        "astId": 4490,
        "contract": "contracts/dSTOCK.sol:dSTOCK",
        "label": "httpRequestNonce",
        "offset": 0,
        "slot": "7",
        "type": "t_uint256"
      },
      {
        "astId": 4492,
        "contract": "contracts/dSTOCK.sol:dSTOCK",
        "label": "tester",
        "offset": 0,
        "slot": "8",
        "type": "t_address"
      },
      {
        "astId": 4495,
        "contract": "contracts/dSTOCK.sol:dSTOCK",
        "label": "testerBool",
        "offset": 20,
        "slot": "8",
        "type": "t_bool"
      },
      {
        "astId": 4517,
        "contract": "contracts/dSTOCK.sol:dSTOCK",
        "label": "userBalance",
        "offset": 0,
        "slot": "9",
        "type": "t_mapping(t_address,t_uint256)"
      },
      {
        "astId": 4528,
        "contract": "contracts/dSTOCK.sol:dSTOCK",
        "label": "PRECISION",
        "offset": 0,
        "slot": "10",
        "type": "t_uint256"
      },
      {
        "astId": 4531,
        "contract": "contracts/dSTOCK.sol:dSTOCK",
        "label": "ADDITIONAL_FEED_PRECCISION",
        "offset": 0,
        "slot": "11",
        "type": "t_uint256"
      },
      {
        "astId": 4542,
        "contract": "contracts/dSTOCK.sol:dSTOCK",
        "label": "s_mintSourceCode",
        "offset": 0,
        "slot": "12",
        "type": "t_string_storage"
      },
      {
        "astId": 4544,
        "contract": "contracts/dSTOCK.sol:dSTOCK",
        "label": "s_redeemSourceCode",
        "offset": 0,
        "slot": "13",
        "type": "t_string_storage"
      },
      {
        "astId": 4548,
        "contract": "contracts/dSTOCK.sol:dSTOCK",
        "label": "i_DON_ID",
        "offset": 0,
        "slot": "14",
        "type": "t_bytes32"
      },
      {
        "astId": 4550,
        "contract": "contracts/dSTOCK.sol:dSTOCK",
        "label": "secretVersion",
        "offset": 0,
        "slot": "15",
        "type": "t_uint64"
      },
      {
        "astId": 4552,
        "contract": "contracts/dSTOCK.sol:dSTOCK",
        "label": "secretSlot",
        "offset": 8,
        "slot": "15",
        "type": "t_uint8"
      },
      {
        "astId": 4573,
        "contract": "contracts/dSTOCK.sol:dSTOCK",
        "label": "s_portfolioBalance",
        "offset": 0,
        "slot": "16",
        "type": "t_uint256"
      },
      {
        "astId": 4578,
        "contract": "contracts/dSTOCK.sol:dSTOCK",
        "label": "s_requestIdToRequest",
        "offset": 0,
        "slot": "17",
        "type": "t_mapping(t_bytes32,t_struct(dStockRequest)4525_storage)"
      },
      {
        "astId": 4582,
        "contract": "contracts/dSTOCK.sol:dSTOCK",
        "label": "s_userToWithdrawAmount",
        "offset": 0,
        "slot": "18",
        "type": "t_mapping(t_address,t_uint256)"
      }
    ],
    "types": {
      "t_address": {
        "encoding": "inplace",
        "label": "address",
        "numberOfBytes": "20"
      },
      "t_bool": {
        "encoding": "inplace",
        "label": "bool",
        "numberOfBytes": "1"
      },
      "t_bytes32": {
        "encoding": "inplace",
        "label": "bytes32",
        "numberOfBytes": "32"
      },
      "t_enum(MintOrRedeem)4513": {
        "encoding": "inplace",
        "label": "enum dSTOCK.MintOrRedeem",
        "numberOfBytes": "1"
      },
      "t_mapping(t_address,t_mapping(t_address,t_uint256))": {
        "encoding": "mapping",
        "key": "t_address",
        "label": "mapping(address => mapping(address => uint256))",
        "numberOfBytes": "32",
        "value": "t_mapping(t_address,t_uint256)"
      },
      "t_mapping(t_address,t_uint256)": {
        "encoding": "mapping",
        "key": "t_address",
        "label": "mapping(address => uint256)",
        "numberOfBytes": "32",
        "value": "t_uint256"
      },
      "t_mapping(t_bytes32,t_struct(dStockRequest)4525_storage)": {
        "encoding": "mapping",
        "key": "t_bytes32",
        "label": "mapping(bytes32 => struct dSTOCK.dStockRequest)",
        "numberOfBytes": "32",
        "value": "t_struct(dStockRequest)4525_storage"
      },
      "t_string_storage": {
        "encoding": "bytes",
        "label": "string",
        "numberOfBytes": "32"
      },
      "t_struct(dStockRequest)4525_storage": {
        "encoding": "inplace",
        "label": "struct dSTOCK.dStockRequest",
        "members": [
          {
            "astId": 4519,
            "contract": "contracts/dSTOCK.sol:dSTOCK",
            "label": "amountUsdcSent",
            "offset": 0,
            "slot": "0",
            "type": "t_uint256"
          },
          {
            "astId": 4521,
            "contract": "contracts/dSTOCK.sol:dSTOCK",
            "label": "requester",
            "offset": 0,
            "slot": "1",
            "type": "t_address"
          },
          {
            "astId": 4524,
            "contract": "contracts/dSTOCK.sol:dSTOCK",
            "label": "mintOrRedeem",
            "offset": 20,
            "slot": "1",
            "type": "t_enum(MintOrRedeem)4513"
          }
        ],
        "numberOfBytes": "64"
      },
      "t_uint256": {
        "encoding": "inplace",
        "label": "uint256",
        "numberOfBytes": "32"
      },
      "t_uint64": {
        "encoding": "inplace",
        "label": "uint64",
        "numberOfBytes": "8"
      },
      "t_uint8": {
        "encoding": "inplace",
        "label": "uint8",
        "numberOfBytes": "1"
      }
    }
  }
}