{
  "address": "0x77B4F7245287e469B3708e7eb6De98529ed47bd2",
  "abi": [
    {
      "inputs": [
        {
          "internalType": "string",
          "name": "mintSourceCode",
          "type": "string"
        },
        {
          "internalType": "uint64",
          "name": "subId",
          "type": "uint64"
        },
        {
          "internalType": "address",
          "name": "SEPOLIA_FUNCTIONS_ROUTER",
          "type": "address"
        },
        {
          "internalType": "address",
          "name": "SEPOLIA_TSLA_PRICE_FEED",
          "type": "address"
        },
        {
          "internalType": "address",
          "name": "SEPOLIA_USDC_PRICE_FEED",
          "type": "address"
        },
        {
          "internalType": "address",
          "name": "SEPOLIA_USDC",
          "type": "address"
        },
        {
          "internalType": "bytes32",
          "name": "DON_ID",
          "type": "bytes32"
        },
        {
          "internalType": "uint64",
          "name": "_secretVersion",
          "type": "uint64"
        },
        {
          "internalType": "uint8",
          "name": "_secretSlot",
          "type": "uint8"
        }
      ],
      "stateMutability": "nonpayable",
      "type": "constructor"
    },
    {
      "inputs": [
        {
          "internalType": "address",
          "name": "spender",
          "type": "address"
        },
        {
          "internalType": "uint256",
          "name": "allowance",
          "type": "uint256"
        },
        {
          "internalType": "uint256",
          "name": "needed",
          "type": "uint256"
        }
      ],
      "name": "ERC20InsufficientAllowance",
      "type": "error"
    },
    {
      "inputs": [
        {
          "internalType": "address",
          "name": "sender",
          "type": "address"
        },
        {
          "internalType": "uint256",
          "name": "balance",
          "type": "uint256"
        },
        {
          "internalType": "uint256",
          "name": "needed",
          "type": "uint256"
        }
      ],
      "name": "ERC20InsufficientBalance",
      "type": "error"
    },
    {
      "inputs": [
        {
          "internalType": "address",
          "name": "approver",
          "type": "address"
        }
      ],
      "name": "ERC20InvalidApprover",
      "type": "error"
    },
    {
      "inputs": [
        {
          "internalType": "address",
          "name": "receiver",
          "type": "address"
        }
      ],
      "name": "ERC20InvalidReceiver",
      "type": "error"
    },
    {
      "inputs": [
        {
          "internalType": "address",
          "name": "sender",
          "type": "address"
        }
      ],
      "name": "ERC20InvalidSender",
      "type": "error"
    },
    {
      "inputs": [
        {
          "internalType": "address",
          "name": "spender",
          "type": "address"
        }
      ],
      "name": "ERC20InvalidSpender",
      "type": "error"
    },
    {
      "inputs": [],
      "name": "EmptyArgs",
      "type": "error"
    },
    {
      "inputs": [],
      "name": "EmptySource",
      "type": "error"
    },
    {
      "inputs": [],
      "name": "NoInlineSecrets",
      "type": "error"
    },
    {
      "inputs": [],
      "name": "OnlyRouterCanFulfill",
      "type": "error"
    },
    {
      "inputs": [],
      "name": "dTESLA__NotEnoughCollateral",
      "type": "error"
    },
    {
      "inputs": [],
      "name": "dTSLA__DoesntMeetMinimumWithdrawAmount",
      "type": "error"
    },
    {
      "inputs": [],
      "name": "sTESLA_notEnoughTslainBroker",
      "type": "error"
    },
    {
      "inputs": [],
      "name": "sTESLA_transferFailed",
      "type": "error"
    },
    {
      "anonymous": false,
      "inputs": [
        {
          "indexed": true,
          "internalType": "address",
          "name": "owner",
          "type": "address"
        },
        {
          "indexed": true,
          "internalType": "address",
          "name": "spender",
          "type": "address"
        },
        {
          "indexed": false,
          "internalType": "uint256",
          "name": "value",
          "type": "uint256"
        }
      ],
      "name": "Approval",
      "type": "event"
    },
    {
      "anonymous": false,
      "inputs": [
        {
          "indexed": true,
          "internalType": "address",
          "name": "from",
          "type": "address"
        },
        {
          "indexed": true,
          "internalType": "address",
          "name": "to",
          "type": "address"
        }
      ],
      "name": "OwnershipTransferRequested",
      "type": "event"
    },
    {
      "anonymous": false,
      "inputs": [
        {
          "indexed": true,
          "internalType": "address",
          "name": "from",
          "type": "address"
        },
        {
          "indexed": true,
          "internalType": "address",
          "name": "to",
          "type": "address"
        }
      ],
      "name": "OwnershipTransferred",
      "type": "event"
    },
    {
      "anonymous": false,
      "inputs": [
        {
          "indexed": true,
          "internalType": "bytes32",
          "name": "id",
          "type": "bytes32"
        }
      ],
      "name": "RequestFulfilled",
      "type": "event"
    },
    {
      "anonymous": false,
      "inputs": [
        {
          "indexed": true,
          "internalType": "bytes32",
          "name": "id",
          "type": "bytes32"
        }
      ],
      "name": "RequestSent",
      "type": "event"
    },
    {
      "anonymous": false,
      "inputs": [
        {
          "indexed": true,
          "internalType": "address",
          "name": "from",
          "type": "address"
        },
        {
          "indexed": true,
          "internalType": "address",
          "name": "to",
          "type": "address"
        },
        {
          "indexed": false,
          "internalType": "uint256",
          "name": "value",
          "type": "uint256"
        }
      ],
      "name": "Transfer",
      "type": "event"
    },
    {
      "inputs": [],
      "name": "acceptOwnership",
      "outputs": [],
      "stateMutability": "nonpayable",
      "type": "function"
    },
    {
      "inputs": [
        {
          "internalType": "address",
          "name": "owner",
          "type": "address"
        },
        {
          "internalType": "address",
          "name": "spender",
          "type": "address"
        }
      ],
      "name": "allowance",
      "outputs": [
        {
          "internalType": "uint256",
          "name": "",
          "type": "uint256"
        }
      ],
      "stateMutability": "view",
      "type": "function"
    },
    {
      "inputs": [
        {
          "internalType": "address",
          "name": "spender",
          "type": "address"
        },
        {
          "internalType": "uint256",
          "name": "value",
          "type": "uint256"
        }
      ],
      "name": "approve",
      "outputs": [
        {
          "internalType": "bool",
          "name": "",
          "type": "bool"
        }
      ],
      "stateMutability": "nonpayable",
      "type": "function"
    },
    {
      "inputs": [
        {
          "internalType": "address",
          "name": "account",
          "type": "address"
        }
      ],
      "name": "balanceOf",
      "outputs": [
        {
          "internalType": "uint256",
          "name": "",
          "type": "uint256"
        }
      ],
      "stateMutability": "view",
      "type": "function"
    },
    {
      "inputs": [
        {
          "internalType": "uint64",
          "name": "_secretVersion",
          "type": "uint64"
        },
        {
          "internalType": "uint8",
          "name": "_secretSlot",
          "type": "uint8"
        }
      ],
      "name": "changeSlotAndVersionDon",
      "outputs": [],
      "stateMutability": "nonpayable",
      "type": "function"
    },
    {
      "inputs": [],
      "name": "decimals",
      "outputs": [
        {
          "internalType": "uint8",
          "name": "",
          "type": "uint8"
        }
      ],
      "stateMutability": "view",
      "type": "function"
    },
    {
      "inputs": [
        {
          "internalType": "bytes32",
          "name": "requestId",
          "type": "bytes32"
        }
      ],
      "name": "getRequest",
      "outputs": [
        {
          "components": [
            {
              "internalType": "uint256",
              "name": "amountOfToken",
              "type": "uint256"
            },
            {
              "internalType": "address",
              "name": "requester",
              "type": "address"
            },
            {
              "internalType": "enum dTESLA.MintOrRedeem",
              "name": "mintOrRedeem",
              "type": "uint8"
            }
          ],
          "internalType": "struct dTESLA.dTeslaRequest",
          "name": "",
          "type": "tuple"
        }
      ],
      "stateMutability": "view",
      "type": "function"
    },
    {
      "inputs": [],
      "name": "getTslaPrice",
      "outputs": [
        {
          "internalType": "uint256",
          "name": "",
          "type": "uint256"
        }
      ],
      "stateMutability": "view",
      "type": "function"
    },
    {
      "inputs": [],
      "name": "getUsdcPrice",
      "outputs": [
        {
          "internalType": "uint256",
          "name": "",
          "type": "uint256"
        }
      ],
      "stateMutability": "view",
      "type": "function"
    },
    {
      "inputs": [
        {
          "internalType": "uint256",
          "name": "usdAmount",
          "type": "uint256"
        }
      ],
      "name": "getUsdcValueOfUsd",
      "outputs": [
        {
          "internalType": "uint256",
          "name": "",
          "type": "uint256"
        }
      ],
      "stateMutability": "view",
      "type": "function"
    },
    {
      "inputs": [
        {
          "internalType": "address",
          "name": "user",
          "type": "address"
        }
      ],
      "name": "getWithdrawalAmount",
      "outputs": [
        {
          "internalType": "uint256",
          "name": "",
          "type": "uint256"
        }
      ],
      "stateMutability": "view",
      "type": "function"
    },
    {
      "inputs": [
        {
          "internalType": "uint256",
          "name": "tlsaAmount",
          "type": "uint256"
        }
      ],
      "name": "getusdValueOfTsla",
      "outputs": [
        {
          "internalType": "uint256",
          "name": "",
          "type": "uint256"
        }
      ],
      "stateMutability": "view",
      "type": "function"
    },
    {
      "inputs": [
        {
          "internalType": "bytes32",
          "name": "requestId",
          "type": "bytes32"
        },
        {
          "internalType": "bytes",
          "name": "response",
          "type": "bytes"
        },
        {
          "internalType": "bytes",
          "name": "err",
          "type": "bytes"
        }
      ],
      "name": "handleOracleFulfillment",
      "outputs": [],
      "stateMutability": "nonpayable",
      "type": "function"
    },
    {
      "inputs": [],
      "name": "i_DON_ID",
      "outputs": [
        {
          "internalType": "bytes32",
          "name": "",
          "type": "bytes32"
        }
      ],
      "stateMutability": "view",
      "type": "function"
    },
    {
      "inputs": [],
      "name": "i_SEPOLIA_FUNCTIONS_ROUTER",
      "outputs": [
        {
          "internalType": "address",
          "name": "",
          "type": "address"
        }
      ],
      "stateMutability": "view",
      "type": "function"
    },
    {
      "inputs": [],
      "name": "i_SEPOLIA_TSLA_PRICE_FEED",
      "outputs": [
        {
          "internalType": "address",
          "name": "",
          "type": "address"
        }
      ],
      "stateMutability": "view",
      "type": "function"
    },
    {
      "inputs": [],
      "name": "i_SEPOLIA_USDC",
      "outputs": [
        {
          "internalType": "address",
          "name": "",
          "type": "address"
        }
      ],
      "stateMutability": "view",
      "type": "function"
    },
    {
      "inputs": [],
      "name": "i_SEPOLIA_USDC_PRICE_FEED",
      "outputs": [
        {
          "internalType": "address",
          "name": "",
          "type": "address"
        }
      ],
      "stateMutability": "view",
      "type": "function"
    },
    {
      "inputs": [],
      "name": "name",
      "outputs": [
        {
          "internalType": "string",
          "name": "",
          "type": "string"
        }
      ],
      "stateMutability": "view",
      "type": "function"
    },
    {
      "inputs": [],
      "name": "owner",
      "outputs": [
        {
          "internalType": "address",
          "name": "",
          "type": "address"
        }
      ],
      "stateMutability": "view",
      "type": "function"
    },
    {
      "inputs": [],
      "name": "s_mintSourceCode",
      "outputs": [
        {
          "internalType": "string",
          "name": "",
          "type": "string"
        }
      ],
      "stateMutability": "view",
      "type": "function"
    },
    {
      "inputs": [],
      "name": "s_redeemSourceCode",
      "outputs": [
        {
          "internalType": "string",
          "name": "",
          "type": "string"
        }
      ],
      "stateMutability": "view",
      "type": "function"
    },
    {
      "inputs": [
        {
          "internalType": "bytes32",
          "name": "requestId",
          "type": "bytes32"
        }
      ],
      "name": "s_requestIdToRequest",
      "outputs": [
        {
          "internalType": "uint256",
          "name": "amountOfToken",
          "type": "uint256"
        },
        {
          "internalType": "address",
          "name": "requester",
          "type": "address"
        },
        {
          "internalType": "enum dTESLA.MintOrRedeem",
          "name": "mintOrRedeem",
          "type": "uint8"
        }
      ],
      "stateMutability": "view",
      "type": "function"
    },
    {
      "inputs": [
        {
          "internalType": "address",
          "name": "user",
          "type": "address"
        }
      ],
      "name": "s_userToWithdrawAmount",
      "outputs": [
        {
          "internalType": "uint256",
          "name": "pendingWithdrawAmount",
          "type": "uint256"
        }
      ],
      "stateMutability": "view",
      "type": "function"
    },
    {
      "inputs": [],
      "name": "secretSlot",
      "outputs": [
        {
          "internalType": "uint8",
          "name": "",
          "type": "uint8"
        }
      ],
      "stateMutability": "view",
      "type": "function"
    },
    {
      "inputs": [],
      "name": "secretVersion",
      "outputs": [
        {
          "internalType": "uint64",
          "name": "",
          "type": "uint64"
        }
      ],
      "stateMutability": "view",
      "type": "function"
    },
    {
      "inputs": [
        {
          "internalType": "uint256",
          "name": "amount",
          "type": "uint256"
        }
      ],
      "name": "sendMintRequest",
      "outputs": [
        {
          "internalType": "bytes32",
          "name": "",
          "type": "bytes32"
        }
      ],
      "stateMutability": "nonpayable",
      "type": "function"
    },
    {
      "inputs": [
        {
          "internalType": "uint256",
          "name": "amountdTesla",
          "type": "uint256"
        }
      ],
      "name": "sendRedeemRequest",
      "outputs": [],
      "stateMutability": "nonpayable",
      "type": "function"
    },
    {
      "inputs": [
        {
          "internalType": "string",
          "name": "redeemSourceCode",
          "type": "string"
        }
      ],
      "name": "setRedeemCode",
      "outputs": [],
      "stateMutability": "nonpayable",
      "type": "function"
    },
    {
      "inputs": [],
      "name": "symbol",
      "outputs": [
        {
          "internalType": "string",
          "name": "",
          "type": "string"
        }
      ],
      "stateMutability": "view",
      "type": "function"
    },
    {
      "inputs": [],
      "name": "test",
      "outputs": [
        {
          "internalType": "uint256",
          "name": "",
          "type": "uint256"
        }
      ],
      "stateMutability": "view",
      "type": "function"
    },
    {
      "inputs": [],
      "name": "testAddress",
      "outputs": [
        {
          "internalType": "address",
          "name": "",
          "type": "address"
        }
      ],
      "stateMutability": "view",
      "type": "function"
    },
    {
      "inputs": [
        {
          "internalType": "bool",
          "name": "testBoolValue",
          "type": "bool"
        }
      ],
      "name": "testBool",
      "outputs": [],
      "stateMutability": "nonpayable",
      "type": "function"
    },
    {
      "inputs": [],
      "name": "testing",
      "outputs": [
        {
          "internalType": "bool",
          "name": "",
          "type": "bool"
        }
      ],
      "stateMutability": "view",
      "type": "function"
    },
    {
      "inputs": [],
      "name": "totalSupply",
      "outputs": [
        {
          "internalType": "uint256",
          "name": "",
          "type": "uint256"
        }
      ],
      "stateMutability": "view",
      "type": "function"
    },
    {
      "inputs": [
        {
          "internalType": "address",
          "name": "to",
          "type": "address"
        },
        {
          "internalType": "uint256",
          "name": "value",
          "type": "uint256"
        }
      ],
      "name": "transfer",
      "outputs": [
        {
          "internalType": "bool",
          "name": "",
          "type": "bool"
        }
      ],
      "stateMutability": "nonpayable",
      "type": "function"
    },
    {
      "inputs": [
        {
          "internalType": "address",
          "name": "from",
          "type": "address"
        },
        {
          "internalType": "address",
          "name": "to",
          "type": "address"
        },
        {
          "internalType": "uint256",
          "name": "value",
          "type": "uint256"
        }
      ],
      "name": "transferFrom",
      "outputs": [
        {
          "internalType": "bool",
          "name": "",
          "type": "bool"
        }
      ],
      "stateMutability": "nonpayable",
      "type": "function"
    },
    {
      "inputs": [
        {
          "internalType": "address",
          "name": "to",
          "type": "address"
        }
      ],
      "name": "transferOwnership",
      "outputs": [],
      "stateMutability": "nonpayable",
      "type": "function"
    },
    {
      "inputs": [],
      "name": "withdraw",
      "outputs": [],
      "stateMutability": "nonpayable",
      "type": "function"
    }
  ],
  "transactionHash": "0x8fee1e09d9d34b2f25c5802778b2e4cddd354bdc03d92a2d1a7ed5a8fa6651e5",
  "args": [
    "const SLEEP_TIME = 2000 // 5 seconds\n\nasync function main() {\n    const stockTicker = args[0]\n    const amountQty = args[1]\n\n    _checkKeys()\n\n    const side = \"buy\"\n    let order_id = await placeOrder(stockTicker, amountQty, side)\n\n    let filledQty = await orderDetails(order_id)\n\n    return Functions.encodeUint256(filledQty)\n}\n\n// returns string: client_order_id, string: orderStatus, int: responseStatus\nasync function placeOrder(symbol, qty, side) {\n    // TODO, something is wrong with this request, need to fix\n    const alpacaSellRequest = Functions.makeHttpRequest({\n        method: \"POST\",\n        url: \"https://paper-api.alpaca.markets/v2/orders\",\n        headers: {\n            accept: \"application/json\",\n            \"content-type\": \"application/json\",\n            \"APCA-API-KEY-ID\": secrets.alpacaKey,\n            \"APCA-API-SECRET-KEY\": secrets.alpacaSecret,\n        },\n        data: {\n            side: side,\n            type: \"market\",\n            time_in_force: \"day\",\n            symbol: symbol,\n            notional: qty,\n        },\n    })\n\n    const responseRaw = await alpacaSellRequest\n    const response = responseRaw.data\n\n    return response.id\n}\n\nasync function orderDetails(order_id) {\n    const alpacaOrderDetailsRequest = Functions.makeHttpRequest({\n        method: \"GET\",\n        url: `https://paper-api.alpaca.markets/v2/orders/${order_id}`,\n        headers: {\n            accept: \"application/json\",\n            \"APCA-API-KEY-ID\": secrets.alpacaKey,\n            \"APCA-API-SECRET-KEY\": secrets.alpacaSecret,\n        },\n    })\n\n    const responseDetailsRaw = await alpacaOrderDetailsRequest\n\n    const responseDetails = responseDetailsRaw.data\n\n    return parseInt(Number(responseDetails.filled_qty) * 1e18)\n}\n\n// returns int: responseStatus\nasync function cancelOrder(order_id) {\n    const alpacaCancelRequest = Functions.makeHttpRequest({\n        method: \"DELETE\",\n        url: `https://paper-api.alpaca.markets/v2/orders/${order_id}`,\n        headers: {\n            accept: \"application/json\",\n            \"APCA-API-KEY-ID\": secrets.alpacaKey,\n            \"APCA-API-SECRET-KEY\": secrets.alpacaSecret,\n        },\n    })\n\n    const [response] = await Promise.all([alpacaCancelRequest])\n\n    const responseStatus = response.status\n    return responseStatus\n}\n\n// @returns bool\nasync function waitForOrderToFill(order_id) {\n    let numberOfSleeps = 0\n    const capNumberOfSleeps = 10\n    let filled = false\n\n    while (numberOfSleeps < capNumberOfSleeps) {\n        const alpacaOrderStatusRequest = Functions.makeHttpRequest({\n            method: \"GET\",\n            url: `https://paper-api.alpaca.markets/v2/orders/${order_id}`,\n            headers: {\n                accept: \"application/json\",\n                \"APCA-API-KEY-ID\": secrets.alpacaKey,\n                \"APCA-API-SECRET-KEY\": secrets.alpacaSecret,\n            },\n        })\n\n        const [response] = await Promise.all([alpacaOrderStatusRequest])\n\n        const responseStatus = response.status\n        const { status: orderStatus } = response.data\n        if (responseStatus !== 200) {\n            return false\n        }\n        if (orderStatus === \"filled\") {\n            filled = true\n            break\n        }\n        numberOfSleeps++\n        await sleep(SLEEP_TIME)\n    }\n    return filled\n}\n\nfunction _checkKeys() {\n    if (secrets.alpacaKey == \"\" || secrets.alpacaSecret === \"\") {\n        throw Error(\"need alpaca keys\")\n    }\n}\n\nfunction sleep(ms) {\n    return new Promise((resolve) => setTimeout(resolve, ms))\n}\n\nconst result = await main()\nreturn result\n",
    "3179",
    "0xb83E47C2bC239B3bf370bc41e1459A34b41238D0",
    "0xc59E3633BAAC79493d908e63626716e204A45EdF",
    "0xA2F78ab2355fe2f984D808B5CeE7FD0A93D5270E",
    "0x1c7D4B196Cb0C7B01d743Fbc6116a902379C7238",
    {
      "0": 102,
      "1": 117,
      "2": 110,
      "3": 45,
      "4": 101,
      "5": 116,
      "6": 104,
      "7": 101,
      "8": 114,
      "9": 101,
      "10": 117,
      "11": 109,
      "12": 45,
      "13": 115,
      "14": 101,
      "15": 112,
      "16": 111,
      "17": 108,
      "18": 105,
      "19": 97,
      "20": 45,
      "21": 49,
      "22": 0,
      "23": 0,
      "24": 0,
      "25": 0,
      "26": 0,
      "27": 0,
      "28": 0,
      "29": 0,
      "30": 0,
      "31": 0
    },
    1720813086,
    0
  ],
  "numDeployments": 32,
  "solcInputHash": "34ca8f973e4a49bc6e02b2551e2bf2c0",
  "bytecode": "0x6101606040526001600760006101000a81548160ff0219169083151502179055506003600855670de0b6b3a7640000600a556402540be400600b5534801561004657600080fd5b506040516152833803806152838339818101604052810190610068919061072c565b6040518060400160405280600581526020017f6454534c410000000000000000000000000000000000000000000000000000008152506040518060400160405280600581526020017f6454534c4100000000000000000000000000000000000000000000000000000081525088338060008073ffffffffffffffffffffffffffffffffffffffff168273ffffffffffffffffffffffffffffffffffffffff1603610147576040517f08c379a000000000000000000000000000000000000000000000000000000000815260040161013e9061086f565b60405180910390fd5b816000806101000a81548173ffffffffffffffffffffffffffffffffffffffff021916908373ffffffffffffffffffffffffffffffffffffffff160217905550600073ffffffffffffffffffffffffffffffffffffffff168173ffffffffffffffffffffffffffffffffffffffff16146101cb576101ca8161037e60201b60201c565b5b5050508073ffffffffffffffffffffffffffffffffffffffff1660808173ffffffffffffffffffffffffffffffffffffffff16815250505081600590816102129190610ab0565b5080600690816102229190610ab0565b50505088600c90816102349190610ab0565b508767ffffffffffffffff166101408167ffffffffffffffff16815250508673ffffffffffffffffffffffffffffffffffffffff1660a08173ffffffffffffffffffffffffffffffffffffffff16815250508573ffffffffffffffffffffffffffffffffffffffff1660c08173ffffffffffffffffffffffffffffffffffffffff16815250508473ffffffffffffffffffffffffffffffffffffffff1660e08173ffffffffffffffffffffffffffffffffffffffff16815250508373ffffffffffffffffffffffffffffffffffffffff166101008173ffffffffffffffffffffffffffffffffffffffff168152505082610120818152505081600e60006101000a81548167ffffffffffffffff021916908367ffffffffffffffff16021790555080600e60086101000a81548160ff021916908360ff160217905550505050505050505050610bee565b3373ffffffffffffffffffffffffffffffffffffffff168173ffffffffffffffffffffffffffffffffffffffff16036103ec576040517f08c379a00000000000000000000000000000000000000000000000000000000081526004016103e390610bce565b60405180910390fd5b80600160006101000a81548173ffffffffffffffffffffffffffffffffffffffff021916908373ffffffffffffffffffffffffffffffffffffffff1602179055508073ffffffffffffffffffffffffffffffffffffffff1660008054906101000a900473ffffffffffffffffffffffffffffffffffffffff1673ffffffffffffffffffffffffffffffffffffffff167fed8889f560326eb138920d842192f0eb3dd22b4f139c87a2c57538e05bae127860405160405180910390a350565b6000604051905090565b600080fd5b600080fd5b600080fd5b600080fd5b6000601f19601f8301169050919050565b7f4e487b7100000000000000000000000000000000000000000000000000000000600052604160045260246000fd5b610511826104c8565b810181811067ffffffffffffffff821117156105305761052f6104d9565b5b80604052505050565b60006105436104aa565b905061054f8282610508565b919050565b600067ffffffffffffffff82111561056f5761056e6104d9565b5b610578826104c8565b9050602081019050919050565b60005b838110156105a3578082015181840152602081019050610588565b60008484015250505050565b60006105c26105bd84610554565b610539565b9050828152602081018484840111156105de576105dd6104c3565b5b6105e9848285610585565b509392505050565b600082601f830112610606576106056104be565b5b81516106168482602086016105af565b91505092915050565b600067ffffffffffffffff82169050919050565b61063c8161061f565b811461064757600080fd5b50565b60008151905061065981610633565b92915050565b600073ffffffffffffffffffffffffffffffffffffffff82169050919050565b600061068a8261065f565b9050919050565b61069a8161067f565b81146106a557600080fd5b50565b6000815190506106b781610691565b92915050565b6000819050919050565b6106d0816106bd565b81146106db57600080fd5b50565b6000815190506106ed816106c7565b92915050565b600060ff82169050919050565b610709816106f3565b811461071457600080fd5b50565b60008151905061072681610700565b92915050565b60008060008060008060008060006101208a8c03121561074f5761074e6104b4565b5b60008a015167ffffffffffffffff81111561076d5761076c6104b9565b5b6107798c828d016105f1565b995050602061078a8c828d0161064a565b985050604061079b8c828d016106a8565b97505060606107ac8c828d016106a8565b96505060806107bd8c828d016106a8565b95505060a06107ce8c828d016106a8565b94505060c06107df8c828d016106de565b93505060e06107f08c828d0161064a565b9250506101006108028c828d01610717565b9150509295985092959850929598565b600082825260208201905092915050565b7f43616e6e6f7420736574206f776e657220746f207a65726f0000000000000000600082015250565b6000610859601883610812565b915061086482610823565b602082019050919050565b600060208201905081810360008301526108888161084c565b9050919050565b600081519050919050565b7f4e487b7100000000000000000000000000000000000000000000000000000000600052602260045260246000fd5b600060028204905060018216806108e157607f821691505b6020821081036108f4576108f361089a565b5b50919050565b60008190508160005260206000209050919050565b60006020601f8301049050919050565b600082821b905092915050565b60006008830261095c7fffffffffffffffffffffffffffffffffffffffffffffffffffffffffffffffff8261091f565b610966868361091f565b95508019841693508086168417925050509392505050565b6000819050919050565b6000819050919050565b60006109ad6109a86109a38461097e565b610988565b61097e565b9050919050565b6000819050919050565b6109c783610992565b6109db6109d3826109b4565b84845461092c565b825550505050565b600090565b6109f06109e3565b6109fb8184846109be565b505050565b5b81811015610a1f57610a146000826109e8565b600181019050610a01565b5050565b601f821115610a6457610a35816108fa565b610a3e8461090f565b81016020851015610a4d578190505b610a61610a598561090f565b830182610a00565b50505b505050565b600082821c905092915050565b6000610a8760001984600802610a69565b1980831691505092915050565b6000610aa08383610a76565b9150826002028217905092915050565b610ab98261088f565b67ffffffffffffffff811115610ad257610ad16104d9565b5b610adc82546108c9565b610ae7828285610a23565b600060209050601f831160018114610b1a5760008415610b08578287015190505b610b128582610a94565b865550610b7a565b601f198416610b28866108fa565b60005b82811015610b5057848901518255600182019150602085019450602081019050610b2b565b86831015610b6d5784890151610b69601f891682610a76565b8355505b6001600288020188555050505b505050505050565b7f43616e6e6f74207472616e7366657220746f2073656c66000000000000000000600082015250565b6000610bb8601783610812565b9150610bc382610b82565b602082019050919050565b60006020820190508181036000830152610be781610bab565b9050919050565b60805160a05160c05160e05161010051610120516101405161460a610c7960003960008181610f3f01526114d7015260008181610a7e01528181610f6401526114fc0152600081816109fc0152610b2d015260008181610c670152610d5f01526000818161092901526117a6015260006118be0152600081816108310152612168015261460a6000f3fe608060405234801561001057600080fd5b506004361061023d5760003560e01c806378213aca1161013b578063c97c77de116100b8578063ec1830521161007c578063ec183052146106c2578063f2fde38b146106e0578063f8a8fd6d146106fc578063fb1e61ca1461071a578063feb1ff1b1461074a5761023d565b8063c97c77de1461060c578063cdc5ca7f1461063c578063dd62ed3e1461065a578063e8dde2321461068a578063ebcaaa4c146106a65761023d565b8063a9059cbb116100ff578063a9059cbb1461053e578063ab1341611461056e578063ae5fc35a1461059e578063b65681a2146105bc578063c7a2533b146105da5761023d565b806378213aca146104be57806379ba5097146104da5780638d03b102146104e45780638da5cb5b1461050257806395d89b41146105205761023d565b806323b872dd116101c957806352b1033b1161018d57806352b1033b1461040457806356582bf91461042257806360c426881461045257806370a0823114610470578063747fbb1e146104a05761023d565b806323b872dd14610370578063262330b4146103a0578063313ce567146103be57806337d1f3af146103dc5780633ccfd60b146103fa5761023d565b8063115826731161021057806311582673146102c857806311edc06e146102f857806318160ddd146103165780631a20d9eb1461033457806320d46481146103525761023d565b806306fdde0314610242578063095ea7b3146102605780630ca76175146102905780630f50cec3146102ac575b600080fd5b61024a61077a565b60405161025791906132e2565b60405180910390f35b61027a600480360381019061027591906133ac565b61080c565b6040516102879190613407565b60405180910390f35b6102aa60048036038101906102a5919061358d565b61082f565b005b6102c660048036038101906102c191906136b9565b6108f1565b005b6102e260048036038101906102dd9190613702565b61090c565b6040516102ef919061373e565b60405180910390f35b610300610924565b60405161030d919061373e565b60405180910390f35b61031e6109d6565b60405161032b919061373e565b60405180910390f35b61033c6109e0565b604051610349919061377c565b60405180910390f35b61035a6109fa565b60405161036791906137a6565b60405180910390f35b61038a600480360381019061038591906137c1565b610a1e565b6040516103979190613407565b60405180910390f35b6103a8610a4d565b6040516103b591906137a6565b60405180910390f35b6103c6610a73565b6040516103d39190613830565b60405180910390f35b6103e4610a7c565b6040516103f1919061385a565b60405180910390f35b610402610aa0565b005b61040c610c06565b6040516104199190613830565b60405180910390f35b61043c60048036038101906104379190613702565b610c19565b604051610449919061373e565b60405180910390f35b61045a610c62565b604051610467919061373e565b60405180910390f35b61048a60048036038101906104859190613702565b610d14565b604051610497919061373e565b60405180910390f35b6104a8610d5d565b6040516104b591906137a6565b60405180910390f35b6104d860048036038101906104d39190613875565b610d81565b005b6104e2611075565b005b6104ec61120a565b6040516104f99190613407565b60405180910390f35b61050a61121d565b60405161051791906137a6565b60405180910390f35b610528611246565b60405161053591906132e2565b60405180910390f35b610558600480360381019061055391906133ac565b6112d8565b6040516105659190613407565b60405180910390f35b61058860048036038101906105839190613875565b6112fb565b604051610595919061385a565b60405180910390f35b6105a6611608565b6040516105b391906132e2565b60405180910390f35b6105c4611696565b6040516105d191906132e2565b60405180910390f35b6105f460048036038101906105ef91906138a2565b611724565b60405161060393929190613946565b60405180910390f35b61062660048036038101906106219190613875565b61177b565b604051610633919061373e565b60405180910390f35b6106446117a4565b60405161065191906137a6565b60405180910390f35b610674600480360381019061066f919061397d565b6117c8565b604051610681919061373e565b60405180910390f35b6106a4600480360381019061069f91906139e9565b61184f565b005b6106c060048036038101906106bb9190613a6e565b61186c565b005b6106ca6118bc565b6040516106d791906137a6565b60405180910390f35b6106fa60048036038101906106f59190613702565b6118e0565b005b6107046118f4565b604051610711919061373e565b60405180910390f35b610734600480360381019061072f91906138a2565b6118fa565b6040516107419190613b1d565b60405180910390f35b610764600480360381019061075f9190613875565b6119c2565b604051610771919061373e565b60405180910390f35b60606005805461078990613b67565b80601f01602080910402602001604051908101604052809291908181526020018280546107b590613b67565b80156108025780601f106107d757610100808354040283529160200191610802565b820191906000526020600020905b8154815290600101906020018083116107e557829003601f168201915b5050505050905090565b6000806108176119eb565b90506108248185856119f3565b600191505092915050565b7f000000000000000000000000000000000000000000000000000000000000000073ffffffffffffffffffffffffffffffffffffffff163373ffffffffffffffffffffffffffffffffffffffff16146108b4576040517fc6829f8300000000000000000000000000000000000000000000000000000000815260040160405180910390fd5b6108bf838383611a05565b827f85e1543bf2f84fe80c6badbce3648c8539ad1df4d2b3d822938ca0538be727e660405160405180910390a2505050565b6108f9611a14565b80600d90816109089190613d44565b5050565b60116020528060005260406000206000915090505481565b6000807f0000000000000000000000000000000000000000000000000000000000000000905060008173ffffffffffffffffffffffffffffffffffffffff1663feaf968c6040518163ffffffff1660e01b815260040160a060405180830381865afa158015610997573d6000803e3d6000fd5b505050506040513d601f19601f820116820180604052508101906109bb9190613ea3565b505050915050600b54816109cf9190613f4d565b9250505090565b6000600454905090565b600e60009054906101000a900467ffffffffffffffff1681565b7f000000000000000000000000000000000000000000000000000000000000000081565b600080610a296119eb565b9050610a36858285611aa4565b610a41858585611b38565b60019150509392505050565b600960009054906101000a900473ffffffffffffffffffffffffffffffffffffffff1681565b60006012905090565b7f000000000000000000000000000000000000000000000000000000000000000081565b6000601160003373ffffffffffffffffffffffffffffffffffffffff1673ffffffffffffffffffffffffffffffffffffffff1681526020019081526020016000205490506000601160003373ffffffffffffffffffffffffffffffffffffffff1673ffffffffffffffffffffffffffffffffffffffff1681526020019081526020016000208190555060007f000000000000000000000000000000000000000000000000000000000000000073ffffffffffffffffffffffffffffffffffffffff1663a9059cbb33846040518363ffffffff1660e01b8152600401610b86929190613f8f565b6020604051808303816000875af1158015610ba5573d6000803e3d6000fd5b505050506040513d601f19601f82011682018060405250810190610bc99190613fcd565b905080610c02576040517fb2d7217e00000000000000000000000000000000000000000000000000000000815260040160405180910390fd5b5050565b600e60089054906101000a900460ff1681565b6000601160008373ffffffffffffffffffffffffffffffffffffffff1673ffffffffffffffffffffffffffffffffffffffff168152602001908152602001600020549050919050565b6000807f0000000000000000000000000000000000000000000000000000000000000000905060008173ffffffffffffffffffffffffffffffffffffffff1663feaf968c6040518163ffffffff1660e01b815260040160a060405180830381865afa158015610cd5573d6000803e3d6000fd5b505050506040513d601f19601f82011682018060405250810190610cf99190613ea3565b505050915050600b5481610d0d9190613f4d565b9250505090565b6000600260008373ffffffffffffffffffffffffffffffffffffffff1673ffffffffffffffffffffffffffffffffffffffff168152602001908152602001600020549050919050565b7f000000000000000000000000000000000000000000000000000000000000000081565b6000610d94610d8f836119c2565b61177b565b90506305f5e100811115610dd4576040517f0a5d3ef300000000000000000000000000000000000000000000000000000000815260040160405180910390fd5b610ddc61315d565b610e79600d8054610dec90613b67565b80601f0160208091040260200160405190810160405280929190818152602001828054610e1890613b67565b8015610e655780601f10610e3a57610100808354040283529160200191610e65565b820191906000526020600020905b815481529060010190602001808311610e4857829003601f168201915b505050505082611c2c90919063ffffffff16565b6000600267ffffffffffffffff811115610e9657610e95613462565b5b604051908082528060200260200182016040528015610ec957816020015b6060815260200190600190039081610eb45790505b509050610ed584611c3d565b81600081518110610ee957610ee8613ffa565b5b6020026020010181905250610efd83611c3d565b81600181518110610f1157610f10613ffa565b5b6020026020010181905250610f2f8183611d0b90919063ffffffff16565b6000610f88610f3d84611d53565b7f0000000000000000000000000000000000000000000000000000000000000000620493e07f0000000000000000000000000000000000000000000000000000000000000000612163565b905060405180606001604052808681526020013373ffffffffffffffffffffffffffffffffffffffff168152602001600180811115610fca57610fc96138cf565b5b815250601060008381526020019081526020016000206000820151816000015560208201518160010160006101000a81548173ffffffffffffffffffffffffffffffffffffffff021916908373ffffffffffffffffffffffffffffffffffffffff16021790555060408201518160010160146101000a81548160ff0219169083600181111561105c5761105b6138cf565b5b021790555090505061106e3386612246565b5050505050565b600160009054906101000a900473ffffffffffffffffffffffffffffffffffffffff1673ffffffffffffffffffffffffffffffffffffffff163373ffffffffffffffffffffffffffffffffffffffff1614611105576040517f08c379a00000000000000000000000000000000000000000000000000000000081526004016110fc90614075565b60405180910390fd5b60008060009054906101000a900473ffffffffffffffffffffffffffffffffffffffff169050336000806101000a81548173ffffffffffffffffffffffffffffffffffffffff021916908373ffffffffffffffffffffffffffffffffffffffff1602179055506000600160006101000a81548173ffffffffffffffffffffffffffffffffffffffff021916908373ffffffffffffffffffffffffffffffffffffffff1602179055503373ffffffffffffffffffffffffffffffffffffffff168173ffffffffffffffffffffffffffffffffffffffff167f8be0079c531659141344cd1fd0a4f28419497f9722a3daafe3b4186f6b6457e060405160405180910390a350565b600760009054906101000a900460ff1681565b60008060009054906101000a900473ffffffffffffffffffffffffffffffffffffffff16905090565b60606006805461125590613b67565b80601f016020809104026020016040519081016040528092919081815260200182805461128190613b67565b80156112ce5780601f106112a3576101008083540402835291602001916112ce565b820191906000526020600020905b8154815290600101906020018083116112b157829003601f168201915b5050505050905090565b6000806112e36119eb565b90506112f0818585611b38565b600191505092915050565b6000611305611a14565b61130d61315d565b6113aa600c805461131d90613b67565b80601f016020809104026020016040519081016040528092919081815260200182805461134990613b67565b80156113965780601f1061136b57610100808354040283529160200191611396565b820191906000526020600020905b81548152906001019060200180831161137957829003601f168201915b505050505082611c2c90919063ffffffff16565b6113e4600e60089054906101000a900460ff16600e60009054906101000a900467ffffffffffffffff16836122c89092919063ffffffff16565b6000600267ffffffffffffffff81111561140157611400613462565b5b60405190808252806020026020018201604052801561143457816020015b606081526020019060019003908161141f5790505b5090506040518060400160405280600481526020017f4141504c000000000000000000000000000000000000000000000000000000008152508160008151811061148157611480613ffa565b5b602002602001018190525061149584611c3d565b816001815181106114a9576114a8613ffa565b5b60200260200101819052506114c78183611d0b90919063ffffffff16565b60006115206114d584611d53565b7f0000000000000000000000000000000000000000000000000000000000000000620493e07f0000000000000000000000000000000000000000000000000000000000000000612163565b905060405180606001604052808681526020013373ffffffffffffffffffffffffffffffffffffffff16815260200160006001811115611563576115626138cf565b5b815250601060008381526020019081526020016000206000820151816000015560208201518160010160006101000a81548173ffffffffffffffffffffffffffffffffffffffff021916908373ffffffffffffffffffffffffffffffffffffffff16021790555060408201518160010160146101000a81548160ff021916908360018111156115f5576115f46138cf565b5b0217905550905050809350505050919050565b600d805461161590613b67565b80601f016020809104026020016040519081016040528092919081815260200182805461164190613b67565b801561168e5780601f106116635761010080835404028352916020019161168e565b820191906000526020600020905b81548152906001019060200180831161167157829003601f168201915b505050505081565b600c80546116a390613b67565b80601f01602080910402602001604051908101604052809291908181526020018280546116cf90613b67565b801561171c5780601f106116f15761010080835404028352916020019161171c565b820191906000526020600020905b8154815290600101906020018083116116ff57829003601f168201915b505050505081565b60106020528060005260406000206000915090508060000154908060010160009054906101000a900473ffffffffffffffffffffffffffffffffffffffff16908060010160149054906101000a900460ff16905083565b6000600a54611788610c62565b836117939190613f4d565b61179d91906140c4565b9050919050565b7f000000000000000000000000000000000000000000000000000000000000000081565b6000600360008473ffffffffffffffffffffffffffffffffffffffff1673ffffffffffffffffffffffffffffffffffffffff16815260200190815260200160002060008373ffffffffffffffffffffffffffffffffffffffff1673ffffffffffffffffffffffffffffffffffffffff16815260200190815260200160002054905092915050565b80600760006101000a81548160ff02191690831515021790555050565b611874611a14565b81600e60006101000a81548167ffffffffffffffff021916908367ffffffffffffffff16021790555080600e60086101000a81548160ff021916908360ff1602179055505050565b7f000000000000000000000000000000000000000000000000000000000000000081565b6118e8611a14565b6118f1816123d8565b50565b60085481565b6119026131cf565b60106000838152602001908152602001600020604051806060016040529081600082015481526020016001820160009054906101000a900473ffffffffffffffffffffffffffffffffffffffff1673ffffffffffffffffffffffffffffffffffffffff1673ffffffffffffffffffffffffffffffffffffffff1681526020016001820160149054906101000a900460ff1660018111156119a5576119a46138cf565b5b60018111156119b7576119b66138cf565b5b815250509050919050565b6000600a546119cf610924565b836119da9190613f4d565b6119e491906140c4565b9050919050565b600033905090565b611a008383836001612504565b505050565b611a0f83836126db565b505050565b60008054906101000a900473ffffffffffffffffffffffffffffffffffffffff1673ffffffffffffffffffffffffffffffffffffffff163373ffffffffffffffffffffffffffffffffffffffff1614611aa2576040517f08c379a0000000000000000000000000000000000000000000000000000000008152600401611a9990614141565b60405180910390fd5b565b6000611ab084846117c8565b90507fffffffffffffffffffffffffffffffffffffffffffffffffffffffffffffffff8114611b325781811015611b22578281836040517ffb8f41b2000000000000000000000000000000000000000000000000000000008152600401611b1993929190614161565b60405180910390fd5b611b3184848484036000612504565b5b50505050565b600073ffffffffffffffffffffffffffffffffffffffff168373ffffffffffffffffffffffffffffffffffffffff1603611baa5760006040517f96c6fd1e000000000000000000000000000000000000000000000000000000008152600401611ba191906137a6565b60405180910390fd5b600073ffffffffffffffffffffffffffffffffffffffff168273ffffffffffffffffffffffffffffffffffffffff1603611c1c5760006040517fec442f05000000000000000000000000000000000000000000000000000000008152600401611c1391906137a6565b60405180910390fd5b611c2783838361272b565b505050565b611c398260008084612953565b5050565b606060006001611c4c846129fd565b01905060008167ffffffffffffffff811115611c6b57611c6a613462565b5b6040519080825280601f01601f191660200182016040528015611c9d5781602001600182028036833780820191505090505b509050600082602001820190505b600115611d00578080600190039150507f3031323334353637383961626364656600000000000000000000000000000000600a86061a8153600a8581611cf457611cf3614095565b5b04945060008503611cab575b819350505050919050565b6000815103611d46576040517ffe936cb700000000000000000000000000000000000000000000000000000000815260040160405180910390fd5b808260a001819052505050565b60606000611d62610100612b50565b9050611dac6040518060400160405280600c81526020017f636f64654c6f636174696f6e000000000000000000000000000000000000000081525082612b7790919063ffffffff16565b611dd583600001516002811115611dc657611dc56138cf565b5b82612ba090919063ffffffff16565b611e1d6040518060400160405280600881526020017f6c616e677561676500000000000000000000000000000000000000000000000081525082612b7790919063ffffffff16565b611e4683604001516000811115611e3757611e366138cf565b5b82612ba090919063ffffffff16565b611e8e6040518060400160405280600681526020017f736f75726365000000000000000000000000000000000000000000000000000081525082612b7790919063ffffffff16565b611ea5836060015182612b7790919063ffffffff16565b60008360a00151511115611f5b57611efb6040518060400160405280600481526020017f617267730000000000000000000000000000000000000000000000000000000081525082612b7790919063ffffffff16565b611f0481612bf0565b60005b8360a0015151811015611f5057611f458460a001518281518110611f2e57611f2d613ffa565b5b602002602001015183612b7790919063ffffffff16565b806001019050611f07565b50611f5a81612c18565b5b6000836080015151111561209c5760006002811115611f7d57611f7c6138cf565b5b83602001516002811115611f9457611f936138cf565b5b03611fcb576040517fa80d31f700000000000000000000000000000000000000000000000000000000815260040160405180910390fd5b6120136040518060400160405280600f81526020017f736563726574734c6f636174696f6e000000000000000000000000000000000081525082612b7790919063ffffffff16565b61203c8360200151600281111561202d5761202c6138cf565b5b82612ba090919063ffffffff16565b6120846040518060400160405280600781526020017f736563726574730000000000000000000000000000000000000000000000000081525082612b7790919063ffffffff16565b61209b836080015182612c4090919063ffffffff16565b5b60008360c00151511115612152576120f26040518060400160405280600981526020017f627974657341726773000000000000000000000000000000000000000000000081525082612b7790919063ffffffff16565b6120fb81612bf0565b60005b8360c00151518110156121475761213c8460c00151828151811061212557612124613ffa565b5b602002602001015183612c4090919063ffffffff16565b8060010190506120fe565b5061215181612c18565b5b806000015160000151915050919050565b6000807f000000000000000000000000000000000000000000000000000000000000000073ffffffffffffffffffffffffffffffffffffffff1663461d27628688600188886040518663ffffffff1660e01b81526004016121c8959493929190614229565b6020604051808303816000875af11580156121e7573d6000803e3d6000fd5b505050506040513d601f19601f8201168201806040525081019061220b9190614298565b9050807f1131472297a800fee664d1d89cfa8f7676ff07189ecc53f80bbb5f4969099db860405160405180910390a280915050949350505050565b600073ffffffffffffffffffffffffffffffffffffffff168273ffffffffffffffffffffffffffffffffffffffff16036122b85760006040517f96c6fd1e0000000000000000000000000000000000000000000000000000000081526004016122af91906137a6565b60405180910390fd5b6122c48260008361272b565b5050565b60006122d5610100612b50565b905061231f6040518060400160405280600681526020017f736c6f744944000000000000000000000000000000000000000000000000000081525082612b7790919063ffffffff16565b6123358360ff1682612c6990919063ffffffff16565b61237d6040518060400160405280600781526020017f76657273696f6e0000000000000000000000000000000000000000000000000081525082612b7790919063ffffffff16565b6123908282612c6990919063ffffffff16565b6002846020019060028111156123a9576123a86138cf565b5b908160028111156123bd576123bc6138cf565b5b81525050806000015160000151846080018190525050505050565b3373ffffffffffffffffffffffffffffffffffffffff168173ffffffffffffffffffffffffffffffffffffffff1603612446576040517f08c379a000000000000000000000000000000000000000000000000000000000815260040161243d90614311565b60405180910390fd5b80600160006101000a81548173ffffffffffffffffffffffffffffffffffffffff021916908373ffffffffffffffffffffffffffffffffffffffff1602179055508073ffffffffffffffffffffffffffffffffffffffff1660008054906101000a900473ffffffffffffffffffffffffffffffffffffffff1673ffffffffffffffffffffffffffffffffffffffff167fed8889f560326eb138920d842192f0eb3dd22b4f139c87a2c57538e05bae127860405160405180910390a350565b600073ffffffffffffffffffffffffffffffffffffffff168473ffffffffffffffffffffffffffffffffffffffff16036125765760006040517fe602df0500000000000000000000000000000000000000000000000000000000815260040161256d91906137a6565b60405180910390fd5b600073ffffffffffffffffffffffffffffffffffffffff168373ffffffffffffffffffffffffffffffffffffffff16036125e85760006040517f94280d620000000000000000000000000000000000000000000000000000000081526004016125df91906137a6565b60405180910390fd5b81600360008673ffffffffffffffffffffffffffffffffffffffff1673ffffffffffffffffffffffffffffffffffffffff16815260200190815260200160002060008573ffffffffffffffffffffffffffffffffffffffff1673ffffffffffffffffffffffffffffffffffffffff1681526020019081526020016000208190555080156126d5578273ffffffffffffffffffffffffffffffffffffffff168473ffffffffffffffffffffffffffffffffffffffff167f8c5be1e5ebec7d5bd14f71427d1e84f3dd0314c0f7b2291e5b200ac8c7c3b925846040516126cc919061373e565b60405180910390a35b50505050565b6127276010600084815260200190815260200160002060010160009054906101000a900473ffffffffffffffffffffffffffffffffffffffff168261271f90614356565b60001c612c79565b5050565b600073ffffffffffffffffffffffffffffffffffffffff168373ffffffffffffffffffffffffffffffffffffffff160361277d57806004600082825461277191906143bd565b92505081905550612852565b6000600260008573ffffffffffffffffffffffffffffffffffffffff1673ffffffffffffffffffffffffffffffffffffffff1681526020019081526020016000205490508181101561280a578381836040517fe450d38c00000000000000000000000000000000000000000000000000000000815260040161280193929190614161565b60405180910390fd5b818103600260008673ffffffffffffffffffffffffffffffffffffffff1673ffffffffffffffffffffffffffffffffffffffff16815260200190815260200160002081905550505b600073ffffffffffffffffffffffffffffffffffffffff168273ffffffffffffffffffffffffffffffffffffffff160361289b57806004600082825403925050819055506128e9565b80600260008473ffffffffffffffffffffffffffffffffffffffff1673ffffffffffffffffffffffffffffffffffffffff168152602001908152602001600020600082825401925050819055505b8173ffffffffffffffffffffffffffffffffffffffff168373ffffffffffffffffffffffffffffffffffffffff167fddf252ad1be2c89b69c2b068fc378daa952ba7f163c4a11628f55a4df523b3ef83604051612946919061373e565b60405180910390a3505050565b600081510361298e576040517f22ce3edd00000000000000000000000000000000000000000000000000000000815260040160405180910390fd5b82846000019060028111156129a6576129a56138cf565b5b908160028111156129ba576129b96138cf565b5b8152505081846040019060008111156129d6576129d56138cf565b5b908160008111156129ea576129e96138cf565b5b8152505080846060018190525050505050565b600080600090507a184f03e93ff9f4daa797ed6e38ed64bf6a1f0100000000000000008310612a5b577a184f03e93ff9f4daa797ed6e38ed64bf6a1f0100000000000000008381612a5157612a50614095565b5b0492506040810190505b6d04ee2d6d415b85acef81000000008310612a98576d04ee2d6d415b85acef81000000008381612a8e57612a8d614095565b5b0492506020810190505b662386f26fc100008310612ac757662386f26fc100008381612abd57612abc614095565b5b0492506010810190505b6305f5e1008310612af0576305f5e1008381612ae657612ae5614095565b5b0492506008810190505b6127108310612b15576127108381612b0b57612b0a614095565b5b0492506004810190505b60648310612b385760648381612b2e57612b2d614095565b5b0492506002810190505b600a8310612b47576001810190505b80915050919050565b612b58613218565b612b66816000015183612cfb565b506000816020018181525050919050565b612b848260038351612d74565b612b9b818360000151612f1d90919063ffffffff16565b505050565b612bc260026005600660ff16901b178360000151612f3990919063ffffffff16565b50612bec8282604051602001612bd8919061373e565b604051602081830303815290604052612c40565b5050565b612bfb816004612fa3565b600181602001818151612c0e91906143bd565b9150818152505050565b612c23816007612fa3565b600181602001818151612c3691906143f1565b9150818152505050565b612c4d8260028351612d74565b612c64818360000151612f1d90919063ffffffff16565b505050565b612c7582600083612d74565b5050565b600073ffffffffffffffffffffffffffffffffffffffff168273ffffffffffffffffffffffffffffffffffffffff1603612ceb5760006040517fec442f05000000000000000000000000000000000000000000000000000000008152600401612ce291906137a6565b60405180910390fd5b612cf76000838361272b565b5050565b612d03613238565b6000602083612d129190614425565b14612d3e57602082612d249190614425565b6020612d3091906143f1565b82612d3b91906143bd565b91505b818360200181815250506040518084526000815282810160200181811015612d6557600080fd5b80604052505082905092915050565b60178167ffffffffffffffff1611612daf57612da98160058460ff16901b60ff16178460000151612f3990919063ffffffff16565b50612f18565b60ff8167ffffffffffffffff1611612e0d57612de2601860058460ff16901b178460000151612f3990919063ffffffff16565b50612e078167ffffffffffffffff1660018560000151612fc99092919063ffffffff16565b50612f17565b61ffff8167ffffffffffffffff1611612e6c57612e41601960058460ff16901b178460000151612f3990919063ffffffff16565b50612e668167ffffffffffffffff1660028560000151612fc99092919063ffffffff16565b50612f16565b63ffffffff8167ffffffffffffffff1611612ecd57612ea2601a60058460ff16901b178460000151612f3990919063ffffffff16565b50612ec78167ffffffffffffffff1660048560000151612fc99092919063ffffffff16565b50612f15565b612eee601b60058460ff16901b178460000151612f3990919063ffffffff16565b50612f138167ffffffffffffffff1660088560000151612fc99092919063ffffffff16565b505b5b5b5b505050565b612f25613238565b612f3183838451613056565b905092915050565b612f41613238565b600083600001515190506000600182612f5a91906143bd565b905084602001518210612f7e57612f7d85600283612f789190613f4d565b613139565b5b84516020838201018581538151831115612f96578282525b5050849250505092915050565b612fc4601f60058360ff16901b178360000151612f3990919063ffffffff16565b505050565b612fd1613238565b6000846000015151905060008184612fe991906143bd565b9050856020015181111561300e5761300d866002836130089190613f4d565b613139565b5b60006001856101006130209190614589565b61302a91906143f1565b905086518281018783198251161781528151841115613047578382525b50508693505050509392505050565b61305e613238565b825182111561306c57600080fd5b600084600001515190506000838261308491906143bd565b905085602001518111156130a9576130a8866002836130a39190613f4d565b613139565b5b600080875180518560208301019350808511156130c4578482525b60208901925050505b6020861061310b57805182526020826130e691906143bd565b91506020816130f591906143bd565b905060208661310491906143f1565b95506130cd565b60006001876020036101000a0390508019825116818451168181178552505050879450505050509392505050565b60008260000151905061314c8383612cfb565b506131578382612f1d565b50505050565b6040518060e001604052806000600281111561317c5761317b6138cf565b5b815260200160006002811115613195576131946138cf565b5b81526020016000808111156131ad576131ac6138cf565b5b8152602001606081526020016060815260200160608152602001606081525090565b604051806060016040528060008152602001600073ffffffffffffffffffffffffffffffffffffffff16815260200160006001811115613212576132116138cf565b5b81525090565b604051806040016040528061322b613238565b8152602001600081525090565b604051806040016040528060608152602001600081525090565b600081519050919050565b600082825260208201905092915050565b60005b8381101561328c578082015181840152602081019050613271565b60008484015250505050565b6000601f19601f8301169050919050565b60006132b482613252565b6132be818561325d565b93506132ce81856020860161326e565b6132d781613298565b840191505092915050565b600060208201905081810360008301526132fc81846132a9565b905092915050565b6000604051905090565b600080fd5b600080fd5b600073ffffffffffffffffffffffffffffffffffffffff82169050919050565b600061334382613318565b9050919050565b61335381613338565b811461335e57600080fd5b50565b6000813590506133708161334a565b92915050565b6000819050919050565b61338981613376565b811461339457600080fd5b50565b6000813590506133a681613380565b92915050565b600080604083850312156133c3576133c261330e565b5b60006133d185828601613361565b92505060206133e285828601613397565b9150509250929050565b60008115159050919050565b613401816133ec565b82525050565b600060208201905061341c60008301846133f8565b92915050565b6000819050919050565b61343581613422565b811461344057600080fd5b50565b6000813590506134528161342c565b92915050565b600080fd5b600080fd5b7f4e487b7100000000000000000000000000000000000000000000000000000000600052604160045260246000fd5b61349a82613298565b810181811067ffffffffffffffff821117156134b9576134b8613462565b5b80604052505050565b60006134cc613304565b90506134d88282613491565b919050565b600067ffffffffffffffff8211156134f8576134f7613462565b5b61350182613298565b9050602081019050919050565b82818337600083830152505050565b600061353061352b846134dd565b6134c2565b90508281526020810184848401111561354c5761354b61345d565b5b61355784828561350e565b509392505050565b600082601f83011261357457613573613458565b5b813561358484826020860161351d565b91505092915050565b6000806000606084860312156135a6576135a561330e565b5b60006135b486828701613443565b935050602084013567ffffffffffffffff8111156135d5576135d4613313565b5b6135e18682870161355f565b925050604084013567ffffffffffffffff81111561360257613601613313565b5b61360e8682870161355f565b9150509250925092565b600067ffffffffffffffff82111561363357613632613462565b5b61363c82613298565b9050602081019050919050565b600061365c61365784613618565b6134c2565b9050828152602081018484840111156136785761367761345d565b5b61368384828561350e565b509392505050565b600082601f8301126136a05761369f613458565b5b81356136b0848260208601613649565b91505092915050565b6000602082840312156136cf576136ce61330e565b5b600082013567ffffffffffffffff8111156136ed576136ec613313565b5b6136f98482850161368b565b91505092915050565b6000602082840312156137185761371761330e565b5b600061372684828501613361565b91505092915050565b61373881613376565b82525050565b6000602082019050613753600083018461372f565b92915050565b600067ffffffffffffffff82169050919050565b61377681613759565b82525050565b6000602082019050613791600083018461376d565b92915050565b6137a081613338565b82525050565b60006020820190506137bb6000830184613797565b92915050565b6000806000606084860312156137da576137d961330e565b5b60006137e886828701613361565b93505060206137f986828701613361565b925050604061380a86828701613397565b9150509250925092565b600060ff82169050919050565b61382a81613814565b82525050565b60006020820190506138456000830184613821565b92915050565b61385481613422565b82525050565b600060208201905061386f600083018461384b565b92915050565b60006020828403121561388b5761388a61330e565b5b600061389984828501613397565b91505092915050565b6000602082840312156138b8576138b761330e565b5b60006138c684828501613443565b91505092915050565b7f4e487b7100000000000000000000000000000000000000000000000000000000600052602160045260246000fd5b6002811061390f5761390e6138cf565b5b50565b6000819050613920826138fe565b919050565b600061393082613912565b9050919050565b61394081613925565b82525050565b600060608201905061395b600083018661372f565b6139686020830185613797565b6139756040830184613937565b949350505050565b600080604083850312156139945761399361330e565b5b60006139a285828601613361565b92505060206139b385828601613361565b9150509250929050565b6139c6816133ec565b81146139d157600080fd5b50565b6000813590506139e3816139bd565b92915050565b6000602082840312156139ff576139fe61330e565b5b6000613a0d848285016139d4565b91505092915050565b613a1f81613759565b8114613a2a57600080fd5b50565b600081359050613a3c81613a16565b92915050565b613a4b81613814565b8114613a5657600080fd5b50565b600081359050613a6881613a42565b92915050565b60008060408385031215613a8557613a8461330e565b5b6000613a9385828601613a2d565b9250506020613aa485828601613a59565b9150509250929050565b613ab781613376565b82525050565b613ac681613338565b82525050565b613ad581613925565b82525050565b606082016000820151613af16000850182613aae565b506020820151613b046020850182613abd565b506040820151613b176040850182613acc565b50505050565b6000606082019050613b326000830184613adb565b92915050565b7f4e487b7100000000000000000000000000000000000000000000000000000000600052602260045260246000fd5b60006002820490506001821680613b7f57607f821691505b602082108103613b9257613b91613b38565b5b50919050565b60008190508160005260206000209050919050565b60006020601f8301049050919050565b600082821b905092915050565b600060088302613bfa7fffffffffffffffffffffffffffffffffffffffffffffffffffffffffffffffff82613bbd565b613c048683613bbd565b95508019841693508086168417925050509392505050565b6000819050919050565b6000613c41613c3c613c3784613376565b613c1c565b613376565b9050919050565b6000819050919050565b613c5b83613c26565b613c6f613c6782613c48565b848454613bca565b825550505050565b600090565b613c84613c77565b613c8f818484613c52565b505050565b5b81811015613cb357613ca8600082613c7c565b600181019050613c95565b5050565b601f821115613cf857613cc981613b98565b613cd284613bad565b81016020851015613ce1578190505b613cf5613ced85613bad565b830182613c94565b50505b505050565b600082821c905092915050565b6000613d1b60001984600802613cfd565b1980831691505092915050565b6000613d348383613d0a565b9150826002028217905092915050565b613d4d82613252565b67ffffffffffffffff811115613d6657613d65613462565b5b613d708254613b67565b613d7b828285613cb7565b600060209050601f831160018114613dae5760008415613d9c578287015190505b613da68582613d28565b865550613e0e565b601f198416613dbc86613b98565b60005b82811015613de457848901518255600182019150602085019450602081019050613dbf565b86831015613e015784890151613dfd601f891682613d0a565b8355505b6001600288020188555050505b505050505050565b600069ffffffffffffffffffff82169050919050565b613e3581613e16565b8114613e4057600080fd5b50565b600081519050613e5281613e2c565b92915050565b6000819050919050565b613e6b81613e58565b8114613e7657600080fd5b50565b600081519050613e8881613e62565b92915050565b600081519050613e9d81613380565b92915050565b600080600080600060a08688031215613ebf57613ebe61330e565b5b6000613ecd88828901613e43565b9550506020613ede88828901613e79565b9450506040613eef88828901613e8e565b9350506060613f0088828901613e8e565b9250506080613f1188828901613e43565b9150509295509295909350565b7f4e487b7100000000000000000000000000000000000000000000000000000000600052601160045260246000fd5b6000613f5882613376565b9150613f6383613376565b9250828202613f7181613376565b91508282048414831517613f8857613f87613f1e565b5b5092915050565b6000604082019050613fa46000830185613797565b613fb1602083018461372f565b9392505050565b600081519050613fc7816139bd565b92915050565b600060208284031215613fe357613fe261330e565b5b6000613ff184828501613fb8565b91505092915050565b7f4e487b7100000000000000000000000000000000000000000000000000000000600052603260045260246000fd5b7f4d7573742062652070726f706f736564206f776e657200000000000000000000600082015250565b600061405f60168361325d565b915061406a82614029565b602082019050919050565b6000602082019050818103600083015261408e81614052565b9050919050565b7f4e487b7100000000000000000000000000000000000000000000000000000000600052601260045260246000fd5b60006140cf82613376565b91506140da83613376565b9250826140ea576140e9614095565b5b828204905092915050565b7f4f6e6c792063616c6c61626c65206279206f776e657200000000000000000000600082015250565b600061412b60168361325d565b9150614136826140f5565b602082019050919050565b6000602082019050818103600083015261415a8161411e565b9050919050565b60006060820190506141766000830186613797565b614183602083018561372f565b614190604083018461372f565b949350505050565b600081519050919050565b600082825260208201905092915050565b60006141bf82614198565b6141c981856141a3565b93506141d981856020860161326e565b6141e281613298565b840191505092915050565b600061ffff82169050919050565b614204816141ed565b82525050565b600063ffffffff82169050919050565b6142238161420a565b82525050565b600060a08201905061423e600083018861376d565b818103602083015261425081876141b4565b905061425f60408301866141fb565b61426c606083018561421a565b614279608083018461384b565b9695505050505050565b6000815190506142928161342c565b92915050565b6000602082840312156142ae576142ad61330e565b5b60006142bc84828501614283565b91505092915050565b7f43616e6e6f74207472616e7366657220746f2073656c66000000000000000000600082015250565b60006142fb60178361325d565b9150614306826142c5565b602082019050919050565b6000602082019050818103600083015261432a816142ee565b9050919050565b6000819050602082019050919050565b600061434d8251613422565b80915050919050565b600061436182614198565b8261436b84614331565b905061437681614341565b925060208210156143b6576143b17fffffffffffffffffffffffffffffffffffffffffffffffffffffffffffffffff83602003600802613bbd565b831692505b5050919050565b60006143c882613376565b91506143d383613376565b92508282019050808211156143eb576143ea613f1e565b5b92915050565b60006143fc82613376565b915061440783613376565b925082820390508181111561441f5761441e613f1e565b5b92915050565b600061443082613376565b915061443b83613376565b92508261444b5761444a614095565b5b828206905092915050565b60008160011c9050919050565b6000808291508390505b60018511156144ad5780860481111561448957614488613f1e565b5b60018516156144985780820291505b80810290506144a685614456565b945061446d565b94509492505050565b6000826144c65760019050614582565b816144d45760009050614582565b81600181146144ea57600281146144f457614523565b6001915050614582565b60ff84111561450657614505613f1e565b5b8360020a91508482111561451d5761451c613f1e565b5b50614582565b5060208310610133831016604e8410600b84101617156145585782820a90508381111561455357614552613f1e565b5b614582565b6145658484846001614463565b9250905081840481111561457c5761457b613f1e565b5b81810290505b9392505050565b600061459482613376565b915061459f83613376565b92506145cc7fffffffffffffffffffffffffffffffffffffffffffffffffffffffffffffffff84846144b6565b90509291505056fea26469706673582212200aa6ddefd789c0f608644e39b8f5bed46f6bb193e0b9a1ae1a8bdbcdfb74212564736f6c63430008190033",
  "devdoc": {
    "errors": {
      "ERC20InsufficientAllowance(address,uint256,uint256)": [
        {
          "details": "Indicates a failure with the `spender`s `allowance`. Used in transfers.",
          "params": {
            "allowance": "Amount of tokens a `spender` is allowed to operate with.",
            "needed": "Minimum amount required to perform a transfer.",
            "spender": "Address that may be allowed to operate on tokens without being their owner."
          }
        }
      ],
      "ERC20InsufficientBalance(address,uint256,uint256)": [
        {
          "details": "Indicates an error related to the current `balance` of a `sender`. Used in transfers.",
          "params": {
            "balance": "Current balance for the interacting account.",
            "needed": "Minimum amount required to perform a transfer.",
            "sender": "Address whose tokens are being transferred."
          }
        }
      ],
      "ERC20InvalidApprover(address)": [
        {
          "details": "Indicates a failure with the `approver` of a token to be approved. Used in approvals.",
          "params": {
            "approver": "Address initiating an approval operation."
          }
        }
      ],
      "ERC20InvalidReceiver(address)": [
        {
          "details": "Indicates a failure with the token `receiver`. Used in transfers.",
          "params": {
            "receiver": "Address to which tokens are being transferred."
          }
        }
      ],
      "ERC20InvalidSender(address)": [
        {
          "details": "Indicates a failure with the token `sender`. Used in transfers.",
          "params": {
            "sender": "Address whose tokens are being transferred."
          }
        }
      ],
      "ERC20InvalidSpender(address)": [
        {
          "details": "Indicates a failure with the `spender` to be approved. Used in approvals.",
          "params": {
            "spender": "Address that may be allowed to operate on tokens without being their owner."
          }
        }
      ]
    },
    "events": {
      "Approval(address,address,uint256)": {
        "details": "Emitted when the allowance of a `spender` for an `owner` is set by a call to {approve}. `value` is the new allowance."
      },
      "Transfer(address,address,uint256)": {
        "details": "Emitted when `value` tokens are moved from one account (`from`) to another (`to`). Note that `value` may be zero."
      }
    },
    "kind": "dev",
    "methods": {
      "allowance(address,address)": {
        "details": "See {IERC20-allowance}."
      },
      "approve(address,uint256)": {
        "details": "See {IERC20-approve}. NOTE: If `value` is the maximum `uint256`, the allowance is not updated on `transferFrom`. This is semantically equivalent to an infinite approval. Requirements: - `spender` cannot be the zero address."
      },
      "balanceOf(address)": {
        "details": "See {IERC20-balanceOf}."
      },
      "decimals()": {
        "details": "Returns the number of decimals used to get its user representation. For example, if `decimals` equals `2`, a balance of `505` tokens should be displayed to a user as `5.05` (`505 / 10 ** 2`). Tokens usually opt for a value of 18, imitating the relationship between Ether and Wei. This is the default value returned by this function, unless it's overridden. NOTE: This information is only used for _display_ purposes: it in no way affects any of the arithmetic of the contract, including {IERC20-balanceOf} and {IERC20-transfer}."
      },
      "handleOracleFulfillment(bytes32,bytes,bytes)": {
        "details": "Either response or error parameter will be set, but never both.",
        "params": {
          "err": "Aggregated error either from the request's source code or from the execution pipeline.",
          "requestId": "The requestId returned by FunctionsClient.sendRequest().",
          "response": "Aggregated response from the request's source code."
        }
      },
      "name()": {
        "details": "Returns the name of the token."
      },
      "symbol()": {
        "details": "Returns the symbol of the token, usually a shorter version of the name."
      },
      "totalSupply()": {
        "details": "See {IERC20-totalSupply}."
      },
      "transfer(address,uint256)": {
        "details": "See {IERC20-transfer}. Requirements: - `to` cannot be the zero address. - the caller must have a balance of at least `value`."
      },
      "transferFrom(address,address,uint256)": {
        "details": "See {IERC20-transferFrom}. Emits an {Approval} event indicating the updated allowance. This is not required by the EIP. See the note at the beginning of {ERC20}. NOTE: Does not update the allowance if the current allowance is the maximum `uint256`. Requirements: - `from` and `to` cannot be the zero address. - `from` must have a balance of at least `value`. - the caller must have allowance for ``from``'s tokens of at least `value`."
      }
    },
    "version": 1
  },
  "userdoc": {
    "kind": "user",
    "methods": {
      "acceptOwnership()": {
        "notice": "Allows an ownership transfer to be completed by the recipient."
      },
      "handleOracleFulfillment(bytes32,bytes,bytes)": {
        "notice": "Chainlink Functions response handler called by the Functions Router during fullilment from the designated transmitter node in an OCR round."
      },
      "owner()": {
        "notice": "Get the current owner"
      },
      "transferOwnership(address)": {
        "notice": "Allows an owner to begin transferring ownership to a new address."
      }
    },
    "version": 1
  },
  "storageLayout": {
    "storage": [
      {
        "astId": 816,
        "contract": "contracts/dTESLA.sol:dTESLA",
        "label": "s_owner",
        "offset": 0,
        "slot": "0",
        "type": "t_address"
      },
      {
        "astId": 818,
        "contract": "contracts/dTESLA.sol:dTESLA",
        "label": "s_pendingOwner",
        "offset": 0,
        "slot": "1",
        "type": "t_address"
      },
      {
        "astId": 2473,
        "contract": "contracts/dTESLA.sol:dTESLA",
        "label": "_balances",
        "offset": 0,
        "slot": "2",
        "type": "t_mapping(t_address,t_uint256)"
      },
      {
        "astId": 2479,
        "contract": "contracts/dTESLA.sol:dTESLA",
        "label": "_allowances",
        "offset": 0,
        "slot": "3",
        "type": "t_mapping(t_address,t_mapping(t_address,t_uint256))"
      },
      {
        "astId": 2481,
        "contract": "contracts/dTESLA.sol:dTESLA",
        "label": "_totalSupply",
        "offset": 0,
        "slot": "4",
        "type": "t_uint256"
      },
      {
        "astId": 2483,
        "contract": "contracts/dTESLA.sol:dTESLA",
        "label": "_name",
        "offset": 0,
        "slot": "5",
        "type": "t_string_storage"
      },
      {
        "astId": 2485,
        "contract": "contracts/dTESLA.sol:dTESLA",
        "label": "_symbol",
        "offset": 0,
        "slot": "6",
        "type": "t_string_storage"
      },
      {
        "astId": 4536,
        "contract": "contracts/dTESLA.sol:dTESLA",
        "label": "testing",
        "offset": 0,
        "slot": "7",
        "type": "t_bool"
      },
      {
        "astId": 4539,
        "contract": "contracts/dTESLA.sol:dTESLA",
        "label": "test",
        "offset": 0,
        "slot": "8",
        "type": "t_uint256"
      },
      {
        "astId": 4541,
        "contract": "contracts/dTESLA.sol:dTESLA",
        "label": "testAddress",
        "offset": 0,
        "slot": "9",
        "type": "t_address"
      },
      {
        "astId": 4570,
        "contract": "contracts/dTESLA.sol:dTESLA",
        "label": "PRECISION",
        "offset": 0,
        "slot": "10",
        "type": "t_uint256"
      },
      {
        "astId": 4573,
        "contract": "contracts/dTESLA.sol:dTESLA",
        "label": "ADDITIONAL_FEED_PRECCISION",
        "offset": 0,
        "slot": "11",
        "type": "t_uint256"
      },
      {
        "astId": 4585,
        "contract": "contracts/dTESLA.sol:dTESLA",
        "label": "s_mintSourceCode",
        "offset": 0,
        "slot": "12",
        "type": "t_string_storage"
      },
      {
        "astId": 4587,
        "contract": "contracts/dTESLA.sol:dTESLA",
        "label": "s_redeemSourceCode",
        "offset": 0,
        "slot": "13",
        "type": "t_string_storage"
      },
      {
        "astId": 4591,
        "contract": "contracts/dTESLA.sol:dTESLA",
        "label": "secretVersion",
        "offset": 0,
        "slot": "14",
        "type": "t_uint64"
      },
      {
        "astId": 4593,
        "contract": "contracts/dTESLA.sol:dTESLA",
        "label": "secretSlot",
        "offset": 8,
        "slot": "14",
        "type": "t_uint8"
      },
      {
        "astId": 4612,
        "contract": "contracts/dTESLA.sol:dTESLA",
        "label": "s_portfolioBalance",
        "offset": 0,
        "slot": "15",
        "type": "t_uint256"
      },
      {
        "astId": 4617,
        "contract": "contracts/dTESLA.sol:dTESLA",
        "label": "s_requestIdToRequest",
        "offset": 0,
        "slot": "16",
        "type": "t_mapping(t_bytes32,t_struct(dTeslaRequest)4567_storage)"
      },
      {
        "astId": 4621,
        "contract": "contracts/dTESLA.sol:dTESLA",
        "label": "s_userToWithdrawAmount",
        "offset": 0,
        "slot": "17",
        "type": "t_mapping(t_address,t_uint256)"
      }
    ],
    "types": {
      "t_address": {
        "encoding": "inplace",
        "label": "address",
        "numberOfBytes": "20"
      },
      "t_bool": {
        "encoding": "inplace",
        "label": "bool",
        "numberOfBytes": "1"
      },
      "t_bytes32": {
        "encoding": "inplace",
        "label": "bytes32",
        "numberOfBytes": "32"
      },
      "t_enum(MintOrRedeem)4559": {
        "encoding": "inplace",
        "label": "enum dTESLA.MintOrRedeem",
        "numberOfBytes": "1"
      },
      "t_mapping(t_address,t_mapping(t_address,t_uint256))": {
        "encoding": "mapping",
        "key": "t_address",
        "label": "mapping(address => mapping(address => uint256))",
        "numberOfBytes": "32",
        "value": "t_mapping(t_address,t_uint256)"
      },
      "t_mapping(t_address,t_uint256)": {
        "encoding": "mapping",
        "key": "t_address",
        "label": "mapping(address => uint256)",
        "numberOfBytes": "32",
        "value": "t_uint256"
      },
      "t_mapping(t_bytes32,t_struct(dTeslaRequest)4567_storage)": {
        "encoding": "mapping",
        "key": "t_bytes32",
        "label": "mapping(bytes32 => struct dTESLA.dTeslaRequest)",
        "numberOfBytes": "32",
        "value": "t_struct(dTeslaRequest)4567_storage"
      },
      "t_string_storage": {
        "encoding": "bytes",
        "label": "string",
        "numberOfBytes": "32"
      },
      "t_struct(dTeslaRequest)4567_storage": {
        "encoding": "inplace",
        "label": "struct dTESLA.dTeslaRequest",
        "members": [
          {
            "astId": 4561,
            "contract": "contracts/dTESLA.sol:dTESLA",
            "label": "amountOfToken",
            "offset": 0,
            "slot": "0",
            "type": "t_uint256"
          },
          {
            "astId": 4563,
            "contract": "contracts/dTESLA.sol:dTESLA",
            "label": "requester",
            "offset": 0,
            "slot": "1",
            "type": "t_address"
          },
          {
            "astId": 4566,
            "contract": "contracts/dTESLA.sol:dTESLA",
            "label": "mintOrRedeem",
            "offset": 20,
            "slot": "1",
            "type": "t_enum(MintOrRedeem)4559"
          }
        ],
        "numberOfBytes": "64"
      },
      "t_uint256": {
        "encoding": "inplace",
        "label": "uint256",
        "numberOfBytes": "32"
      },
      "t_uint64": {
        "encoding": "inplace",
        "label": "uint64",
        "numberOfBytes": "8"
      },
      "t_uint8": {
        "encoding": "inplace",
        "label": "uint8",
        "numberOfBytes": "1"
      }
    }
  }
}