{
  "address": "0xF4b9bB7d8B01dBb14F4c5A928C86d2B448eF8566",
  "abi": [
    {
      "inputs": [
        {
          "internalType": "string",
          "name": "mintSourceCode",
          "type": "string"
        },
        {
          "internalType": "uint64",
          "name": "subId",
          "type": "uint64"
        },
        {
          "internalType": "address",
          "name": "SEPOLIA_FUNCTIONS_ROUTER",
          "type": "address"
        },
        {
          "internalType": "address",
          "name": "SEPOLIA_TSLA_PRICE_FEED",
          "type": "address"
        },
        {
          "internalType": "address",
          "name": "SEPOLIA_USDC_PRICE_FEED",
          "type": "address"
        },
        {
          "internalType": "address",
          "name": "SEPOLIA_USDC",
          "type": "address"
        },
        {
          "internalType": "bytes32",
          "name": "DON_ID",
          "type": "bytes32"
        },
        {
          "internalType": "uint64",
          "name": "_secretVersion",
          "type": "uint64"
        },
        {
          "internalType": "uint8",
          "name": "_secretSlot",
          "type": "uint8"
        }
      ],
      "stateMutability": "nonpayable",
      "type": "constructor"
    },
    {
      "inputs": [
        {
          "internalType": "address",
          "name": "spender",
          "type": "address"
        },
        {
          "internalType": "uint256",
          "name": "allowance",
          "type": "uint256"
        },
        {
          "internalType": "uint256",
          "name": "needed",
          "type": "uint256"
        }
      ],
      "name": "ERC20InsufficientAllowance",
      "type": "error"
    },
    {
      "inputs": [
        {
          "internalType": "address",
          "name": "sender",
          "type": "address"
        },
        {
          "internalType": "uint256",
          "name": "balance",
          "type": "uint256"
        },
        {
          "internalType": "uint256",
          "name": "needed",
          "type": "uint256"
        }
      ],
      "name": "ERC20InsufficientBalance",
      "type": "error"
    },
    {
      "inputs": [
        {
          "internalType": "address",
          "name": "approver",
          "type": "address"
        }
      ],
      "name": "ERC20InvalidApprover",
      "type": "error"
    },
    {
      "inputs": [
        {
          "internalType": "address",
          "name": "receiver",
          "type": "address"
        }
      ],
      "name": "ERC20InvalidReceiver",
      "type": "error"
    },
    {
      "inputs": [
        {
          "internalType": "address",
          "name": "sender",
          "type": "address"
        }
      ],
      "name": "ERC20InvalidSender",
      "type": "error"
    },
    {
      "inputs": [
        {
          "internalType": "address",
          "name": "spender",
          "type": "address"
        }
      ],
      "name": "ERC20InvalidSpender",
      "type": "error"
    },
    {
      "inputs": [],
      "name": "EmptyArgs",
      "type": "error"
    },
    {
      "inputs": [],
      "name": "EmptySource",
      "type": "error"
    },
    {
      "inputs": [],
      "name": "NoInlineSecrets",
      "type": "error"
    },
    {
      "inputs": [],
      "name": "OnlyRouterCanFulfill",
      "type": "error"
    },
    {
      "inputs": [],
      "name": "dTESLA__NotEnoughCollateral",
      "type": "error"
    },
    {
      "inputs": [],
      "name": "dTSLA__DoesntMeetMinimumWithdrawAmount",
      "type": "error"
    },
    {
      "inputs": [],
      "name": "sTESLA_notEnoughTslainBroker",
      "type": "error"
    },
    {
      "inputs": [],
      "name": "sTESLA_transferFailed",
      "type": "error"
    },
    {
      "anonymous": false,
      "inputs": [
        {
          "indexed": true,
          "internalType": "address",
          "name": "owner",
          "type": "address"
        },
        {
          "indexed": true,
          "internalType": "address",
          "name": "spender",
          "type": "address"
        },
        {
          "indexed": false,
          "internalType": "uint256",
          "name": "value",
          "type": "uint256"
        }
      ],
      "name": "Approval",
      "type": "event"
    },
    {
      "anonymous": false,
      "inputs": [
        {
          "indexed": true,
          "internalType": "address",
          "name": "from",
          "type": "address"
        },
        {
          "indexed": true,
          "internalType": "address",
          "name": "to",
          "type": "address"
        }
      ],
      "name": "OwnershipTransferRequested",
      "type": "event"
    },
    {
      "anonymous": false,
      "inputs": [
        {
          "indexed": true,
          "internalType": "address",
          "name": "from",
          "type": "address"
        },
        {
          "indexed": true,
          "internalType": "address",
          "name": "to",
          "type": "address"
        }
      ],
      "name": "OwnershipTransferred",
      "type": "event"
    },
    {
      "anonymous": false,
      "inputs": [
        {
          "indexed": true,
          "internalType": "bytes32",
          "name": "id",
          "type": "bytes32"
        }
      ],
      "name": "RequestFulfilled",
      "type": "event"
    },
    {
      "anonymous": false,
      "inputs": [
        {
          "indexed": true,
          "internalType": "bytes32",
          "name": "id",
          "type": "bytes32"
        }
      ],
      "name": "RequestSent",
      "type": "event"
    },
    {
      "anonymous": false,
      "inputs": [
        {
          "indexed": true,
          "internalType": "address",
          "name": "from",
          "type": "address"
        },
        {
          "indexed": true,
          "internalType": "address",
          "name": "to",
          "type": "address"
        },
        {
          "indexed": false,
          "internalType": "uint256",
          "name": "value",
          "type": "uint256"
        }
      ],
      "name": "Transfer",
      "type": "event"
    },
    {
      "inputs": [],
      "name": "acceptOwnership",
      "outputs": [],
      "stateMutability": "nonpayable",
      "type": "function"
    },
    {
      "inputs": [
        {
          "internalType": "address",
          "name": "owner",
          "type": "address"
        },
        {
          "internalType": "address",
          "name": "spender",
          "type": "address"
        }
      ],
      "name": "allowance",
      "outputs": [
        {
          "internalType": "uint256",
          "name": "",
          "type": "uint256"
        }
      ],
      "stateMutability": "view",
      "type": "function"
    },
    {
      "inputs": [
        {
          "internalType": "address",
          "name": "spender",
          "type": "address"
        },
        {
          "internalType": "uint256",
          "name": "value",
          "type": "uint256"
        }
      ],
      "name": "approve",
      "outputs": [
        {
          "internalType": "bool",
          "name": "",
          "type": "bool"
        }
      ],
      "stateMutability": "nonpayable",
      "type": "function"
    },
    {
      "inputs": [
        {
          "internalType": "address",
          "name": "account",
          "type": "address"
        }
      ],
      "name": "balanceOf",
      "outputs": [
        {
          "internalType": "uint256",
          "name": "",
          "type": "uint256"
        }
      ],
      "stateMutability": "view",
      "type": "function"
    },
    {
      "inputs": [
        {
          "internalType": "uint64",
          "name": "_secretVersion",
          "type": "uint64"
        },
        {
          "internalType": "uint8",
          "name": "_secretSlot",
          "type": "uint8"
        }
      ],
      "name": "changeSlotAndVersionDon",
      "outputs": [],
      "stateMutability": "nonpayable",
      "type": "function"
    },
    {
      "inputs": [],
      "name": "decimals",
      "outputs": [
        {
          "internalType": "uint8",
          "name": "",
          "type": "uint8"
        }
      ],
      "stateMutability": "view",
      "type": "function"
    },
    {
      "inputs": [],
      "name": "fundAccount",
      "outputs": [],
      "stateMutability": "nonpayable",
      "type": "function"
    },
    {
      "inputs": [
        {
          "internalType": "bytes32",
          "name": "requestId",
          "type": "bytes32"
        }
      ],
      "name": "getRequest",
      "outputs": [
        {
          "components": [
            {
              "internalType": "uint256",
              "name": "amountOfToken",
              "type": "uint256"
            },
            {
              "internalType": "address",
              "name": "requester",
              "type": "address"
            },
            {
              "internalType": "enum dTESLA.MintOrRedeem",
              "name": "mintOrRedeem",
              "type": "uint8"
            }
          ],
          "internalType": "struct dTESLA.dTeslaRequest",
          "name": "",
          "type": "tuple"
        }
      ],
      "stateMutability": "view",
      "type": "function"
    },
    {
      "inputs": [],
      "name": "getTslaPrice",
      "outputs": [
        {
          "internalType": "uint256",
          "name": "",
          "type": "uint256"
        }
      ],
      "stateMutability": "view",
      "type": "function"
    },
    {
      "inputs": [],
      "name": "getUsdcPrice",
      "outputs": [
        {
          "internalType": "uint256",
          "name": "",
          "type": "uint256"
        }
      ],
      "stateMutability": "view",
      "type": "function"
    },
    {
      "inputs": [
        {
          "internalType": "uint256",
          "name": "usdAmount",
          "type": "uint256"
        }
      ],
      "name": "getUsdcValueOfUsd",
      "outputs": [
        {
          "internalType": "uint256",
          "name": "",
          "type": "uint256"
        }
      ],
      "stateMutability": "view",
      "type": "function"
    },
    {
      "inputs": [
        {
          "internalType": "address",
          "name": "user",
          "type": "address"
        }
      ],
      "name": "getWithdrawalAmount",
      "outputs": [
        {
          "internalType": "uint256",
          "name": "",
          "type": "uint256"
        }
      ],
      "stateMutability": "view",
      "type": "function"
    },
    {
      "inputs": [
        {
          "internalType": "uint256",
          "name": "tlsaAmount",
          "type": "uint256"
        }
      ],
      "name": "getusdValueOfTsla",
      "outputs": [
        {
          "internalType": "uint256",
          "name": "",
          "type": "uint256"
        }
      ],
      "stateMutability": "view",
      "type": "function"
    },
    {
      "inputs": [
        {
          "internalType": "bytes32",
          "name": "requestId",
          "type": "bytes32"
        },
        {
          "internalType": "bytes",
          "name": "response",
          "type": "bytes"
        },
        {
          "internalType": "bytes",
          "name": "err",
          "type": "bytes"
        }
      ],
      "name": "handleOracleFulfillment",
      "outputs": [],
      "stateMutability": "nonpayable",
      "type": "function"
    },
    {
      "inputs": [],
      "name": "httpRequestNonce",
      "outputs": [
        {
          "internalType": "uint256",
          "name": "",
          "type": "uint256"
        }
      ],
      "stateMutability": "view",
      "type": "function"
    },
    {
      "inputs": [],
      "name": "i_DON_ID",
      "outputs": [
        {
          "internalType": "bytes32",
          "name": "",
          "type": "bytes32"
        }
      ],
      "stateMutability": "view",
      "type": "function"
    },
    {
      "inputs": [],
      "name": "i_SEPOLIA_FUNCTIONS_ROUTER",
      "outputs": [
        {
          "internalType": "address",
          "name": "",
          "type": "address"
        }
      ],
      "stateMutability": "view",
      "type": "function"
    },
    {
      "inputs": [],
      "name": "i_SEPOLIA_TSLA_PRICE_FEED",
      "outputs": [
        {
          "internalType": "address",
          "name": "",
          "type": "address"
        }
      ],
      "stateMutability": "view",
      "type": "function"
    },
    {
      "inputs": [],
      "name": "i_SEPOLIA_USDC",
      "outputs": [
        {
          "internalType": "address",
          "name": "",
          "type": "address"
        }
      ],
      "stateMutability": "view",
      "type": "function"
    },
    {
      "inputs": [],
      "name": "i_SEPOLIA_USDC_PRICE_FEED",
      "outputs": [
        {
          "internalType": "address",
          "name": "",
          "type": "address"
        }
      ],
      "stateMutability": "view",
      "type": "function"
    },
    {
      "inputs": [],
      "name": "name",
      "outputs": [
        {
          "internalType": "string",
          "name": "",
          "type": "string"
        }
      ],
      "stateMutability": "view",
      "type": "function"
    },
    {
      "inputs": [],
      "name": "owner",
      "outputs": [
        {
          "internalType": "address",
          "name": "",
          "type": "address"
        }
      ],
      "stateMutability": "view",
      "type": "function"
    },
    {
      "inputs": [],
      "name": "s_mintSourceCode",
      "outputs": [
        {
          "internalType": "string",
          "name": "",
          "type": "string"
        }
      ],
      "stateMutability": "view",
      "type": "function"
    },
    {
      "inputs": [],
      "name": "s_redeemSourceCode",
      "outputs": [
        {
          "internalType": "string",
          "name": "",
          "type": "string"
        }
      ],
      "stateMutability": "view",
      "type": "function"
    },
    {
      "inputs": [
        {
          "internalType": "bytes32",
          "name": "requestId",
          "type": "bytes32"
        }
      ],
      "name": "s_requestIdToRequest",
      "outputs": [
        {
          "internalType": "uint256",
          "name": "amountOfToken",
          "type": "uint256"
        },
        {
          "internalType": "address",
          "name": "requester",
          "type": "address"
        },
        {
          "internalType": "enum dTESLA.MintOrRedeem",
          "name": "mintOrRedeem",
          "type": "uint8"
        }
      ],
      "stateMutability": "view",
      "type": "function"
    },
    {
      "inputs": [
        {
          "internalType": "address",
          "name": "user",
          "type": "address"
        }
      ],
      "name": "s_userToWithdrawAmount",
      "outputs": [
        {
          "internalType": "uint256",
          "name": "pendingWithdrawAmount",
          "type": "uint256"
        }
      ],
      "stateMutability": "view",
      "type": "function"
    },
    {
      "inputs": [],
      "name": "secretSlot",
      "outputs": [
        {
          "internalType": "uint8",
          "name": "",
          "type": "uint8"
        }
      ],
      "stateMutability": "view",
      "type": "function"
    },
    {
      "inputs": [],
      "name": "secretVersion",
      "outputs": [
        {
          "internalType": "uint64",
          "name": "",
          "type": "uint64"
        }
      ],
      "stateMutability": "view",
      "type": "function"
    },
    {
      "inputs": [
        {
          "internalType": "uint256",
          "name": "amount",
          "type": "uint256"
        }
      ],
      "name": "sendMintRequest",
      "outputs": [
        {
          "internalType": "bytes32",
          "name": "",
          "type": "bytes32"
        }
      ],
      "stateMutability": "nonpayable",
      "type": "function"
    },
    {
      "inputs": [
        {
          "internalType": "uint256",
          "name": "amountdTesla",
          "type": "uint256"
        }
      ],
      "name": "sendRedeemRequest",
      "outputs": [],
      "stateMutability": "nonpayable",
      "type": "function"
    },
    {
      "inputs": [
        {
          "internalType": "string",
          "name": "redeemSourceCode",
          "type": "string"
        }
      ],
      "name": "setRedeemCode",
      "outputs": [],
      "stateMutability": "nonpayable",
      "type": "function"
    },
    {
      "inputs": [],
      "name": "symbol",
      "outputs": [
        {
          "internalType": "string",
          "name": "",
          "type": "string"
        }
      ],
      "stateMutability": "view",
      "type": "function"
    },
    {
      "inputs": [],
      "name": "test",
      "outputs": [
        {
          "internalType": "uint256",
          "name": "",
          "type": "uint256"
        }
      ],
      "stateMutability": "view",
      "type": "function"
    },
    {
      "inputs": [],
      "name": "testAddress",
      "outputs": [
        {
          "internalType": "address",
          "name": "",
          "type": "address"
        }
      ],
      "stateMutability": "view",
      "type": "function"
    },
    {
      "inputs": [
        {
          "internalType": "bool",
          "name": "testBoolValue",
          "type": "bool"
        }
      ],
      "name": "testBool",
      "outputs": [],
      "stateMutability": "nonpayable",
      "type": "function"
    },
    {
      "inputs": [],
      "name": "testing",
      "outputs": [
        {
          "internalType": "bool",
          "name": "",
          "type": "bool"
        }
      ],
      "stateMutability": "view",
      "type": "function"
    },
    {
      "inputs": [],
      "name": "totalSupply",
      "outputs": [
        {
          "internalType": "uint256",
          "name": "",
          "type": "uint256"
        }
      ],
      "stateMutability": "view",
      "type": "function"
    },
    {
      "inputs": [
        {
          "internalType": "address",
          "name": "to",
          "type": "address"
        },
        {
          "internalType": "uint256",
          "name": "value",
          "type": "uint256"
        }
      ],
      "name": "transfer",
      "outputs": [
        {
          "internalType": "bool",
          "name": "",
          "type": "bool"
        }
      ],
      "stateMutability": "nonpayable",
      "type": "function"
    },
    {
      "inputs": [
        {
          "internalType": "address",
          "name": "from",
          "type": "address"
        },
        {
          "internalType": "address",
          "name": "to",
          "type": "address"
        },
        {
          "internalType": "uint256",
          "name": "value",
          "type": "uint256"
        }
      ],
      "name": "transferFrom",
      "outputs": [
        {
          "internalType": "bool",
          "name": "",
          "type": "bool"
        }
      ],
      "stateMutability": "nonpayable",
      "type": "function"
    },
    {
      "inputs": [
        {
          "internalType": "address",
          "name": "to",
          "type": "address"
        }
      ],
      "name": "transferOwnership",
      "outputs": [],
      "stateMutability": "nonpayable",
      "type": "function"
    },
    {
      "inputs": [
        {
          "internalType": "address",
          "name": "user",
          "type": "address"
        }
      ],
      "name": "uerBalance",
      "outputs": [
        {
          "internalType": "uint256",
          "name": "accountbalance",
          "type": "uint256"
        }
      ],
      "stateMutability": "view",
      "type": "function"
    },
    {
      "inputs": [],
      "name": "withdraw",
      "outputs": [],
      "stateMutability": "nonpayable",
      "type": "function"
    }
  ],
  "transactionHash": "0x22c7080fb7c188a9b80629be7c5f12e36cf83bead643191190beec2d5e52fa32",
  "args": [
    "const SLEEP_TIME = 2000 // 2 seconds\n\nconst headers = {\n    accept: \"application/json\",\n    \"content-type\": \"application/json\",\n    \"APCA-API-KEY-ID\": secrets.alpacaKey,\n    \"APCA-API-SECRET-KEY\": secrets.alpacaSecret,\n}\n\nasync function main() {\n    const stockTicker = args[0]\n    const amountQty = args[1]\n    const nonce = args[2]\n\n    const isMarketOpen = await checkMarket()\n\n    if (isMarketOpen) {\n        const idOfOpenOrder = await checkOpenedOrder(nonce)\n        if (idOfOpenOrder == \"01\") {\n            const side = \"buy\"\n            const order_id = await placeOrder(\n                stockTicker,\n                amountQty,\n                side,\n                nonce,\n            )\n\n            await sleep(SLEEP_TIME)\n            const responseDetails = await orderDetails(order_id)\n\n            return Functions.encodeUint256(\n                parseInt(Number(responseDetails.filled_qty) * 1e18),\n            )\n        } else {\n            await sleep(SLEEP_TIME)\n            const responseDetails = await orderDetails(idOfOpenOrder)\n            return Functions.encodeUint256(\n                parseInt(Number(responseDetails.filled_qty) * 1e18),\n            )\n        }\n    } else {\n        return Functions.encodeUint256(0)\n    }\n}\n\n// returns string: client_order_id, string: orderStatus, int: responseStatus\nasync function placeOrder(symbol, qty, side, nonceId) {\n    // TODO, something is wrong with this request, need to fix\n    const alpacaBuyRequest = Functions.makeHttpRequest({\n        method: \"POST\",\n        url: \"https://paper-api.alpaca.markets/v2/orders\",\n        headers: headers,\n        data: {\n            side: side,\n            type: \"market\",\n            time_in_force: \"day\",\n            symbol: symbol,\n            notional: qty,\n            client_order_id: nonceId,\n        },\n    })\n\n    const responseRaw = await alpacaBuyRequest\n    const response = responseRaw.data\n\n    return response.id\n}\n\nasync function checkOpenedOrder(nonceId) {\n    const openOrderDetails = Functions.makeHttpRequest({\n        method: \"GET\",\n        url: `https://paper-api.alpaca.markets/v2/orders?status=all`,\n        headers: headers,\n    })\n\n    const openOrdersArrayRaw = await openOrderDetails\n    const openOrdersArray = openOrdersArrayRaw.data\n\n    for (let i = 0; i < openOrdersArray.length; i++) {\n        if (openOrdersArray[i].client_order_id === nonceId) {\n            return openOrdersArray[i].id\n        }\n    }\n    return \"01\"\n}\n\nasync function orderDetails(order_id) {\n    const alpacaOrderDetailsRequest = Functions.makeHttpRequest({\n        method: \"GET\",\n        url: `https://paper-api.alpaca.markets/v2/orders/${order_id}`,\n        headers: headers,\n    })\n\n    const responseDetailsRaw = await alpacaOrderDetailsRequest\n\n    const responseDetails = responseDetailsRaw.data\n\n    return responseDetails\n}\n\n// returns int: responseStatus\nasync function cancelOrder(order_id) {\n    const alpacaCancelRequest = Functions.makeHttpRequest({\n        method: \"DELETE\",\n        url: `https://paper-api.alpaca.markets/v2/orders/${order_id}`,\n        headers: headers,\n    })\n\n    const [response] = await Promise.all([alpacaCancelRequest])\n\n    const responseStatus = response.status\n    return responseStatus\n}\n\n// @returns bool\nasync function waitForOrderToFill(order_id) {\n    let numberOfSleeps = 0\n    const capNumberOfSleeps = 10\n    let filled = false\n\n    while (numberOfSleeps < capNumberOfSleeps) {\n        const alpacaOrderStatusRequest = Functions.makeHttpRequest({\n            method: \"GET\",\n            url: `https://paper-api.alpaca.markets/v2/orders/${order_id}`,\n            headers: headers,\n        })\n\n        const [response] = await Promise.all([alpacaOrderStatusRequest])\n\n        const responseStatus = response.status\n        const { status: orderStatus } = response.data\n        if (responseStatus !== 200) {\n            return false\n        }\n        if (orderStatus === \"filled\") {\n            filled = true\n            break\n        }\n        numberOfSleeps++\n        await sleep(SLEEP_TIME)\n    }\n    return filled\n}\n\nfunction _checkKeys() {\n    if (secrets.alpacaKey == \"\" || secrets.alpacaSecret === \"\") {\n        throw Error(\"need alpaca keys\")\n    }\n}\n\nasync function checkMarket() {\n    const marketStatus = Functions.makeHttpRequest({\n        method: \"GET\",\n        url: \"https://paper-api.alpaca.markets/v2/clock\",\n        headers: headers,\n    })\n\n    const marketStatusResponseRaw = await marketStatus\n    const marketStatusResponse = marketStatusResponseRaw.data\n\n    return marketStatusResponse.is_open\n}\n\nfunction sleep(ms) {\n    return new Promise((resolve) => setTimeout(resolve, ms))\n}\n\nconst result = await main()\nreturn result\n",
    "3179",
    "0xb83E47C2bC239B3bf370bc41e1459A34b41238D0",
    "0xc59E3633BAAC79493d908e63626716e204A45EdF",
    "0xA2F78ab2355fe2f984D808B5CeE7FD0A93D5270E",
    "0x1c7D4B196Cb0C7B01d743Fbc6116a902379C7238",
    {
      "0": 102,
      "1": 117,
      "2": 110,
      "3": 45,
      "4": 101,
      "5": 116,
      "6": 104,
      "7": 101,
      "8": 114,
      "9": 101,
      "10": 117,
      "11": 109,
      "12": 45,
      "13": 115,
      "14": 101,
      "15": 112,
      "16": 111,
      "17": 108,
      "18": 105,
      "19": 97,
      "20": 45,
      "21": 49,
      "22": 0,
      "23": 0,
      "24": 0,
      "25": 0,
      "26": 0,
      "27": 0,
      "28": 0,
      "29": 0,
      "30": 0,
      "31": 0
    },
    1721068931,
    0
  ],
  "numDeployments": 33,
  "solcInputHash": "6faa8269ceaff993318857982f1f518c",
  "bytecode": "0x6101606040526001600760006101000a81548160ff0219169083151502179055506003600855670de0b6b3a7640000600a556402540be400600b5534801561004657600080fd5b506040516153a63803806153a68339818101604052810190610068919061072c565b6040518060400160405280600581526020017f6454534c410000000000000000000000000000000000000000000000000000008152506040518060400160405280600581526020017f6454534c4100000000000000000000000000000000000000000000000000000081525088338060008073ffffffffffffffffffffffffffffffffffffffff168273ffffffffffffffffffffffffffffffffffffffff1603610147576040517f08c379a000000000000000000000000000000000000000000000000000000000815260040161013e9061086f565b60405180910390fd5b816000806101000a81548173ffffffffffffffffffffffffffffffffffffffff021916908373ffffffffffffffffffffffffffffffffffffffff160217905550600073ffffffffffffffffffffffffffffffffffffffff168173ffffffffffffffffffffffffffffffffffffffff16146101cb576101ca8161037e60201b60201c565b5b5050508073ffffffffffffffffffffffffffffffffffffffff1660808173ffffffffffffffffffffffffffffffffffffffff16815250505081600590816102129190610ab0565b5080600690816102229190610ab0565b50505088600c90816102349190610ab0565b508767ffffffffffffffff166101408167ffffffffffffffff16815250508673ffffffffffffffffffffffffffffffffffffffff1660a08173ffffffffffffffffffffffffffffffffffffffff16815250508573ffffffffffffffffffffffffffffffffffffffff1660c08173ffffffffffffffffffffffffffffffffffffffff16815250508473ffffffffffffffffffffffffffffffffffffffff1660e08173ffffffffffffffffffffffffffffffffffffffff16815250508373ffffffffffffffffffffffffffffffffffffffff166101008173ffffffffffffffffffffffffffffffffffffffff168152505082610120818152505081600e60006101000a81548167ffffffffffffffff021916908367ffffffffffffffff16021790555080600e60086101000a81548160ff021916908360ff160217905550505050505050505050610bee565b3373ffffffffffffffffffffffffffffffffffffffff168173ffffffffffffffffffffffffffffffffffffffff16036103ec576040517f08c379a00000000000000000000000000000000000000000000000000000000081526004016103e390610bce565b60405180910390fd5b80600160006101000a81548173ffffffffffffffffffffffffffffffffffffffff021916908373ffffffffffffffffffffffffffffffffffffffff1602179055508073ffffffffffffffffffffffffffffffffffffffff1660008054906101000a900473ffffffffffffffffffffffffffffffffffffffff1673ffffffffffffffffffffffffffffffffffffffff167fed8889f560326eb138920d842192f0eb3dd22b4f139c87a2c57538e05bae127860405160405180910390a350565b6000604051905090565b600080fd5b600080fd5b600080fd5b600080fd5b6000601f19601f8301169050919050565b7f4e487b7100000000000000000000000000000000000000000000000000000000600052604160045260246000fd5b610511826104c8565b810181811067ffffffffffffffff821117156105305761052f6104d9565b5b80604052505050565b60006105436104aa565b905061054f8282610508565b919050565b600067ffffffffffffffff82111561056f5761056e6104d9565b5b610578826104c8565b9050602081019050919050565b60005b838110156105a3578082015181840152602081019050610588565b60008484015250505050565b60006105c26105bd84610554565b610539565b9050828152602081018484840111156105de576105dd6104c3565b5b6105e9848285610585565b509392505050565b600082601f830112610606576106056104be565b5b81516106168482602086016105af565b91505092915050565b600067ffffffffffffffff82169050919050565b61063c8161061f565b811461064757600080fd5b50565b60008151905061065981610633565b92915050565b600073ffffffffffffffffffffffffffffffffffffffff82169050919050565b600061068a8261065f565b9050919050565b61069a8161067f565b81146106a557600080fd5b50565b6000815190506106b781610691565b92915050565b6000819050919050565b6106d0816106bd565b81146106db57600080fd5b50565b6000815190506106ed816106c7565b92915050565b600060ff82169050919050565b610709816106f3565b811461071457600080fd5b50565b60008151905061072681610700565b92915050565b60008060008060008060008060006101208a8c03121561074f5761074e6104b4565b5b60008a015167ffffffffffffffff81111561076d5761076c6104b9565b5b6107798c828d016105f1565b995050602061078a8c828d0161064a565b985050604061079b8c828d016106a8565b97505060606107ac8c828d016106a8565b96505060806107bd8c828d016106a8565b95505060a06107ce8c828d016106a8565b94505060c06107df8c828d016106de565b93505060e06107f08c828d0161064a565b9250506101006108028c828d01610717565b9150509295985092959850929598565b600082825260208201905092915050565b7f43616e6e6f7420736574206f776e657220746f207a65726f0000000000000000600082015250565b6000610859601883610812565b915061086482610823565b602082019050919050565b600060208201905081810360008301526108888161084c565b9050919050565b600081519050919050565b7f4e487b7100000000000000000000000000000000000000000000000000000000600052602260045260246000fd5b600060028204905060018216806108e157607f821691505b6020821081036108f4576108f361089a565b5b50919050565b60008190508160005260206000209050919050565b60006020601f8301049050919050565b600082821b905092915050565b60006008830261095c7fffffffffffffffffffffffffffffffffffffffffffffffffffffffffffffffff8261091f565b610966868361091f565b95508019841693508086168417925050509392505050565b6000819050919050565b6000819050919050565b60006109ad6109a86109a38461097e565b610988565b61097e565b9050919050565b6000819050919050565b6109c783610992565b6109db6109d3826109b4565b84845461092c565b825550505050565b600090565b6109f06109e3565b6109fb8184846109be565b505050565b5b81811015610a1f57610a146000826109e8565b600181019050610a01565b5050565b601f821115610a6457610a35816108fa565b610a3e8461090f565b81016020851015610a4d578190505b610a61610a598561090f565b830182610a00565b50505b505050565b600082821c905092915050565b6000610a8760001984600802610a69565b1980831691505092915050565b6000610aa08383610a76565b9150826002028217905092915050565b610ab98261088f565b67ffffffffffffffff811115610ad257610ad16104d9565b5b610adc82546108c9565b610ae7828285610a23565b600060209050601f831160018114610b1a5760008415610b08578287015190505b610b128582610a94565b865550610b7a565b601f198416610b28866108fa565b60005b82811015610b5057848901518255600182019150602085019450602081019050610b2b565b86831015610b6d5784890151610b69601f891682610a76565b8355505b6001600288020188555050505b505050505050565b7f43616e6e6f74207472616e7366657220746f2073656c66000000000000000000600082015250565b6000610bb8601783610812565b9150610bc382610b82565b602082019050919050565b60006020820190508181036000830152610be781610bab565b9050919050565b60805160a05160c05160e05161010051610120516101405161472d610c7960003960008181610fb80152611592015260008181610af701528181610fdd01526115b7015260008181610a750152610ba6015260008181610ce00152610dd80152600081816109a2015261187f015260006119990152600081816108aa0152612243015261472d6000f3fe608060405234801561001057600080fd5b506004361061025e5760003560e01c80638d03b10211610146578063c97c77de116100c3578063ebcaaa4c11610087578063ebcaaa4c1461071f578063ec1830521461073b578063f2fde38b14610759578063f8a8fd6d14610775578063fb1e61ca14610793578063feb1ff1b146107c35761025e565b8063c97c77de1461067b578063cdc5ca7f146106ab578063d9a8748c146106c9578063dd62ed3e146106d3578063e8dde232146107035761025e565b8063ab1341611161010a578063ab134161146105bf578063ae5fc35a146105ef578063b65681a21461060d578063b96e07771461062b578063c7a2533b146106495761025e565b80638d03b102146105055780638da5cb5b1461052357806395d89b411461054157806396c1226e1461055f578063a9059cbb1461058f5761025e565b8063262330b4116101df57806356582bf9116101a357806356582bf91461044357806360c426881461047357806370a0823114610491578063747fbb1e146104c157806378213aca146104df57806379ba5097146104fb5761025e565b8063262330b4146103c1578063313ce567146103df57806337d1f3af146103fd5780633ccfd60b1461041b57806352b1033b146104255761025e565b806311edc06e1161022657806311edc06e1461031957806318160ddd146103375780631a20d9eb1461035557806320d464811461037357806323b872dd146103915761025e565b806306fdde0314610263578063095ea7b3146102815780630ca76175146102b15780630f50cec3146102cd57806311582673146102e9575b600080fd5b61026b6107f3565b60405161027891906133bd565b60405180910390f35b61029b60048036038101906102969190613487565b610885565b6040516102a891906134e2565b60405180910390f35b6102cb60048036038101906102c69190613668565b6108a8565b005b6102e760048036038101906102e29190613794565b61096a565b005b61030360048036038101906102fe91906137dd565b610985565b6040516103109190613819565b60405180910390f35b61032161099d565b60405161032e9190613819565b60405180910390f35b61033f610a4f565b60405161034c9190613819565b60405180910390f35b61035d610a59565b60405161036a9190613857565b60405180910390f35b61037b610a73565b6040516103889190613881565b60405180910390f35b6103ab60048036038101906103a6919061389c565b610a97565b6040516103b891906134e2565b60405180910390f35b6103c9610ac6565b6040516103d69190613881565b60405180910390f35b6103e7610aec565b6040516103f4919061390b565b60405180910390f35b610405610af5565b6040516104129190613935565b60405180910390f35b610423610b19565b005b61042d610c7f565b60405161043a919061390b565b60405180910390f35b61045d600480360381019061045891906137dd565b610c92565b60405161046a9190613819565b60405180910390f35b61047b610cdb565b6040516104889190613819565b60405180910390f35b6104ab60048036038101906104a691906137dd565b610d8d565b6040516104b89190613819565b60405180910390f35b6104c9610dd6565b6040516104d69190613881565b60405180910390f35b6104f960048036038101906104f49190613950565b610dfa565b005b6105036110ee565b005b61050d611283565b60405161051a91906134e2565b60405180910390f35b61052b611296565b6040516105389190613881565b60405180910390f35b6105496112bf565b60405161055691906133bd565b60405180910390f35b610579600480360381019061057491906137dd565b611351565b6040516105869190613819565b60405180910390f35b6105a960048036038101906105a49190613487565b611369565b6040516105b691906134e2565b60405180910390f35b6105d960048036038101906105d49190613950565b61138c565b6040516105e69190613935565b60405180910390f35b6105f76116db565b60405161060491906133bd565b60405180910390f35b610615611769565b60405161062291906133bd565b60405180910390f35b6106336117f7565b6040516106409190613819565b60405180910390f35b610663600480360381019061065e919061397d565b6117fd565b60405161067293929190613a21565b60405180910390f35b61069560048036038101906106909190613950565b611854565b6040516106a29190613819565b60405180910390f35b6106b361187d565b6040516106c09190613881565b60405180910390f35b6106d16118a1565b005b6106ed60048036038101906106e89190613a58565b6118a3565b6040516106fa9190613819565b60405180910390f35b61071d60048036038101906107189190613ac4565b61192a565b005b61073960048036038101906107349190613b49565b611947565b005b610743611997565b6040516107509190613881565b60405180910390f35b610773600480360381019061076e91906137dd565b6119bb565b005b61077d6119cf565b60405161078a9190613819565b60405180910390f35b6107ad60048036038101906107a8919061397d565b6119d5565b6040516107ba9190613bf8565b60405180910390f35b6107dd60048036038101906107d89190613950565b611a9d565b6040516107ea9190613819565b60405180910390f35b60606005805461080290613c42565b80601f016020809104026020016040519081016040528092919081815260200182805461082e90613c42565b801561087b5780601f106108505761010080835404028352916020019161087b565b820191906000526020600020905b81548152906001019060200180831161085e57829003601f168201915b5050505050905090565b600080610890611ac6565b905061089d818585611ace565b600191505092915050565b7f000000000000000000000000000000000000000000000000000000000000000073ffffffffffffffffffffffffffffffffffffffff163373ffffffffffffffffffffffffffffffffffffffff161461092d576040517fc6829f8300000000000000000000000000000000000000000000000000000000815260040160405180910390fd5b610938838383611ae0565b827f85e1543bf2f84fe80c6badbce3648c8539ad1df4d2b3d822938ca0538be727e660405160405180910390a2505050565b610972611aef565b80600d90816109819190613e1f565b5050565b60126020528060005260406000206000915090505481565b6000807f0000000000000000000000000000000000000000000000000000000000000000905060008173ffffffffffffffffffffffffffffffffffffffff1663feaf968c6040518163ffffffff1660e01b815260040160a060405180830381865afa158015610a10573d6000803e3d6000fd5b505050506040513d601f19601f82011682018060405250810190610a349190613f7e565b505050915050600b5481610a489190614028565b9250505090565b6000600454905090565b600e60009054906101000a900467ffffffffffffffff1681565b7f000000000000000000000000000000000000000000000000000000000000000081565b600080610aa2611ac6565b9050610aaf858285611b7f565b610aba858585611c13565b60019150509392505050565b600960009054906101000a900473ffffffffffffffffffffffffffffffffffffffff1681565b60006012905090565b7f000000000000000000000000000000000000000000000000000000000000000081565b6000601260003373ffffffffffffffffffffffffffffffffffffffff1673ffffffffffffffffffffffffffffffffffffffff1681526020019081526020016000205490506000601260003373ffffffffffffffffffffffffffffffffffffffff1673ffffffffffffffffffffffffffffffffffffffff1681526020019081526020016000208190555060007f000000000000000000000000000000000000000000000000000000000000000073ffffffffffffffffffffffffffffffffffffffff1663a9059cbb33846040518363ffffffff1660e01b8152600401610bff92919061406a565b6020604051808303816000875af1158015610c1e573d6000803e3d6000fd5b505050506040513d601f19601f82011682018060405250810190610c4291906140a8565b905080610c7b576040517fb2d7217e00000000000000000000000000000000000000000000000000000000815260040160405180910390fd5b5050565b600e60089054906101000a900460ff1681565b6000601260008373ffffffffffffffffffffffffffffffffffffffff1673ffffffffffffffffffffffffffffffffffffffff168152602001908152602001600020549050919050565b6000807f0000000000000000000000000000000000000000000000000000000000000000905060008173ffffffffffffffffffffffffffffffffffffffff1663feaf968c6040518163ffffffff1660e01b815260040160a060405180830381865afa158015610d4e573d6000803e3d6000fd5b505050506040513d601f19601f82011682018060405250810190610d729190613f7e565b505050915050600b5481610d869190614028565b9250505090565b6000600260008373ffffffffffffffffffffffffffffffffffffffff1673ffffffffffffffffffffffffffffffffffffffff168152602001908152602001600020549050919050565b7f000000000000000000000000000000000000000000000000000000000000000081565b6000610e0d610e0883611a9d565b611854565b90506305f5e100811115610e4d576040517f0a5d3ef300000000000000000000000000000000000000000000000000000000815260040160405180910390fd5b610e55613238565b610ef2600d8054610e6590613c42565b80601f0160208091040260200160405190810160405280929190818152602001828054610e9190613c42565b8015610ede5780601f10610eb357610100808354040283529160200191610ede565b820191906000526020600020905b815481529060010190602001808311610ec157829003601f168201915b505050505082611d0790919063ffffffff16565b6000600267ffffffffffffffff811115610f0f57610f0e61353d565b5b604051908082528060200260200182016040528015610f4257816020015b6060815260200190600190039081610f2d5790505b509050610f4e84611d18565b81600081518110610f6257610f616140d5565b5b6020026020010181905250610f7683611d18565b81600181518110610f8a57610f896140d5565b5b6020026020010181905250610fa88183611de690919063ffffffff16565b6000611001610fb684611e2e565b7f0000000000000000000000000000000000000000000000000000000000000000620493e07f000000000000000000000000000000000000000000000000000000000000000061223e565b905060405180606001604052808681526020013373ffffffffffffffffffffffffffffffffffffffff168152602001600180811115611043576110426139aa565b5b815250601060008381526020019081526020016000206000820151816000015560208201518160010160006101000a81548173ffffffffffffffffffffffffffffffffffffffff021916908373ffffffffffffffffffffffffffffffffffffffff16021790555060408201518160010160146101000a81548160ff021916908360018111156110d5576110d46139aa565b5b02179055509050506110e73386612321565b5050505050565b600160009054906101000a900473ffffffffffffffffffffffffffffffffffffffff1673ffffffffffffffffffffffffffffffffffffffff163373ffffffffffffffffffffffffffffffffffffffff161461117e576040517f08c379a000000000000000000000000000000000000000000000000000000000815260040161117590614150565b60405180910390fd5b60008060009054906101000a900473ffffffffffffffffffffffffffffffffffffffff169050336000806101000a81548173ffffffffffffffffffffffffffffffffffffffff021916908373ffffffffffffffffffffffffffffffffffffffff1602179055506000600160006101000a81548173ffffffffffffffffffffffffffffffffffffffff021916908373ffffffffffffffffffffffffffffffffffffffff1602179055503373ffffffffffffffffffffffffffffffffffffffff168173ffffffffffffffffffffffffffffffffffffffff167f8be0079c531659141344cd1fd0a4f28419497f9722a3daafe3b4186f6b6457e060405160405180910390a350565b600760009054906101000a900460ff1681565b60008060009054906101000a900473ffffffffffffffffffffffffffffffffffffffff16905090565b6060600680546112ce90613c42565b80601f01602080910402602001604051908101604052809291908181526020018280546112fa90613c42565b80156113475780601f1061131c57610100808354040283529160200191611347565b820191906000526020600020905b81548152906001019060200180831161132a57829003601f168201915b5050505050905090565b60116020528060005260406000206000915090505481565b600080611374611ac6565b9050611381818585611c13565b600191505092915050565b6000611396611aef565b61139e613238565b61143b600c80546113ae90613c42565b80601f01602080910402602001604051908101604052809291908181526020018280546113da90613c42565b80156114275780601f106113fc57610100808354040283529160200191611427565b820191906000526020600020905b81548152906001019060200180831161140a57829003601f168201915b505050505082611d0790919063ffffffff16565b611475600e60089054906101000a900460ff16600e60009054906101000a900467ffffffffffffffff16836123a39092919063ffffffff16565b6000600367ffffffffffffffff8111156114925761149161353d565b5b6040519080825280602002602001820160405280156114c557816020015b60608152602001906001900390816114b05790505b5090506040518060400160405280600481526020017f4141504c0000000000000000000000000000000000000000000000000000000081525081600081518110611512576115116140d5565b5b602002602001018190525061152684611d18565b8160018151811061153a576115396140d5565b5b6020026020010181905250611550601354611d18565b81600281518110611564576115636140d5565b5b60200260200101819052506115828183611de690919063ffffffff16565b60006115db61159084611e2e565b7f0000000000000000000000000000000000000000000000000000000000000000620493e07f000000000000000000000000000000000000000000000000000000000000000061223e565b905060405180606001604052808681526020013373ffffffffffffffffffffffffffffffffffffffff1681526020016000600181111561161e5761161d6139aa565b5b815250601060008381526020019081526020016000206000820151816000015560208201518160010160006101000a81548173ffffffffffffffffffffffffffffffffffffffff021916908373ffffffffffffffffffffffffffffffffffffffff16021790555060408201518160010160146101000a81548160ff021916908360018111156116b0576116af6139aa565b5b0217905550905050601360008154809291906116cb90614170565b9190505550809350505050919050565b600d80546116e890613c42565b80601f016020809104026020016040519081016040528092919081815260200182805461171490613c42565b80156117615780601f1061173657610100808354040283529160200191611761565b820191906000526020600020905b81548152906001019060200180831161174457829003601f168201915b505050505081565b600c805461177690613c42565b80601f01602080910402602001604051908101604052809291908181526020018280546117a290613c42565b80156117ef5780601f106117c4576101008083540402835291602001916117ef565b820191906000526020600020905b8154815290600101906020018083116117d257829003601f168201915b505050505081565b60135481565b60106020528060005260406000206000915090508060000154908060010160009054906101000a900473ffffffffffffffffffffffffffffffffffffffff16908060010160149054906101000a900460ff16905083565b6000600a54611861610cdb565b8361186c9190614028565b61187691906141e7565b9050919050565b7f000000000000000000000000000000000000000000000000000000000000000081565b565b6000600360008473ffffffffffffffffffffffffffffffffffffffff1673ffffffffffffffffffffffffffffffffffffffff16815260200190815260200160002060008373ffffffffffffffffffffffffffffffffffffffff1673ffffffffffffffffffffffffffffffffffffffff16815260200190815260200160002054905092915050565b80600760006101000a81548160ff02191690831515021790555050565b61194f611aef565b81600e60006101000a81548167ffffffffffffffff021916908367ffffffffffffffff16021790555080600e60086101000a81548160ff021916908360ff1602179055505050565b7f000000000000000000000000000000000000000000000000000000000000000081565b6119c3611aef565b6119cc816124b3565b50565b60085481565b6119dd6132aa565b60106000838152602001908152602001600020604051806060016040529081600082015481526020016001820160009054906101000a900473ffffffffffffffffffffffffffffffffffffffff1673ffffffffffffffffffffffffffffffffffffffff1673ffffffffffffffffffffffffffffffffffffffff1681526020016001820160149054906101000a900460ff166001811115611a8057611a7f6139aa565b5b6001811115611a9257611a916139aa565b5b815250509050919050565b6000600a54611aaa61099d565b83611ab59190614028565b611abf91906141e7565b9050919050565b600033905090565b611adb83838360016125df565b505050565b611aea83836127b6565b505050565b60008054906101000a900473ffffffffffffffffffffffffffffffffffffffff1673ffffffffffffffffffffffffffffffffffffffff163373ffffffffffffffffffffffffffffffffffffffff1614611b7d576040517f08c379a0000000000000000000000000000000000000000000000000000000008152600401611b7490614264565b60405180910390fd5b565b6000611b8b84846118a3565b90507fffffffffffffffffffffffffffffffffffffffffffffffffffffffffffffffff8114611c0d5781811015611bfd578281836040517ffb8f41b2000000000000000000000000000000000000000000000000000000008152600401611bf493929190614284565b60405180910390fd5b611c0c848484840360006125df565b5b50505050565b600073ffffffffffffffffffffffffffffffffffffffff168373ffffffffffffffffffffffffffffffffffffffff1603611c855760006040517f96c6fd1e000000000000000000000000000000000000000000000000000000008152600401611c7c9190613881565b60405180910390fd5b600073ffffffffffffffffffffffffffffffffffffffff168273ffffffffffffffffffffffffffffffffffffffff1603611cf75760006040517fec442f05000000000000000000000000000000000000000000000000000000008152600401611cee9190613881565b60405180910390fd5b611d02838383612806565b505050565b611d148260008084612a2e565b5050565b606060006001611d2784612ad8565b01905060008167ffffffffffffffff811115611d4657611d4561353d565b5b6040519080825280601f01601f191660200182016040528015611d785781602001600182028036833780820191505090505b509050600082602001820190505b600115611ddb578080600190039150507f3031323334353637383961626364656600000000000000000000000000000000600a86061a8153600a8581611dcf57611dce6141b8565b5b04945060008503611d86575b819350505050919050565b6000815103611e21576040517ffe936cb700000000000000000000000000000000000000000000000000000000815260040160405180910390fd5b808260a001819052505050565b60606000611e3d610100612c2b565b9050611e876040518060400160405280600c81526020017f636f64654c6f636174696f6e000000000000000000000000000000000000000081525082612c5290919063ffffffff16565b611eb083600001516002811115611ea157611ea06139aa565b5b82612c7b90919063ffffffff16565b611ef86040518060400160405280600881526020017f6c616e677561676500000000000000000000000000000000000000000000000081525082612c5290919063ffffffff16565b611f2183604001516000811115611f1257611f116139aa565b5b82612c7b90919063ffffffff16565b611f696040518060400160405280600681526020017f736f75726365000000000000000000000000000000000000000000000000000081525082612c5290919063ffffffff16565b611f80836060015182612c5290919063ffffffff16565b60008360a0015151111561203657611fd66040518060400160405280600481526020017f617267730000000000000000000000000000000000000000000000000000000081525082612c5290919063ffffffff16565b611fdf81612ccb565b60005b8360a001515181101561202b576120208460a001518281518110612009576120086140d5565b5b602002602001015183612c5290919063ffffffff16565b806001019050611fe2565b5061203581612cf3565b5b600083608001515111156121775760006002811115612058576120576139aa565b5b8360200151600281111561206f5761206e6139aa565b5b036120a6576040517fa80d31f700000000000000000000000000000000000000000000000000000000815260040160405180910390fd5b6120ee6040518060400160405280600f81526020017f736563726574734c6f636174696f6e000000000000000000000000000000000081525082612c5290919063ffffffff16565b61211783602001516002811115612108576121076139aa565b5b82612c7b90919063ffffffff16565b61215f6040518060400160405280600781526020017f736563726574730000000000000000000000000000000000000000000000000081525082612c5290919063ffffffff16565b612176836080015182612d1b90919063ffffffff16565b5b60008360c0015151111561222d576121cd6040518060400160405280600981526020017f627974657341726773000000000000000000000000000000000000000000000081525082612c5290919063ffffffff16565b6121d681612ccb565b60005b8360c0015151811015612222576122178460c001518281518110612200576121ff6140d5565b5b602002602001015183612d1b90919063ffffffff16565b8060010190506121d9565b5061222c81612cf3565b5b806000015160000151915050919050565b6000807f000000000000000000000000000000000000000000000000000000000000000073ffffffffffffffffffffffffffffffffffffffff1663461d27628688600188886040518663ffffffff1660e01b81526004016122a395949392919061434c565b6020604051808303816000875af11580156122c2573d6000803e3d6000fd5b505050506040513d601f19601f820116820180604052508101906122e691906143bb565b9050807f1131472297a800fee664d1d89cfa8f7676ff07189ecc53f80bbb5f4969099db860405160405180910390a280915050949350505050565b600073ffffffffffffffffffffffffffffffffffffffff168273ffffffffffffffffffffffffffffffffffffffff16036123935760006040517f96c6fd1e00000000000000000000000000000000000000000000000000000000815260040161238a9190613881565b60405180910390fd5b61239f82600083612806565b5050565b60006123b0610100612c2b565b90506123fa6040518060400160405280600681526020017f736c6f744944000000000000000000000000000000000000000000000000000081525082612c5290919063ffffffff16565b6124108360ff1682612d4490919063ffffffff16565b6124586040518060400160405280600781526020017f76657273696f6e0000000000000000000000000000000000000000000000000081525082612c5290919063ffffffff16565b61246b8282612d4490919063ffffffff16565b600284602001906002811115612484576124836139aa565b5b90816002811115612498576124976139aa565b5b81525050806000015160000151846080018190525050505050565b3373ffffffffffffffffffffffffffffffffffffffff168173ffffffffffffffffffffffffffffffffffffffff1603612521576040517f08c379a000000000000000000000000000000000000000000000000000000000815260040161251890614434565b60405180910390fd5b80600160006101000a81548173ffffffffffffffffffffffffffffffffffffffff021916908373ffffffffffffffffffffffffffffffffffffffff1602179055508073ffffffffffffffffffffffffffffffffffffffff1660008054906101000a900473ffffffffffffffffffffffffffffffffffffffff1673ffffffffffffffffffffffffffffffffffffffff167fed8889f560326eb138920d842192f0eb3dd22b4f139c87a2c57538e05bae127860405160405180910390a350565b600073ffffffffffffffffffffffffffffffffffffffff168473ffffffffffffffffffffffffffffffffffffffff16036126515760006040517fe602df050000000000000000000000000000000000000000000000000000000081526004016126489190613881565b60405180910390fd5b600073ffffffffffffffffffffffffffffffffffffffff168373ffffffffffffffffffffffffffffffffffffffff16036126c35760006040517f94280d620000000000000000000000000000000000000000000000000000000081526004016126ba9190613881565b60405180910390fd5b81600360008673ffffffffffffffffffffffffffffffffffffffff1673ffffffffffffffffffffffffffffffffffffffff16815260200190815260200160002060008573ffffffffffffffffffffffffffffffffffffffff1673ffffffffffffffffffffffffffffffffffffffff1681526020019081526020016000208190555080156127b0578273ffffffffffffffffffffffffffffffffffffffff168473ffffffffffffffffffffffffffffffffffffffff167f8c5be1e5ebec7d5bd14f71427d1e84f3dd0314c0f7b2291e5b200ac8c7c3b925846040516127a79190613819565b60405180910390a35b50505050565b6128026010600084815260200190815260200160002060010160009054906101000a900473ffffffffffffffffffffffffffffffffffffffff16826127fa90614479565b60001c612d54565b5050565b600073ffffffffffffffffffffffffffffffffffffffff168373ffffffffffffffffffffffffffffffffffffffff160361285857806004600082825461284c91906144e0565b9250508190555061292d565b6000600260008573ffffffffffffffffffffffffffffffffffffffff1673ffffffffffffffffffffffffffffffffffffffff168152602001908152602001600020549050818110156128e5578381836040517fe450d38c0000000000000000000000000000000000000000000000000000000081526004016128dc93929190614284565b60405180910390fd5b818103600260008673ffffffffffffffffffffffffffffffffffffffff1673ffffffffffffffffffffffffffffffffffffffff16815260200190815260200160002081905550505b600073ffffffffffffffffffffffffffffffffffffffff168273ffffffffffffffffffffffffffffffffffffffff160361297657806004600082825403925050819055506129c4565b80600260008473ffffffffffffffffffffffffffffffffffffffff1673ffffffffffffffffffffffffffffffffffffffff168152602001908152602001600020600082825401925050819055505b8173ffffffffffffffffffffffffffffffffffffffff168373ffffffffffffffffffffffffffffffffffffffff167fddf252ad1be2c89b69c2b068fc378daa952ba7f163c4a11628f55a4df523b3ef83604051612a219190613819565b60405180910390a3505050565b6000815103612a69576040517f22ce3edd00000000000000000000000000000000000000000000000000000000815260040160405180910390fd5b8284600001906002811115612a8157612a806139aa565b5b90816002811115612a9557612a946139aa565b5b815250508184604001906000811115612ab157612ab06139aa565b5b90816000811115612ac557612ac46139aa565b5b8152505080846060018190525050505050565b600080600090507a184f03e93ff9f4daa797ed6e38ed64bf6a1f0100000000000000008310612b36577a184f03e93ff9f4daa797ed6e38ed64bf6a1f0100000000000000008381612b2c57612b2b6141b8565b5b0492506040810190505b6d04ee2d6d415b85acef81000000008310612b73576d04ee2d6d415b85acef81000000008381612b6957612b686141b8565b5b0492506020810190505b662386f26fc100008310612ba257662386f26fc100008381612b9857612b976141b8565b5b0492506010810190505b6305f5e1008310612bcb576305f5e1008381612bc157612bc06141b8565b5b0492506008810190505b6127108310612bf0576127108381612be657612be56141b8565b5b0492506004810190505b60648310612c135760648381612c0957612c086141b8565b5b0492506002810190505b600a8310612c22576001810190505b80915050919050565b612c336132f3565b612c41816000015183612dd6565b506000816020018181525050919050565b612c5f8260038351612e4f565b612c76818360000151612ff890919063ffffffff16565b505050565b612c9d60026005600660ff16901b17836000015161301490919063ffffffff16565b50612cc78282604051602001612cb39190613819565b604051602081830303815290604052612d1b565b5050565b612cd681600461307e565b600181602001818151612ce991906144e0565b9150818152505050565b612cfe81600761307e565b600181602001818151612d119190614514565b9150818152505050565b612d288260028351612e4f565b612d3f818360000151612ff890919063ffffffff16565b505050565b612d5082600083612e4f565b5050565b600073ffffffffffffffffffffffffffffffffffffffff168273ffffffffffffffffffffffffffffffffffffffff1603612dc65760006040517fec442f05000000000000000000000000000000000000000000000000000000008152600401612dbd9190613881565b60405180910390fd5b612dd260008383612806565b5050565b612dde613313565b6000602083612ded9190614548565b14612e1957602082612dff9190614548565b6020612e0b9190614514565b82612e1691906144e0565b91505b818360200181815250506040518084526000815282810160200181811015612e4057600080fd5b80604052505082905092915050565b60178167ffffffffffffffff1611612e8a57612e848160058460ff16901b60ff1617846000015161301490919063ffffffff16565b50612ff3565b60ff8167ffffffffffffffff1611612ee857612ebd601860058460ff16901b17846000015161301490919063ffffffff16565b50612ee28167ffffffffffffffff16600185600001516130a49092919063ffffffff16565b50612ff2565b61ffff8167ffffffffffffffff1611612f4757612f1c601960058460ff16901b17846000015161301490919063ffffffff16565b50612f418167ffffffffffffffff16600285600001516130a49092919063ffffffff16565b50612ff1565b63ffffffff8167ffffffffffffffff1611612fa857612f7d601a60058460ff16901b17846000015161301490919063ffffffff16565b50612fa28167ffffffffffffffff16600485600001516130a49092919063ffffffff16565b50612ff0565b612fc9601b60058460ff16901b17846000015161301490919063ffffffff16565b50612fee8167ffffffffffffffff16600885600001516130a49092919063ffffffff16565b505b5b5b5b505050565b613000613313565b61300c83838451613131565b905092915050565b61301c613313565b60008360000151519050600060018261303591906144e0565b90508460200151821061305957613058856002836130539190614028565b613214565b5b84516020838201018581538151831115613071578282525b5050849250505092915050565b61309f601f60058360ff16901b17836000015161301490919063ffffffff16565b505050565b6130ac613313565b60008460000151519050600081846130c491906144e0565b905085602001518111156130e9576130e8866002836130e39190614028565b613214565b5b60006001856101006130fb91906146ac565b6131059190614514565b905086518281018783198251161781528151841115613122578382525b50508693505050509392505050565b613139613313565b825182111561314757600080fd5b600084600001515190506000838261315f91906144e0565b90508560200151811115613184576131838660028361317e9190614028565b613214565b5b6000808751805185602083010193508085111561319f578482525b60208901925050505b602086106131e657805182526020826131c191906144e0565b91506020816131d091906144e0565b90506020866131df9190614514565b95506131a8565b60006001876020036101000a0390508019825116818451168181178552505050879450505050509392505050565b6000826000015190506132278383612dd6565b506132328382612ff8565b50505050565b6040518060e0016040528060006002811115613257576132566139aa565b5b8152602001600060028111156132705761326f6139aa565b5b8152602001600080811115613288576132876139aa565b5b8152602001606081526020016060815260200160608152602001606081525090565b604051806060016040528060008152602001600073ffffffffffffffffffffffffffffffffffffffff168152602001600060018111156132ed576132ec6139aa565b5b81525090565b6040518060400160405280613306613313565b8152602001600081525090565b604051806040016040528060608152602001600081525090565b600081519050919050565b600082825260208201905092915050565b60005b8381101561336757808201518184015260208101905061334c565b60008484015250505050565b6000601f19601f8301169050919050565b600061338f8261332d565b6133998185613338565b93506133a9818560208601613349565b6133b281613373565b840191505092915050565b600060208201905081810360008301526133d78184613384565b905092915050565b6000604051905090565b600080fd5b600080fd5b600073ffffffffffffffffffffffffffffffffffffffff82169050919050565b600061341e826133f3565b9050919050565b61342e81613413565b811461343957600080fd5b50565b60008135905061344b81613425565b92915050565b6000819050919050565b61346481613451565b811461346f57600080fd5b50565b6000813590506134818161345b565b92915050565b6000806040838503121561349e5761349d6133e9565b5b60006134ac8582860161343c565b92505060206134bd85828601613472565b9150509250929050565b60008115159050919050565b6134dc816134c7565b82525050565b60006020820190506134f760008301846134d3565b92915050565b6000819050919050565b613510816134fd565b811461351b57600080fd5b50565b60008135905061352d81613507565b92915050565b600080fd5b600080fd5b7f4e487b7100000000000000000000000000000000000000000000000000000000600052604160045260246000fd5b61357582613373565b810181811067ffffffffffffffff821117156135945761359361353d565b5b80604052505050565b60006135a76133df565b90506135b3828261356c565b919050565b600067ffffffffffffffff8211156135d3576135d261353d565b5b6135dc82613373565b9050602081019050919050565b82818337600083830152505050565b600061360b613606846135b8565b61359d565b90508281526020810184848401111561362757613626613538565b5b6136328482856135e9565b509392505050565b600082601f83011261364f5761364e613533565b5b813561365f8482602086016135f8565b91505092915050565b600080600060608486031215613681576136806133e9565b5b600061368f8682870161351e565b935050602084013567ffffffffffffffff8111156136b0576136af6133ee565b5b6136bc8682870161363a565b925050604084013567ffffffffffffffff8111156136dd576136dc6133ee565b5b6136e98682870161363a565b9150509250925092565b600067ffffffffffffffff82111561370e5761370d61353d565b5b61371782613373565b9050602081019050919050565b6000613737613732846136f3565b61359d565b90508281526020810184848401111561375357613752613538565b5b61375e8482856135e9565b509392505050565b600082601f83011261377b5761377a613533565b5b813561378b848260208601613724565b91505092915050565b6000602082840312156137aa576137a96133e9565b5b600082013567ffffffffffffffff8111156137c8576137c76133ee565b5b6137d484828501613766565b91505092915050565b6000602082840312156137f3576137f26133e9565b5b60006138018482850161343c565b91505092915050565b61381381613451565b82525050565b600060208201905061382e600083018461380a565b92915050565b600067ffffffffffffffff82169050919050565b61385181613834565b82525050565b600060208201905061386c6000830184613848565b92915050565b61387b81613413565b82525050565b60006020820190506138966000830184613872565b92915050565b6000806000606084860312156138b5576138b46133e9565b5b60006138c38682870161343c565b93505060206138d48682870161343c565b92505060406138e586828701613472565b9150509250925092565b600060ff82169050919050565b613905816138ef565b82525050565b600060208201905061392060008301846138fc565b92915050565b61392f816134fd565b82525050565b600060208201905061394a6000830184613926565b92915050565b600060208284031215613966576139656133e9565b5b600061397484828501613472565b91505092915050565b600060208284031215613993576139926133e9565b5b60006139a18482850161351e565b91505092915050565b7f4e487b7100000000000000000000000000000000000000000000000000000000600052602160045260246000fd5b600281106139ea576139e96139aa565b5b50565b60008190506139fb826139d9565b919050565b6000613a0b826139ed565b9050919050565b613a1b81613a00565b82525050565b6000606082019050613a36600083018661380a565b613a436020830185613872565b613a506040830184613a12565b949350505050565b60008060408385031215613a6f57613a6e6133e9565b5b6000613a7d8582860161343c565b9250506020613a8e8582860161343c565b9150509250929050565b613aa1816134c7565b8114613aac57600080fd5b50565b600081359050613abe81613a98565b92915050565b600060208284031215613ada57613ad96133e9565b5b6000613ae884828501613aaf565b91505092915050565b613afa81613834565b8114613b0557600080fd5b50565b600081359050613b1781613af1565b92915050565b613b26816138ef565b8114613b3157600080fd5b50565b600081359050613b4381613b1d565b92915050565b60008060408385031215613b6057613b5f6133e9565b5b6000613b6e85828601613b08565b9250506020613b7f85828601613b34565b9150509250929050565b613b9281613451565b82525050565b613ba181613413565b82525050565b613bb081613a00565b82525050565b606082016000820151613bcc6000850182613b89565b506020820151613bdf6020850182613b98565b506040820151613bf26040850182613ba7565b50505050565b6000606082019050613c0d6000830184613bb6565b92915050565b7f4e487b7100000000000000000000000000000000000000000000000000000000600052602260045260246000fd5b60006002820490506001821680613c5a57607f821691505b602082108103613c6d57613c6c613c13565b5b50919050565b60008190508160005260206000209050919050565b60006020601f8301049050919050565b600082821b905092915050565b600060088302613cd57fffffffffffffffffffffffffffffffffffffffffffffffffffffffffffffffff82613c98565b613cdf8683613c98565b95508019841693508086168417925050509392505050565b6000819050919050565b6000613d1c613d17613d1284613451565b613cf7565b613451565b9050919050565b6000819050919050565b613d3683613d01565b613d4a613d4282613d23565b848454613ca5565b825550505050565b600090565b613d5f613d52565b613d6a818484613d2d565b505050565b5b81811015613d8e57613d83600082613d57565b600181019050613d70565b5050565b601f821115613dd357613da481613c73565b613dad84613c88565b81016020851015613dbc578190505b613dd0613dc885613c88565b830182613d6f565b50505b505050565b600082821c905092915050565b6000613df660001984600802613dd8565b1980831691505092915050565b6000613e0f8383613de5565b9150826002028217905092915050565b613e288261332d565b67ffffffffffffffff811115613e4157613e4061353d565b5b613e4b8254613c42565b613e56828285613d92565b600060209050601f831160018114613e895760008415613e77578287015190505b613e818582613e03565b865550613ee9565b601f198416613e9786613c73565b60005b82811015613ebf57848901518255600182019150602085019450602081019050613e9a565b86831015613edc5784890151613ed8601f891682613de5565b8355505b6001600288020188555050505b505050505050565b600069ffffffffffffffffffff82169050919050565b613f1081613ef1565b8114613f1b57600080fd5b50565b600081519050613f2d81613f07565b92915050565b6000819050919050565b613f4681613f33565b8114613f5157600080fd5b50565b600081519050613f6381613f3d565b92915050565b600081519050613f788161345b565b92915050565b600080600080600060a08688031215613f9a57613f996133e9565b5b6000613fa888828901613f1e565b9550506020613fb988828901613f54565b9450506040613fca88828901613f69565b9350506060613fdb88828901613f69565b9250506080613fec88828901613f1e565b9150509295509295909350565b7f4e487b7100000000000000000000000000000000000000000000000000000000600052601160045260246000fd5b600061403382613451565b915061403e83613451565b925082820261404c81613451565b9150828204841483151761406357614062613ff9565b5b5092915050565b600060408201905061407f6000830185613872565b61408c602083018461380a565b9392505050565b6000815190506140a281613a98565b92915050565b6000602082840312156140be576140bd6133e9565b5b60006140cc84828501614093565b91505092915050565b7f4e487b7100000000000000000000000000000000000000000000000000000000600052603260045260246000fd5b7f4d7573742062652070726f706f736564206f776e657200000000000000000000600082015250565b600061413a601683613338565b915061414582614104565b602082019050919050565b600060208201905081810360008301526141698161412d565b9050919050565b600061417b82613451565b91507fffffffffffffffffffffffffffffffffffffffffffffffffffffffffffffffff82036141ad576141ac613ff9565b5b600182019050919050565b7f4e487b7100000000000000000000000000000000000000000000000000000000600052601260045260246000fd5b60006141f282613451565b91506141fd83613451565b92508261420d5761420c6141b8565b5b828204905092915050565b7f4f6e6c792063616c6c61626c65206279206f776e657200000000000000000000600082015250565b600061424e601683613338565b915061425982614218565b602082019050919050565b6000602082019050818103600083015261427d81614241565b9050919050565b60006060820190506142996000830186613872565b6142a6602083018561380a565b6142b3604083018461380a565b949350505050565b600081519050919050565b600082825260208201905092915050565b60006142e2826142bb565b6142ec81856142c6565b93506142fc818560208601613349565b61430581613373565b840191505092915050565b600061ffff82169050919050565b61432781614310565b82525050565b600063ffffffff82169050919050565b6143468161432d565b82525050565b600060a0820190506143616000830188613848565b818103602083015261437381876142d7565b9050614382604083018661431e565b61438f606083018561433d565b61439c6080830184613926565b9695505050505050565b6000815190506143b581613507565b92915050565b6000602082840312156143d1576143d06133e9565b5b60006143df848285016143a6565b91505092915050565b7f43616e6e6f74207472616e7366657220746f2073656c66000000000000000000600082015250565b600061441e601783613338565b9150614429826143e8565b602082019050919050565b6000602082019050818103600083015261444d81614411565b9050919050565b6000819050602082019050919050565b600061447082516134fd565b80915050919050565b6000614484826142bb565b8261448e84614454565b905061449981614464565b925060208210156144d9576144d47fffffffffffffffffffffffffffffffffffffffffffffffffffffffffffffffff83602003600802613c98565b831692505b5050919050565b60006144eb82613451565b91506144f683613451565b925082820190508082111561450e5761450d613ff9565b5b92915050565b600061451f82613451565b915061452a83613451565b925082820390508181111561454257614541613ff9565b5b92915050565b600061455382613451565b915061455e83613451565b92508261456e5761456d6141b8565b5b828206905092915050565b60008160011c9050919050565b6000808291508390505b60018511156145d0578086048111156145ac576145ab613ff9565b5b60018516156145bb5780820291505b80810290506145c985614579565b9450614590565b94509492505050565b6000826145e957600190506146a5565b816145f757600090506146a5565b816001811461460d576002811461461757614646565b60019150506146a5565b60ff84111561462957614628613ff9565b5b8360020a9150848211156146405761463f613ff9565b5b506146a5565b5060208310610133831016604e8410600b841016171561467b5782820a90508381111561467657614675613ff9565b5b6146a5565b6146888484846001614586565b9250905081840481111561469f5761469e613ff9565b5b81810290505b9392505050565b60006146b782613451565b91506146c283613451565b92506146ef7fffffffffffffffffffffffffffffffffffffffffffffffffffffffffffffffff84846145d9565b90509291505056fea26469706673582212202a8ed77456053a24040a381b5898083ad769a1996f2a9c5d3aa8c7095f4b8e4864736f6c63430008190033",
  "devdoc": {
    "errors": {
      "ERC20InsufficientAllowance(address,uint256,uint256)": [
        {
          "details": "Indicates a failure with the `spender`s `allowance`. Used in transfers.",
          "params": {
            "allowance": "Amount of tokens a `spender` is allowed to operate with.",
            "needed": "Minimum amount required to perform a transfer.",
            "spender": "Address that may be allowed to operate on tokens without being their owner."
          }
        }
      ],
      "ERC20InsufficientBalance(address,uint256,uint256)": [
        {
          "details": "Indicates an error related to the current `balance` of a `sender`. Used in transfers.",
          "params": {
            "balance": "Current balance for the interacting account.",
            "needed": "Minimum amount required to perform a transfer.",
            "sender": "Address whose tokens are being transferred."
          }
        }
      ],
      "ERC20InvalidApprover(address)": [
        {
          "details": "Indicates a failure with the `approver` of a token to be approved. Used in approvals.",
          "params": {
            "approver": "Address initiating an approval operation."
          }
        }
      ],
      "ERC20InvalidReceiver(address)": [
        {
          "details": "Indicates a failure with the token `receiver`. Used in transfers.",
          "params": {
            "receiver": "Address to which tokens are being transferred."
          }
        }
      ],
      "ERC20InvalidSender(address)": [
        {
          "details": "Indicates a failure with the token `sender`. Used in transfers.",
          "params": {
            "sender": "Address whose tokens are being transferred."
          }
        }
      ],
      "ERC20InvalidSpender(address)": [
        {
          "details": "Indicates a failure with the `spender` to be approved. Used in approvals.",
          "params": {
            "spender": "Address that may be allowed to operate on tokens without being their owner."
          }
        }
      ]
    },
    "events": {
      "Approval(address,address,uint256)": {
        "details": "Emitted when the allowance of a `spender` for an `owner` is set by a call to {approve}. `value` is the new allowance."
      },
      "Transfer(address,address,uint256)": {
        "details": "Emitted when `value` tokens are moved from one account (`from`) to another (`to`). Note that `value` may be zero."
      }
    },
    "kind": "dev",
    "methods": {
      "allowance(address,address)": {
        "details": "See {IERC20-allowance}."
      },
      "approve(address,uint256)": {
        "details": "See {IERC20-approve}. NOTE: If `value` is the maximum `uint256`, the allowance is not updated on `transferFrom`. This is semantically equivalent to an infinite approval. Requirements: - `spender` cannot be the zero address."
      },
      "balanceOf(address)": {
        "details": "See {IERC20-balanceOf}."
      },
      "decimals()": {
        "details": "Returns the number of decimals used to get its user representation. For example, if `decimals` equals `2`, a balance of `505` tokens should be displayed to a user as `5.05` (`505 / 10 ** 2`). Tokens usually opt for a value of 18, imitating the relationship between Ether and Wei. This is the default value returned by this function, unless it's overridden. NOTE: This information is only used for _display_ purposes: it in no way affects any of the arithmetic of the contract, including {IERC20-balanceOf} and {IERC20-transfer}."
      },
      "handleOracleFulfillment(bytes32,bytes,bytes)": {
        "details": "Either response or error parameter will be set, but never both.",
        "params": {
          "err": "Aggregated error either from the request's source code or from the execution pipeline.",
          "requestId": "The requestId returned by FunctionsClient.sendRequest().",
          "response": "Aggregated response from the request's source code."
        }
      },
      "name()": {
        "details": "Returns the name of the token."
      },
      "symbol()": {
        "details": "Returns the symbol of the token, usually a shorter version of the name."
      },
      "totalSupply()": {
        "details": "See {IERC20-totalSupply}."
      },
      "transfer(address,uint256)": {
        "details": "See {IERC20-transfer}. Requirements: - `to` cannot be the zero address. - the caller must have a balance of at least `value`."
      },
      "transferFrom(address,address,uint256)": {
        "details": "See {IERC20-transferFrom}. Emits an {Approval} event indicating the updated allowance. This is not required by the EIP. See the note at the beginning of {ERC20}. NOTE: Does not update the allowance if the current allowance is the maximum `uint256`. Requirements: - `from` and `to` cannot be the zero address. - `from` must have a balance of at least `value`. - the caller must have allowance for ``from``'s tokens of at least `value`."
      }
    },
    "version": 1
  },
  "userdoc": {
    "kind": "user",
    "methods": {
      "acceptOwnership()": {
        "notice": "Allows an ownership transfer to be completed by the recipient."
      },
      "handleOracleFulfillment(bytes32,bytes,bytes)": {
        "notice": "Chainlink Functions response handler called by the Functions Router during fullilment from the designated transmitter node in an OCR round."
      },
      "owner()": {
        "notice": "Get the current owner"
      },
      "transferOwnership(address)": {
        "notice": "Allows an owner to begin transferring ownership to a new address."
      }
    },
    "version": 1
  },
  "storageLayout": {
    "storage": [
      {
        "astId": 816,
        "contract": "contracts/dTESLA.sol:dTESLA",
        "label": "s_owner",
        "offset": 0,
        "slot": "0",
        "type": "t_address"
      },
      {
        "astId": 818,
        "contract": "contracts/dTESLA.sol:dTESLA",
        "label": "s_pendingOwner",
        "offset": 0,
        "slot": "1",
        "type": "t_address"
      },
      {
        "astId": 2473,
        "contract": "contracts/dTESLA.sol:dTESLA",
        "label": "_balances",
        "offset": 0,
        "slot": "2",
        "type": "t_mapping(t_address,t_uint256)"
      },
      {
        "astId": 2479,
        "contract": "contracts/dTESLA.sol:dTESLA",
        "label": "_allowances",
        "offset": 0,
        "slot": "3",
        "type": "t_mapping(t_address,t_mapping(t_address,t_uint256))"
      },
      {
        "astId": 2481,
        "contract": "contracts/dTESLA.sol:dTESLA",
        "label": "_totalSupply",
        "offset": 0,
        "slot": "4",
        "type": "t_uint256"
      },
      {
        "astId": 2483,
        "contract": "contracts/dTESLA.sol:dTESLA",
        "label": "_name",
        "offset": 0,
        "slot": "5",
        "type": "t_string_storage"
      },
      {
        "astId": 2485,
        "contract": "contracts/dTESLA.sol:dTESLA",
        "label": "_symbol",
        "offset": 0,
        "slot": "6",
        "type": "t_string_storage"
      },
      {
        "astId": 4536,
        "contract": "contracts/dTESLA.sol:dTESLA",
        "label": "testing",
        "offset": 0,
        "slot": "7",
        "type": "t_bool"
      },
      {
        "astId": 4539,
        "contract": "contracts/dTESLA.sol:dTESLA",
        "label": "test",
        "offset": 0,
        "slot": "8",
        "type": "t_uint256"
      },
      {
        "astId": 4541,
        "contract": "contracts/dTESLA.sol:dTESLA",
        "label": "testAddress",
        "offset": 0,
        "slot": "9",
        "type": "t_address"
      },
      {
        "astId": 4570,
        "contract": "contracts/dTESLA.sol:dTESLA",
        "label": "PRECISION",
        "offset": 0,
        "slot": "10",
        "type": "t_uint256"
      },
      {
        "astId": 4573,
        "contract": "contracts/dTESLA.sol:dTESLA",
        "label": "ADDITIONAL_FEED_PRECCISION",
        "offset": 0,
        "slot": "11",
        "type": "t_uint256"
      },
      {
        "astId": 4585,
        "contract": "contracts/dTESLA.sol:dTESLA",
        "label": "s_mintSourceCode",
        "offset": 0,
        "slot": "12",
        "type": "t_string_storage"
      },
      {
        "astId": 4587,
        "contract": "contracts/dTESLA.sol:dTESLA",
        "label": "s_redeemSourceCode",
        "offset": 0,
        "slot": "13",
        "type": "t_string_storage"
      },
      {
        "astId": 4591,
        "contract": "contracts/dTESLA.sol:dTESLA",
        "label": "secretVersion",
        "offset": 0,
        "slot": "14",
        "type": "t_uint64"
      },
      {
        "astId": 4593,
        "contract": "contracts/dTESLA.sol:dTESLA",
        "label": "secretSlot",
        "offset": 8,
        "slot": "14",
        "type": "t_uint8"
      },
      {
        "astId": 4612,
        "contract": "contracts/dTESLA.sol:dTESLA",
        "label": "s_portfolioBalance",
        "offset": 0,
        "slot": "15",
        "type": "t_uint256"
      },
      {
        "astId": 4617,
        "contract": "contracts/dTESLA.sol:dTESLA",
        "label": "s_requestIdToRequest",
        "offset": 0,
        "slot": "16",
        "type": "t_mapping(t_bytes32,t_struct(dTeslaRequest)4567_storage)"
      },
      {
        "astId": 4621,
        "contract": "contracts/dTESLA.sol:dTESLA",
        "label": "uerBalance",
        "offset": 0,
        "slot": "17",
        "type": "t_mapping(t_address,t_uint256)"
      },
      {
        "astId": 4625,
        "contract": "contracts/dTESLA.sol:dTESLA",
        "label": "s_userToWithdrawAmount",
        "offset": 0,
        "slot": "18",
        "type": "t_mapping(t_address,t_uint256)"
      },
      {
        "astId": 4627,
        "contract": "contracts/dTESLA.sol:dTESLA",
        "label": "httpRequestNonce",
        "offset": 0,
        "slot": "19",
        "type": "t_uint256"
      }
    ],
    "types": {
      "t_address": {
        "encoding": "inplace",
        "label": "address",
        "numberOfBytes": "20"
      },
      "t_bool": {
        "encoding": "inplace",
        "label": "bool",
        "numberOfBytes": "1"
      },
      "t_bytes32": {
        "encoding": "inplace",
        "label": "bytes32",
        "numberOfBytes": "32"
      },
      "t_enum(MintOrRedeem)4559": {
        "encoding": "inplace",
        "label": "enum dTESLA.MintOrRedeem",
        "numberOfBytes": "1"
      },
      "t_mapping(t_address,t_mapping(t_address,t_uint256))": {
        "encoding": "mapping",
        "key": "t_address",
        "label": "mapping(address => mapping(address => uint256))",
        "numberOfBytes": "32",
        "value": "t_mapping(t_address,t_uint256)"
      },
      "t_mapping(t_address,t_uint256)": {
        "encoding": "mapping",
        "key": "t_address",
        "label": "mapping(address => uint256)",
        "numberOfBytes": "32",
        "value": "t_uint256"
      },
      "t_mapping(t_bytes32,t_struct(dTeslaRequest)4567_storage)": {
        "encoding": "mapping",
        "key": "t_bytes32",
        "label": "mapping(bytes32 => struct dTESLA.dTeslaRequest)",
        "numberOfBytes": "32",
        "value": "t_struct(dTeslaRequest)4567_storage"
      },
      "t_string_storage": {
        "encoding": "bytes",
        "label": "string",
        "numberOfBytes": "32"
      },
      "t_struct(dTeslaRequest)4567_storage": {
        "encoding": "inplace",
        "label": "struct dTESLA.dTeslaRequest",
        "members": [
          {
            "astId": 4561,
            "contract": "contracts/dTESLA.sol:dTESLA",
            "label": "amountOfToken",
            "offset": 0,
            "slot": "0",
            "type": "t_uint256"
          },
          {
            "astId": 4563,
            "contract": "contracts/dTESLA.sol:dTESLA",
            "label": "requester",
            "offset": 0,
            "slot": "1",
            "type": "t_address"
          },
          {
            "astId": 4566,
            "contract": "contracts/dTESLA.sol:dTESLA",
            "label": "mintOrRedeem",
            "offset": 20,
            "slot": "1",
            "type": "t_enum(MintOrRedeem)4559"
          }
        ],
        "numberOfBytes": "64"
      },
      "t_uint256": {
        "encoding": "inplace",
        "label": "uint256",
        "numberOfBytes": "32"
      },
      "t_uint64": {
        "encoding": "inplace",
        "label": "uint64",
        "numberOfBytes": "8"
      },
      "t_uint8": {
        "encoding": "inplace",
        "label": "uint8",
        "numberOfBytes": "1"
      }
    }
  }
}