{
  "address": "0x746F8C7E0739C17b49558B7a3f4DD4c1B34FD639",
  "abi": [
    {
      "inputs": [
        {
          "internalType": "address",
          "name": "priceFeed",
          "type": "address"
        }
      ],
      "stateMutability": "nonpayable",
      "type": "constructor"
    },
    {
      "inputs": [],
      "name": "FundMe__NotOwner",
      "type": "error"
    },
    {
      "inputs": [],
      "name": "MINIMUM_USD",
      "outputs": [
        {
          "internalType": "uint256",
          "name": "",
          "type": "uint256"
        }
      ],
      "stateMutability": "view",
      "type": "function"
    },
    {
      "inputs": [],
      "name": "cheaperWithdraw",
      "outputs": [],
      "stateMutability": "nonpayable",
      "type": "function"
    },
    {
      "inputs": [],
      "name": "fund",
      "outputs": [],
      "stateMutability": "payable",
      "type": "function"
    },
    {
      "inputs": [
        {
          "internalType": "address",
          "name": "fundingAddress",
          "type": "address"
        }
      ],
      "name": "getAddressToAmountFunded",
      "outputs": [
        {
          "internalType": "uint256",
          "name": "",
          "type": "uint256"
        }
      ],
      "stateMutability": "view",
      "type": "function"
    },
    {
      "inputs": [
        {
          "internalType": "uint256",
          "name": "index",
          "type": "uint256"
        }
      ],
      "name": "getFunder",
      "outputs": [
        {
          "internalType": "address",
          "name": "",
          "type": "address"
        }
      ],
      "stateMutability": "view",
      "type": "function"
    },
    {
      "inputs": [],
      "name": "getOwner",
      "outputs": [
        {
          "internalType": "address",
          "name": "",
          "type": "address"
        }
      ],
      "stateMutability": "view",
      "type": "function"
    },
    {
      "inputs": [],
      "name": "getPriceFeed",
      "outputs": [
        {
          "internalType": "contract AggregatorV3Interface",
          "name": "",
          "type": "address"
        }
      ],
      "stateMutability": "view",
      "type": "function"
    },
    {
      "inputs": [],
      "name": "getVersion",
      "outputs": [
        {
          "internalType": "uint256",
          "name": "",
          "type": "uint256"
        }
      ],
      "stateMutability": "view",
      "type": "function"
    },
    {
      "inputs": [],
      "name": "teste2",
      "outputs": [
        {
          "internalType": "uint256",
          "name": "",
          "type": "uint256"
        }
      ],
      "stateMutability": "view",
      "type": "function"
    },
    {
      "inputs": [],
      "name": "tester",
      "outputs": [
        {
          "internalType": "uint256",
          "name": "",
          "type": "uint256"
        }
      ],
      "stateMutability": "view",
      "type": "function"
    },
    {
      "inputs": [],
      "name": "withdraw",
      "outputs": [],
      "stateMutability": "nonpayable",
      "type": "function"
    }
  ],
  "transactionHash": "0xf528a09edc02405f550c92c28f9fde74eed446217816b227422ad1fc6e8ecaa2",
  "args": [
    "0x694AA1769357215DE4FAC081bf1f309aDC325306"
  ],
  "numDeployments": 9,
  "solcInputHash": "43ef893b99dfa1e42a3024a8e675cd70",
  "bytecode": "0x60a0604052600960005560096001553480156200001b57600080fd5b50604051620013ed380380620013ed833981810160405281019062000041919062000127565b80600460006101000a81548173ffffffffffffffffffffffffffffffffffffffff021916908373ffffffffffffffffffffffffffffffffffffffff1602179055503373ffffffffffffffffffffffffffffffffffffffff1660808173ffffffffffffffffffffffffffffffffffffffff16815250505062000159565b600080fd5b600073ffffffffffffffffffffffffffffffffffffffff82169050919050565b6000620000ef82620000c2565b9050919050565b6200010181620000e2565b81146200010d57600080fd5b50565b6000815190506200012181620000f6565b92915050565b60006020828403121562000140576200013f620000bd565b5b6000620001508482850162000110565b91505092915050565b60805161125c6200019160003960008181610347015281816104db0152818161058701528181610718015261090f015261125c6000f3fe60806040526004361061009c5760003560e01c8063893d20e811610064578063893d20e8146101765780639e87a5cd146101a1578063a941a097146101cc578063b60d4288146101f7578063be2693f014610201578063d7b4750c146102185761009c565b80630343fb25146100a15780630d8e6e2c146100de5780633ccfd60b146101095780636b69a592146101205780638308abd41461014b575b600080fd5b3480156100ad57600080fd5b506100c860048036038101906100c39190610bd3565b610255565b6040516100d59190610c19565b60405180910390f35b3480156100ea57600080fd5b506100f361029e565b6040516101009190610c19565b60405180910390f35b34801561011557600080fd5b5061011e610345565b005b34801561012c57600080fd5b50610135610570565b6040516101429190610c19565b60405180910390f35b34801561015757600080fd5b5061016061057d565b60405161016d9190610c19565b60405180910390f35b34801561018257600080fd5b5061018b610583565b6040516101989190610c43565b60405180910390f35b3480156101ad57600080fd5b506101b66105ab565b6040516101c39190610cbd565b60405180910390f35b3480156101d857600080fd5b506101e16105d5565b6040516101ee9190610c19565b60405180910390f35b6101ff6105db565b005b34801561020d57600080fd5b50610216610716565b005b34801561022457600080fd5b5061023f600480360381019061023a9190610d04565b6109a5565b60405161024c9190610c43565b60405180910390f35b6000600360008373ffffffffffffffffffffffffffffffffffffffff1673ffffffffffffffffffffffffffffffffffffffff168152602001908152602001600020549050919050565b6000600460009054906101000a900473ffffffffffffffffffffffffffffffffffffffff1673ffffffffffffffffffffffffffffffffffffffff166354fd4d506040518163ffffffff1660e01b815260040160206040518083038186803b15801561030857600080fd5b505afa15801561031c573d6000803e3d6000fd5b505050506040513d601f19601f820116820180604052508101906103409190610d46565b905090565b7f000000000000000000000000000000000000000000000000000000000000000073ffffffffffffffffffffffffffffffffffffffff163373ffffffffffffffffffffffffffffffffffffffff16146103ca576040517f579610db00000000000000000000000000000000000000000000000000000000815260040160405180910390fd5b60005b600280549050811015610476576000600282815481106103f0576103ef610d73565b5b9060005260206000200160009054906101000a900473ffffffffffffffffffffffffffffffffffffffff1690506000600360008373ffffffffffffffffffffffffffffffffffffffff1673ffffffffffffffffffffffffffffffffffffffff1681526020019081526020016000208190555050808061046e90610dd1565b9150506103cd565b50600067ffffffffffffffff81111561049257610491610e1a565b5b6040519080825280602002602001820160405280156104c05781602001602082028036833780820191505090505b50600290805190602001906104d6929190610ac9565b5060007f000000000000000000000000000000000000000000000000000000000000000073ffffffffffffffffffffffffffffffffffffffff164760405161051d90610e7a565b60006040518083038185875af1925050503d806000811461055a576040519150601f19603f3d011682016040523d82523d6000602084013e61055f565b606091505b505090508061056d57600080fd5b50565b6802b5e3af16b188000081565b60005481565b60007f0000000000000000000000000000000000000000000000000000000000000000905090565b6000600460009054906101000a900473ffffffffffffffffffffffffffffffffffffffff16905090565b60015481565b6802b5e3af16b188000061061a600460009054906101000a900473ffffffffffffffffffffffffffffffffffffffff16346109ed90919063ffffffff16565b101561065b576040517f08c379a000000000000000000000000000000000000000000000000000000000815260040161065290610eec565b60405180910390fd5b34600360003373ffffffffffffffffffffffffffffffffffffffff1673ffffffffffffffffffffffffffffffffffffffff16815260200190815260200160002060008282546106aa9190610f0c565b925050819055506002339080600181540180825580915050600190039060005260206000200160009091909190916101000a81548173ffffffffffffffffffffffffffffffffffffffff021916908373ffffffffffffffffffffffffffffffffffffffff160217905550565b7f000000000000000000000000000000000000000000000000000000000000000073ffffffffffffffffffffffffffffffffffffffff163373ffffffffffffffffffffffffffffffffffffffff161461079b576040517f579610db00000000000000000000000000000000000000000000000000000000815260040160405180910390fd5b6000600280548060200260200160405190810160405280929190818152602001828054801561081f57602002820191906000526020600020905b8160009054906101000a900473ffffffffffffffffffffffffffffffffffffffff1673ffffffffffffffffffffffffffffffffffffffff16815260200190600101908083116107d5575b5050505050905060005b81518110156108aa57600082828151811061084757610846610d73565b5b602002602001015190506000600360008373ffffffffffffffffffffffffffffffffffffffff1673ffffffffffffffffffffffffffffffffffffffff168152602001908152602001600020819055505080806108a290610dd1565b915050610829565b50600067ffffffffffffffff8111156108c6576108c5610e1a565b5b6040519080825280602002602001820160405280156108f45781602001602082028036833780820191505090505b506002908051906020019061090a929190610ac9565b5060007f000000000000000000000000000000000000000000000000000000000000000073ffffffffffffffffffffffffffffffffffffffff164760405161095190610e7a565b60006040518083038185875af1925050503d806000811461098e576040519150601f19603f3d011682016040523d82523d6000602084013e610993565b606091505b50509050806109a157600080fd5b5050565b6000600282815481106109bb576109ba610d73565b5b9060005260206000200160009054906101000a900473ffffffffffffffffffffffffffffffffffffffff169050919050565b6000806109f983610a29565b90506000670de0b6b3a76400008583610a129190610f62565b610a1c9190610feb565b9050809250505092915050565b6000808273ffffffffffffffffffffffffffffffffffffffff1663feaf968c6040518163ffffffff1660e01b815260040160a06040518083038186803b158015610a7257600080fd5b505afa158015610a86573d6000803e3d6000fd5b505050506040513d601f19601f82011682018060405250810190610aaa9190611094565b5050509150506402540be40081610ac1919061110f565b915050919050565b828054828255906000526020600020908101928215610b42579160200282015b82811115610b415782518260006101000a81548173ffffffffffffffffffffffffffffffffffffffff021916908373ffffffffffffffffffffffffffffffffffffffff16021790555091602001919060010190610ae9565b5b509050610b4f9190610b53565b5090565b5b80821115610b6c576000816000905550600101610b54565b5090565b600080fd5b600073ffffffffffffffffffffffffffffffffffffffff82169050919050565b6000610ba082610b75565b9050919050565b610bb081610b95565b8114610bbb57600080fd5b50565b600081359050610bcd81610ba7565b92915050565b600060208284031215610be957610be8610b70565b5b6000610bf784828501610bbe565b91505092915050565b6000819050919050565b610c1381610c00565b82525050565b6000602082019050610c2e6000830184610c0a565b92915050565b610c3d81610b95565b82525050565b6000602082019050610c586000830184610c34565b92915050565b6000819050919050565b6000610c83610c7e610c7984610b75565b610c5e565b610b75565b9050919050565b6000610c9582610c68565b9050919050565b6000610ca782610c8a565b9050919050565b610cb781610c9c565b82525050565b6000602082019050610cd26000830184610cae565b92915050565b610ce181610c00565b8114610cec57600080fd5b50565b600081359050610cfe81610cd8565b92915050565b600060208284031215610d1a57610d19610b70565b5b6000610d2884828501610cef565b91505092915050565b600081519050610d4081610cd8565b92915050565b600060208284031215610d5c57610d5b610b70565b5b6000610d6a84828501610d31565b91505092915050565b7f4e487b7100000000000000000000000000000000000000000000000000000000600052603260045260246000fd5b7f4e487b7100000000000000000000000000000000000000000000000000000000600052601160045260246000fd5b6000610ddc82610c00565b91507fffffffffffffffffffffffffffffffffffffffffffffffffffffffffffffffff821415610e0f57610e0e610da2565b5b600182019050919050565b7f4e487b7100000000000000000000000000000000000000000000000000000000600052604160045260246000fd5b600081905092915050565b50565b6000610e64600083610e49565b9150610e6f82610e54565b600082019050919050565b6000610e8582610e57565b9150819050919050565b600082825260208201905092915050565b7f596f75206e65656420746f207370656e64206d6f726520455448210000000000600082015250565b6000610ed6601b83610e8f565b9150610ee182610ea0565b602082019050919050565b60006020820190508181036000830152610f0581610ec9565b9050919050565b6000610f1782610c00565b9150610f2283610c00565b9250827fffffffffffffffffffffffffffffffffffffffffffffffffffffffffffffffff03821115610f5757610f56610da2565b5b828201905092915050565b6000610f6d82610c00565b9150610f7883610c00565b9250817fffffffffffffffffffffffffffffffffffffffffffffffffffffffffffffffff0483118215151615610fb157610fb0610da2565b5b828202905092915050565b7f4e487b7100000000000000000000000000000000000000000000000000000000600052601260045260246000fd5b6000610ff682610c00565b915061100183610c00565b92508261101157611010610fbc565b5b828204905092915050565b600069ffffffffffffffffffff82169050919050565b61103b8161101c565b811461104657600080fd5b50565b60008151905061105881611032565b92915050565b6000819050919050565b6110718161105e565b811461107c57600080fd5b50565b60008151905061108e81611068565b92915050565b600080600080600060a086880312156110b0576110af610b70565b5b60006110be88828901611049565b95505060206110cf8882890161107f565b94505060406110e088828901610d31565b93505060606110f188828901610d31565b925050608061110288828901611049565b9150509295509295909350565b600061111a8261105e565b91506111258361105e565b9250827f7fffffffffffffffffffffffffffffffffffffffffffffffffffffffffffffff048211600084136000841316161561116457611163610da2565b5b817f800000000000000000000000000000000000000000000000000000000000000005831260008412600084131616156111a1576111a0610da2565b5b827f800000000000000000000000000000000000000000000000000000000000000005821260008413600084121616156111de576111dd610da2565b5b827f7fffffffffffffffffffffffffffffffffffffffffffffffffffffffffffffff058212600084126000841216161561121b5761121a610da2565b5b82820290509291505056fea2646970667358221220589bfed8070d4ebf54a98fae254dfccaf0c4ffc6364247adf48bb237bf89400864736f6c63430008090033",
  "devdoc": {
    "author": "Patrick Collins",
    "details": "This implements price feeds as our library",
    "kind": "dev",
    "methods": {
      "getAddressToAmountFunded(address)": {
        "params": {
          "fundingAddress": "the address of the funder"
        },
        "returns": {
          "_0": "the amount funded"
        }
      }
    },
    "title": "A sample Funding Contract",
    "version": 1
  },
  "userdoc": {
    "kind": "user",
    "methods": {
      "fund()": {
        "notice": "Funds our contract based on the ETH/USD price"
      },
      "getAddressToAmountFunded(address)": {
        "notice": "Gets the amount that an address has funded"
      }
    },
    "notice": "This contract is for creating a sample funding contract",
    "version": 1
  },
  "storageLayout": {
    "storage": [
      {
        "astId": 58,
        "contract": "contracts/FundMe.sol:FundMe",
        "label": "tester",
        "offset": 0,
        "slot": "0",
        "type": "t_uint256"
      },
      {
        "astId": 61,
        "contract": "contracts/FundMe.sol:FundMe",
        "label": "teste2",
        "offset": 0,
        "slot": "1",
        "type": "t_uint256"
      },
      {
        "astId": 73,
        "contract": "contracts/FundMe.sol:FundMe",
        "label": "s_funders",
        "offset": 0,
        "slot": "2",
        "type": "t_array(t_address)dyn_storage"
      },
      {
        "astId": 77,
        "contract": "contracts/FundMe.sol:FundMe",
        "label": "s_addressToAmountFunded",
        "offset": 0,
        "slot": "3",
        "type": "t_mapping(t_address,t_uint256)"
      },
      {
        "astId": 80,
        "contract": "contracts/FundMe.sol:FundMe",
        "label": "s_priceFeed",
        "offset": 0,
        "slot": "4",
        "type": "t_contract(AggregatorV3Interface)45"
      }
    ],
    "types": {
      "t_address": {
        "encoding": "inplace",
        "label": "address",
        "numberOfBytes": "20"
      },
      "t_array(t_address)dyn_storage": {
        "base": "t_address",
        "encoding": "dynamic_array",
        "label": "address[]",
        "numberOfBytes": "32"
      },
      "t_contract(AggregatorV3Interface)45": {
        "encoding": "inplace",
        "label": "contract AggregatorV3Interface",
        "numberOfBytes": "20"
      },
      "t_mapping(t_address,t_uint256)": {
        "encoding": "mapping",
        "key": "t_address",
        "label": "mapping(address => uint256)",
        "numberOfBytes": "32",
        "value": "t_uint256"
      },
      "t_uint256": {
        "encoding": "inplace",
        "label": "uint256",
        "numberOfBytes": "32"
      }
    }
  }
}