{
  "address": "0x4EC1E8Fc560d995164DC8e3C9FEAB88e1Fd41CE1",
  "abi": [
    {
      "inputs": [
        {
          "internalType": "string",
          "name": "mintSourceCode",
          "type": "string"
        },
        {
          "internalType": "uint64",
          "name": "subId",
          "type": "uint64"
        },
        {
          "internalType": "address",
          "name": "SEPOLIA_FUNCTIONS_ROUTER",
          "type": "address"
        },
        {
          "internalType": "address",
          "name": "SEPOLIA_TSLA_PRICE_FEED",
          "type": "address"
        },
        {
          "internalType": "address",
          "name": "SEPOLIA_USDC_PRICE_FEED",
          "type": "address"
        },
        {
          "internalType": "address",
          "name": "SEPOLIA_USDC",
          "type": "address"
        },
        {
          "internalType": "bytes32",
          "name": "DON_ID",
          "type": "bytes32"
        },
        {
          "internalType": "uint64",
          "name": "_secretVersion",
          "type": "uint64"
        },
        {
          "internalType": "uint8",
          "name": "_secretSlot",
          "type": "uint8"
        }
      ],
      "stateMutability": "nonpayable",
      "type": "constructor"
    },
    {
      "inputs": [
        {
          "internalType": "address",
          "name": "spender",
          "type": "address"
        },
        {
          "internalType": "uint256",
          "name": "allowance",
          "type": "uint256"
        },
        {
          "internalType": "uint256",
          "name": "needed",
          "type": "uint256"
        }
      ],
      "name": "ERC20InsufficientAllowance",
      "type": "error"
    },
    {
      "inputs": [
        {
          "internalType": "address",
          "name": "sender",
          "type": "address"
        },
        {
          "internalType": "uint256",
          "name": "balance",
          "type": "uint256"
        },
        {
          "internalType": "uint256",
          "name": "needed",
          "type": "uint256"
        }
      ],
      "name": "ERC20InsufficientBalance",
      "type": "error"
    },
    {
      "inputs": [
        {
          "internalType": "address",
          "name": "approver",
          "type": "address"
        }
      ],
      "name": "ERC20InvalidApprover",
      "type": "error"
    },
    {
      "inputs": [
        {
          "internalType": "address",
          "name": "receiver",
          "type": "address"
        }
      ],
      "name": "ERC20InvalidReceiver",
      "type": "error"
    },
    {
      "inputs": [
        {
          "internalType": "address",
          "name": "sender",
          "type": "address"
        }
      ],
      "name": "ERC20InvalidSender",
      "type": "error"
    },
    {
      "inputs": [
        {
          "internalType": "address",
          "name": "spender",
          "type": "address"
        }
      ],
      "name": "ERC20InvalidSpender",
      "type": "error"
    },
    {
      "inputs": [],
      "name": "EmptyArgs",
      "type": "error"
    },
    {
      "inputs": [],
      "name": "EmptySource",
      "type": "error"
    },
    {
      "inputs": [],
      "name": "NoInlineSecrets",
      "type": "error"
    },
    {
      "inputs": [],
      "name": "OnlyRouterCanFulfill",
      "type": "error"
    },
    {
      "inputs": [],
      "name": "dTESLA__NotEnoughCollateral",
      "type": "error"
    },
    {
      "inputs": [],
      "name": "dTSLA__DoesntMeetMinimumWithdrawAmount",
      "type": "error"
    },
    {
      "inputs": [],
      "name": "sTESLA_transferFailed",
      "type": "error"
    },
    {
      "anonymous": false,
      "inputs": [
        {
          "indexed": true,
          "internalType": "address",
          "name": "owner",
          "type": "address"
        },
        {
          "indexed": true,
          "internalType": "address",
          "name": "spender",
          "type": "address"
        },
        {
          "indexed": false,
          "internalType": "uint256",
          "name": "value",
          "type": "uint256"
        }
      ],
      "name": "Approval",
      "type": "event"
    },
    {
      "anonymous": false,
      "inputs": [
        {
          "indexed": true,
          "internalType": "address",
          "name": "from",
          "type": "address"
        },
        {
          "indexed": true,
          "internalType": "address",
          "name": "to",
          "type": "address"
        }
      ],
      "name": "OwnershipTransferRequested",
      "type": "event"
    },
    {
      "anonymous": false,
      "inputs": [
        {
          "indexed": true,
          "internalType": "address",
          "name": "from",
          "type": "address"
        },
        {
          "indexed": true,
          "internalType": "address",
          "name": "to",
          "type": "address"
        }
      ],
      "name": "OwnershipTransferred",
      "type": "event"
    },
    {
      "anonymous": false,
      "inputs": [
        {
          "indexed": true,
          "internalType": "bytes32",
          "name": "id",
          "type": "bytes32"
        }
      ],
      "name": "RequestFulfilled",
      "type": "event"
    },
    {
      "anonymous": false,
      "inputs": [
        {
          "indexed": true,
          "internalType": "bytes32",
          "name": "id",
          "type": "bytes32"
        }
      ],
      "name": "RequestSent",
      "type": "event"
    },
    {
      "anonymous": false,
      "inputs": [
        {
          "indexed": true,
          "internalType": "address",
          "name": "from",
          "type": "address"
        },
        {
          "indexed": true,
          "internalType": "address",
          "name": "to",
          "type": "address"
        },
        {
          "indexed": false,
          "internalType": "uint256",
          "name": "value",
          "type": "uint256"
        }
      ],
      "name": "Transfer",
      "type": "event"
    },
    {
      "inputs": [],
      "name": "acceptOwnership",
      "outputs": [],
      "stateMutability": "nonpayable",
      "type": "function"
    },
    {
      "inputs": [
        {
          "internalType": "address",
          "name": "owner",
          "type": "address"
        },
        {
          "internalType": "address",
          "name": "spender",
          "type": "address"
        }
      ],
      "name": "allowance",
      "outputs": [
        {
          "internalType": "uint256",
          "name": "",
          "type": "uint256"
        }
      ],
      "stateMutability": "view",
      "type": "function"
    },
    {
      "inputs": [
        {
          "internalType": "address",
          "name": "spender",
          "type": "address"
        },
        {
          "internalType": "uint256",
          "name": "value",
          "type": "uint256"
        }
      ],
      "name": "approve",
      "outputs": [
        {
          "internalType": "bool",
          "name": "",
          "type": "bool"
        }
      ],
      "stateMutability": "nonpayable",
      "type": "function"
    },
    {
      "inputs": [
        {
          "internalType": "address",
          "name": "account",
          "type": "address"
        }
      ],
      "name": "balanceOf",
      "outputs": [
        {
          "internalType": "uint256",
          "name": "",
          "type": "uint256"
        }
      ],
      "stateMutability": "view",
      "type": "function"
    },
    {
      "inputs": [
        {
          "internalType": "uint64",
          "name": "_secretVersion",
          "type": "uint64"
        },
        {
          "internalType": "uint8",
          "name": "_secretSlot",
          "type": "uint8"
        }
      ],
      "name": "changeSlotAndVersionDon",
      "outputs": [],
      "stateMutability": "nonpayable",
      "type": "function"
    },
    {
      "inputs": [],
      "name": "decimals",
      "outputs": [
        {
          "internalType": "uint8",
          "name": "",
          "type": "uint8"
        }
      ],
      "stateMutability": "view",
      "type": "function"
    },
    {
      "inputs": [
        {
          "internalType": "bytes32",
          "name": "requestId",
          "type": "bytes32"
        }
      ],
      "name": "getRequest",
      "outputs": [
        {
          "components": [
            {
              "internalType": "uint256",
              "name": "amountOfToken",
              "type": "uint256"
            },
            {
              "internalType": "address",
              "name": "requester",
              "type": "address"
            },
            {
              "internalType": "enum dTESLA.MintOrRedeem",
              "name": "mintOrRedeem",
              "type": "uint8"
            }
          ],
          "internalType": "struct dTESLA.dTeslaRequest",
          "name": "",
          "type": "tuple"
        }
      ],
      "stateMutability": "view",
      "type": "function"
    },
    {
      "inputs": [],
      "name": "getTslaPrice",
      "outputs": [
        {
          "internalType": "uint256",
          "name": "",
          "type": "uint256"
        }
      ],
      "stateMutability": "view",
      "type": "function"
    },
    {
      "inputs": [],
      "name": "getUsdcPrice",
      "outputs": [
        {
          "internalType": "uint256",
          "name": "",
          "type": "uint256"
        }
      ],
      "stateMutability": "view",
      "type": "function"
    },
    {
      "inputs": [
        {
          "internalType": "uint256",
          "name": "usdAmount",
          "type": "uint256"
        }
      ],
      "name": "getUsdcValueOfUsd",
      "outputs": [
        {
          "internalType": "uint256",
          "name": "",
          "type": "uint256"
        }
      ],
      "stateMutability": "view",
      "type": "function"
    },
    {
      "inputs": [
        {
          "internalType": "address",
          "name": "user",
          "type": "address"
        }
      ],
      "name": "getWithdrawalAmount",
      "outputs": [
        {
          "internalType": "uint256",
          "name": "",
          "type": "uint256"
        }
      ],
      "stateMutability": "view",
      "type": "function"
    },
    {
      "inputs": [
        {
          "internalType": "uint256",
          "name": "tlsaAmount",
          "type": "uint256"
        }
      ],
      "name": "getusdValueOfTsla",
      "outputs": [
        {
          "internalType": "uint256",
          "name": "",
          "type": "uint256"
        }
      ],
      "stateMutability": "view",
      "type": "function"
    },
    {
      "inputs": [
        {
          "internalType": "bytes32",
          "name": "requestId",
          "type": "bytes32"
        },
        {
          "internalType": "bytes",
          "name": "response",
          "type": "bytes"
        },
        {
          "internalType": "bytes",
          "name": "err",
          "type": "bytes"
        }
      ],
      "name": "handleOracleFulfillment",
      "outputs": [],
      "stateMutability": "nonpayable",
      "type": "function"
    },
    {
      "inputs": [],
      "name": "i_DON_ID",
      "outputs": [
        {
          "internalType": "bytes32",
          "name": "",
          "type": "bytes32"
        }
      ],
      "stateMutability": "view",
      "type": "function"
    },
    {
      "inputs": [],
      "name": "i_SEPOLIA_FUNCTIONS_ROUTER",
      "outputs": [
        {
          "internalType": "address",
          "name": "",
          "type": "address"
        }
      ],
      "stateMutability": "view",
      "type": "function"
    },
    {
      "inputs": [],
      "name": "i_SEPOLIA_TSLA_PRICE_FEED",
      "outputs": [
        {
          "internalType": "address",
          "name": "",
          "type": "address"
        }
      ],
      "stateMutability": "view",
      "type": "function"
    },
    {
      "inputs": [],
      "name": "i_SEPOLIA_USDC",
      "outputs": [
        {
          "internalType": "address",
          "name": "",
          "type": "address"
        }
      ],
      "stateMutability": "view",
      "type": "function"
    },
    {
      "inputs": [],
      "name": "i_SEPOLIA_USDC_PRICE_FEED",
      "outputs": [
        {
          "internalType": "address",
          "name": "",
          "type": "address"
        }
      ],
      "stateMutability": "view",
      "type": "function"
    },
    {
      "inputs": [],
      "name": "name",
      "outputs": [
        {
          "internalType": "string",
          "name": "",
          "type": "string"
        }
      ],
      "stateMutability": "view",
      "type": "function"
    },
    {
      "inputs": [],
      "name": "owner",
      "outputs": [
        {
          "internalType": "address",
          "name": "",
          "type": "address"
        }
      ],
      "stateMutability": "view",
      "type": "function"
    },
    {
      "inputs": [],
      "name": "s_mintSourceCode",
      "outputs": [
        {
          "internalType": "string",
          "name": "",
          "type": "string"
        }
      ],
      "stateMutability": "view",
      "type": "function"
    },
    {
      "inputs": [],
      "name": "s_redeemSourceCode",
      "outputs": [
        {
          "internalType": "string",
          "name": "",
          "type": "string"
        }
      ],
      "stateMutability": "view",
      "type": "function"
    },
    {
      "inputs": [
        {
          "internalType": "bytes32",
          "name": "requestId",
          "type": "bytes32"
        }
      ],
      "name": "s_requestIdToRequest",
      "outputs": [
        {
          "internalType": "uint256",
          "name": "amountOfToken",
          "type": "uint256"
        },
        {
          "internalType": "address",
          "name": "requester",
          "type": "address"
        },
        {
          "internalType": "enum dTESLA.MintOrRedeem",
          "name": "mintOrRedeem",
          "type": "uint8"
        }
      ],
      "stateMutability": "view",
      "type": "function"
    },
    {
      "inputs": [
        {
          "internalType": "address",
          "name": "user",
          "type": "address"
        }
      ],
      "name": "s_userToWithdrawAmount",
      "outputs": [
        {
          "internalType": "uint256",
          "name": "pendingWithdrawAmount",
          "type": "uint256"
        }
      ],
      "stateMutability": "view",
      "type": "function"
    },
    {
      "inputs": [],
      "name": "secretSlot",
      "outputs": [
        {
          "internalType": "uint8",
          "name": "",
          "type": "uint8"
        }
      ],
      "stateMutability": "view",
      "type": "function"
    },
    {
      "inputs": [],
      "name": "secretVersion",
      "outputs": [
        {
          "internalType": "uint64",
          "name": "",
          "type": "uint64"
        }
      ],
      "stateMutability": "view",
      "type": "function"
    },
    {
      "inputs": [
        {
          "internalType": "uint256",
          "name": "amount",
          "type": "uint256"
        }
      ],
      "name": "sendMintRequest",
      "outputs": [
        {
          "internalType": "bytes32",
          "name": "",
          "type": "bytes32"
        }
      ],
      "stateMutability": "nonpayable",
      "type": "function"
    },
    {
      "inputs": [
        {
          "internalType": "uint256",
          "name": "amountdTesla",
          "type": "uint256"
        }
      ],
      "name": "sendRedeemRequest",
      "outputs": [],
      "stateMutability": "nonpayable",
      "type": "function"
    },
    {
      "inputs": [
        {
          "internalType": "string",
          "name": "redeemSourceCode",
          "type": "string"
        }
      ],
      "name": "setRedeemCode",
      "outputs": [],
      "stateMutability": "nonpayable",
      "type": "function"
    },
    {
      "inputs": [],
      "name": "symbol",
      "outputs": [
        {
          "internalType": "string",
          "name": "",
          "type": "string"
        }
      ],
      "stateMutability": "view",
      "type": "function"
    },
    {
      "inputs": [],
      "name": "test",
      "outputs": [
        {
          "internalType": "uint256",
          "name": "",
          "type": "uint256"
        }
      ],
      "stateMutability": "view",
      "type": "function"
    },
    {
      "inputs": [
        {
          "internalType": "bool",
          "name": "testBoolValue",
          "type": "bool"
        }
      ],
      "name": "testBool",
      "outputs": [],
      "stateMutability": "nonpayable",
      "type": "function"
    },
    {
      "inputs": [],
      "name": "testing",
      "outputs": [
        {
          "internalType": "bool",
          "name": "",
          "type": "bool"
        }
      ],
      "stateMutability": "view",
      "type": "function"
    },
    {
      "inputs": [],
      "name": "totalSupply",
      "outputs": [
        {
          "internalType": "uint256",
          "name": "",
          "type": "uint256"
        }
      ],
      "stateMutability": "view",
      "type": "function"
    },
    {
      "inputs": [
        {
          "internalType": "address",
          "name": "to",
          "type": "address"
        },
        {
          "internalType": "uint256",
          "name": "value",
          "type": "uint256"
        }
      ],
      "name": "transfer",
      "outputs": [
        {
          "internalType": "bool",
          "name": "",
          "type": "bool"
        }
      ],
      "stateMutability": "nonpayable",
      "type": "function"
    },
    {
      "inputs": [
        {
          "internalType": "address",
          "name": "from",
          "type": "address"
        },
        {
          "internalType": "address",
          "name": "to",
          "type": "address"
        },
        {
          "internalType": "uint256",
          "name": "value",
          "type": "uint256"
        }
      ],
      "name": "transferFrom",
      "outputs": [
        {
          "internalType": "bool",
          "name": "",
          "type": "bool"
        }
      ],
      "stateMutability": "nonpayable",
      "type": "function"
    },
    {
      "inputs": [
        {
          "internalType": "address",
          "name": "to",
          "type": "address"
        }
      ],
      "name": "transferOwnership",
      "outputs": [],
      "stateMutability": "nonpayable",
      "type": "function"
    },
    {
      "inputs": [],
      "name": "withdraw",
      "outputs": [],
      "stateMutability": "nonpayable",
      "type": "function"
    }
  ],
  "transactionHash": "0xbe7124177ad7593a48ddd12d1030468a331f05eddab82a07ff1eca9fedc2b819",
  "args": [
    "if (secrets.alpacaKey == \"\" || secrets.alpacaSecret == \"\") {\n    throw Error(\"Need Apalaca Keys\")\n}\n\nconsole.log(\"SECRETS\", secrets.alpacaKey)\n\nconst alpacaRequest = Functions.makeHttpRequest({\n    url: \"https://paper-api.alpaca.markets/v2/account\",\n    headers: {\n        accept: \"application/json\",\n        \"APCA-API-KEY-ID\": secrets.alpacaKey,\n        \"APCA-API-SECRET-KEY\": secrets.alpacaSecret,\n    },\n})\n\nconst [response] = await Promise.all([alpacaRequest])\n\nconst portfolioBalance = response.data.equity\n\nconsole.log(\"Alpaca equity: \", portfolioBalance)\n\nreturn Functions.encodeUint256(Math.round(portfolioBalance))\n",
    "3179",
    "0xf9B8fc078197181C841c296C876945aaa425B278",
    "0xb113F5A928BCfF189C998ab20d753a47F9dE5A61",
    "0xd30e2101a97dcbAeBCBC04F14C3f624E67A35165",
    "0x5fd84259d66Cd46123540766Be93DFE6D43130D7",
    {
      "0": 102,
      "1": 117,
      "2": 110,
      "3": 45,
      "4": 98,
      "5": 97,
      "6": 115,
      "7": 101,
      "8": 45,
      "9": 115,
      "10": 101,
      "11": 112,
      "12": 111,
      "13": 108,
      "14": 105,
      "15": 97,
      "16": 45,
      "17": 49,
      "18": 0,
      "19": 0,
      "20": 0,
      "21": 0,
      "22": 0,
      "23": 0,
      "24": 0,
      "25": 0,
      "26": 0,
      "27": 0,
      "28": 0,
      "29": 0,
      "30": 0,
      "31": 0
    },
    1720728655,
    0
  ],
  "numDeployments": 12,
  "solcInputHash": "4b83118d55ebb4617b98b7444124775a",
  "bytecode": "0x6101606040526001600760006101000a81548160ff0219169083151502179055506003600855670de0b6b3a76400006009556402540be400600a5534801561004657600080fd5b506040516153963803806153968339818101604052810190610068919061072c565b6040518060400160405280600581526020017f6454534c410000000000000000000000000000000000000000000000000000008152506040518060400160405280600581526020017f6454534c4100000000000000000000000000000000000000000000000000000081525088338060008073ffffffffffffffffffffffffffffffffffffffff168273ffffffffffffffffffffffffffffffffffffffff1603610147576040517f08c379a000000000000000000000000000000000000000000000000000000000815260040161013e9061086f565b60405180910390fd5b816000806101000a81548173ffffffffffffffffffffffffffffffffffffffff021916908373ffffffffffffffffffffffffffffffffffffffff160217905550600073ffffffffffffffffffffffffffffffffffffffff168173ffffffffffffffffffffffffffffffffffffffff16146101cb576101ca8161037e60201b60201c565b5b5050508073ffffffffffffffffffffffffffffffffffffffff1660808173ffffffffffffffffffffffffffffffffffffffff16815250505081600590816102129190610ab0565b5080600690816102229190610ab0565b50505088600b90816102349190610ab0565b508767ffffffffffffffff166101408167ffffffffffffffff16815250508673ffffffffffffffffffffffffffffffffffffffff1660a08173ffffffffffffffffffffffffffffffffffffffff16815250508573ffffffffffffffffffffffffffffffffffffffff1660c08173ffffffffffffffffffffffffffffffffffffffff16815250508473ffffffffffffffffffffffffffffffffffffffff1660e08173ffffffffffffffffffffffffffffffffffffffff16815250508373ffffffffffffffffffffffffffffffffffffffff166101008173ffffffffffffffffffffffffffffffffffffffff168152505082610120818152505081600d60006101000a81548167ffffffffffffffff021916908367ffffffffffffffff16021790555080600d60086101000a81548160ff021916908360ff160217905550505050505050505050610bee565b3373ffffffffffffffffffffffffffffffffffffffff168173ffffffffffffffffffffffffffffffffffffffff16036103ec576040517f08c379a00000000000000000000000000000000000000000000000000000000081526004016103e390610bce565b60405180910390fd5b80600160006101000a81548173ffffffffffffffffffffffffffffffffffffffff021916908373ffffffffffffffffffffffffffffffffffffffff1602179055508073ffffffffffffffffffffffffffffffffffffffff1660008054906101000a900473ffffffffffffffffffffffffffffffffffffffff1673ffffffffffffffffffffffffffffffffffffffff167fed8889f560326eb138920d842192f0eb3dd22b4f139c87a2c57538e05bae127860405160405180910390a350565b6000604051905090565b600080fd5b600080fd5b600080fd5b600080fd5b6000601f19601f8301169050919050565b7f4e487b7100000000000000000000000000000000000000000000000000000000600052604160045260246000fd5b610511826104c8565b810181811067ffffffffffffffff821117156105305761052f6104d9565b5b80604052505050565b60006105436104aa565b905061054f8282610508565b919050565b600067ffffffffffffffff82111561056f5761056e6104d9565b5b610578826104c8565b9050602081019050919050565b60005b838110156105a3578082015181840152602081019050610588565b60008484015250505050565b60006105c26105bd84610554565b610539565b9050828152602081018484840111156105de576105dd6104c3565b5b6105e9848285610585565b509392505050565b600082601f830112610606576106056104be565b5b81516106168482602086016105af565b91505092915050565b600067ffffffffffffffff82169050919050565b61063c8161061f565b811461064757600080fd5b50565b60008151905061065981610633565b92915050565b600073ffffffffffffffffffffffffffffffffffffffff82169050919050565b600061068a8261065f565b9050919050565b61069a8161067f565b81146106a557600080fd5b50565b6000815190506106b781610691565b92915050565b6000819050919050565b6106d0816106bd565b81146106db57600080fd5b50565b6000815190506106ed816106c7565b92915050565b600060ff82169050919050565b610709816106f3565b811461071457600080fd5b50565b60008151905061072681610700565b92915050565b60008060008060008060008060006101208a8c03121561074f5761074e6104b4565b5b60008a015167ffffffffffffffff81111561076d5761076c6104b9565b5b6107798c828d016105f1565b995050602061078a8c828d0161064a565b985050604061079b8c828d016106a8565b97505060606107ac8c828d016106a8565b96505060806107bd8c828d016106a8565b95505060a06107ce8c828d016106a8565b94505060c06107df8c828d016106de565b93505060e06107f08c828d0161064a565b9250506101006108028c828d01610717565b9150509295985092959850929598565b600082825260208201905092915050565b7f43616e6e6f7420736574206f776e657220746f207a65726f0000000000000000600082015250565b6000610859601883610812565b915061086482610823565b602082019050919050565b600060208201905081810360008301526108888161084c565b9050919050565b600081519050919050565b7f4e487b7100000000000000000000000000000000000000000000000000000000600052602260045260246000fd5b600060028204905060018216806108e157607f821691505b6020821081036108f4576108f361089a565b5b50919050565b60008190508160005260206000209050919050565b60006020601f8301049050919050565b600082821b905092915050565b60006008830261095c7fffffffffffffffffffffffffffffffffffffffffffffffffffffffffffffffff8261091f565b610966868361091f565b95508019841693508086168417925050509392505050565b6000819050919050565b6000819050919050565b60006109ad6109a86109a38461097e565b610988565b61097e565b9050919050565b6000819050919050565b6109c783610992565b6109db6109d3826109b4565b84845461092c565b825550505050565b600090565b6109f06109e3565b6109fb8184846109be565b505050565b5b81811015610a1f57610a146000826109e8565b600181019050610a01565b5050565b601f821115610a6457610a35816108fa565b610a3e8461090f565b81016020851015610a4d578190505b610a61610a598561090f565b830182610a00565b50505b505050565b600082821c905092915050565b6000610a8760001984600802610a69565b1980831691505092915050565b6000610aa08383610a76565b9150826002028217905092915050565b610ab98261088f565b67ffffffffffffffff811115610ad257610ad16104d9565b5b610adc82546108c9565b610ae7828285610a23565b600060209050601f831160018114610b1a5760008415610b08578287015190505b610b128582610a94565b865550610b7a565b601f198416610b28866108fa565b60005b82811015610b5057848901518255600182019150602085019450602081019050610b2b565b86831015610b6d5784890151610b69601f891682610a76565b8355505b6001600288020188555050505b505050505050565b7f43616e6e6f74207472616e7366657220746f2073656c66000000000000000000600082015250565b6000610bb8601783610812565b9150610bc382610b82565b602082019050919050565b60006020820190508181036000830152610be781610bab565b9050919050565b60805160a05160c05160e05161010051610120516101405161471d610c7960003960008181610ef001526113a5015260008181610a2f01528181610f1501526113ca0152600081816109d30152610ade015260008181610c180152610d1001526000818161090001526116730152600061178b0152600081816108080152612094015261471d6000f3fe608060405234801561001057600080fd5b50600436106102325760003560e01c806379ba509711610130578063c97c77de116100b8578063ec1830521161007c578063ec18305214610699578063f2fde38b146106b7578063f8a8fd6d146106d3578063fb1e61ca146106f1578063feb1ff1b1461072157610232565b8063c97c77de146105e3578063cdc5ca7f14610613578063dd62ed3e14610631578063e8dde23214610661578063ebcaaa4c1461067d57610232565b8063a9059cbb116100ff578063a9059cbb14610515578063ab13416114610545578063ae5fc35a14610575578063b65681a214610593578063c7a2533b146105b157610232565b806379ba5097146104b15780638d03b102146104bb5780638da5cb5b146104d957806395d89b41146104f757610232565b806323b872dd116101be57806356582bf91161018257806356582bf9146103f957806360c426881461042957806370a0823114610447578063747fbb1e1461047757806378213aca1461049557610232565b806323b872dd14610365578063313ce5671461039557806337d1f3af146103b35780633ccfd60b146103d157806352b1033b146103db57610232565b8063115826731161020557806311582673146102bd57806311edc06e146102ed57806318160ddd1461030b5780631a20d9eb1461032957806320d464811461034757610232565b806306fdde0314610237578063095ea7b3146102555780630ca76175146102855780630f50cec3146102a1575b600080fd5b61023f610751565b60405161024c91906133f5565b60405180910390f35b61026f600480360381019061026a91906134bf565b6107e3565b60405161027c919061351a565b60405180910390f35b61029f600480360381019061029a91906136a0565b610806565b005b6102bb60048036038101906102b691906137cc565b6108c8565b005b6102d760048036038101906102d29190613815565b6108e3565b6040516102e49190613851565b60405180910390f35b6102f56108fb565b6040516103029190613851565b60405180910390f35b6103136109ad565b6040516103209190613851565b60405180910390f35b6103316109b7565b60405161033e919061388f565b60405180910390f35b61034f6109d1565b60405161035c91906138b9565b60405180910390f35b61037f600480360381019061037a91906138d4565b6109f5565b60405161038c919061351a565b60405180910390f35b61039d610a24565b6040516103aa9190613943565b60405180910390f35b6103bb610a2d565b6040516103c8919061396d565b60405180910390f35b6103d9610a51565b005b6103e3610bb7565b6040516103f09190613943565b60405180910390f35b610413600480360381019061040e9190613815565b610bca565b6040516104209190613851565b60405180910390f35b610431610c13565b60405161043e9190613851565b60405180910390f35b610461600480360381019061045c9190613815565b610cc5565b60405161046e9190613851565b60405180910390f35b61047f610d0e565b60405161048c91906138b9565b60405180910390f35b6104af60048036038101906104aa9190613988565b610d32565b005b6104b9611026565b005b6104c36111bb565b6040516104d0919061351a565b60405180910390f35b6104e16111ce565b6040516104ee91906138b9565b60405180910390f35b6104ff6111f7565b60405161050c91906133f5565b60405180910390f35b61052f600480360381019061052a91906134bf565b611289565b60405161053c919061351a565b60405180910390f35b61055f600480360381019061055a9190613988565b6112ac565b60405161056c919061396d565b60405180910390f35b61057d6114d5565b60405161058a91906133f5565b60405180910390f35b61059b611563565b6040516105a891906133f5565b60405180910390f35b6105cb60048036038101906105c691906139b5565b6115f1565b6040516105da93929190613a59565b60405180910390f35b6105fd60048036038101906105f89190613988565b611648565b60405161060a9190613851565b60405180910390f35b61061b611671565b60405161062891906138b9565b60405180910390f35b61064b60048036038101906106469190613a90565b611695565b6040516106589190613851565b60405180910390f35b61067b60048036038101906106769190613afc565b61171c565b005b61069760048036038101906106929190613b81565b611739565b005b6106a1611789565b6040516106ae91906138b9565b60405180910390f35b6106d160048036038101906106cc9190613815565b6117ad565b005b6106db6117c1565b6040516106e89190613851565b60405180910390f35b61070b600480360381019061070691906139b5565b6117c7565b6040516107189190613c30565b60405180910390f35b61073b60048036038101906107369190613988565b61188f565b6040516107489190613851565b60405180910390f35b60606005805461076090613c7a565b80601f016020809104026020016040519081016040528092919081815260200182805461078c90613c7a565b80156107d95780601f106107ae576101008083540402835291602001916107d9565b820191906000526020600020905b8154815290600101906020018083116107bc57829003601f168201915b5050505050905090565b6000806107ee6118b8565b90506107fb8185856118c0565b600191505092915050565b7f000000000000000000000000000000000000000000000000000000000000000073ffffffffffffffffffffffffffffffffffffffff163373ffffffffffffffffffffffffffffffffffffffff161461088b576040517fc6829f8300000000000000000000000000000000000000000000000000000000815260040160405180910390fd5b6108968383836118d2565b827f85e1543bf2f84fe80c6badbce3648c8539ad1df4d2b3d822938ca0538be727e660405160405180910390a2505050565b6108d0611940565b80600c90816108df9190613e57565b5050565b60106020528060005260406000206000915090505481565b6000807f0000000000000000000000000000000000000000000000000000000000000000905060008173ffffffffffffffffffffffffffffffffffffffff1663feaf968c6040518163ffffffff1660e01b815260040160a060405180830381865afa15801561096e573d6000803e3d6000fd5b505050506040513d601f19601f820116820180604052508101906109929190613fb6565b505050915050600a54816109a69190614060565b9250505090565b6000600454905090565b600d60009054906101000a900467ffffffffffffffff1681565b7f000000000000000000000000000000000000000000000000000000000000000081565b600080610a006118b8565b9050610a0d8582856119d0565b610a18858585611a64565b60019150509392505050565b60006012905090565b7f000000000000000000000000000000000000000000000000000000000000000081565b6000601060003373ffffffffffffffffffffffffffffffffffffffff1673ffffffffffffffffffffffffffffffffffffffff1681526020019081526020016000205490506000601060003373ffffffffffffffffffffffffffffffffffffffff1673ffffffffffffffffffffffffffffffffffffffff1681526020019081526020016000208190555060007f000000000000000000000000000000000000000000000000000000000000000073ffffffffffffffffffffffffffffffffffffffff1663a9059cbb33846040518363ffffffff1660e01b8152600401610b379291906140a2565b6020604051808303816000875af1158015610b56573d6000803e3d6000fd5b505050506040513d601f19601f82011682018060405250810190610b7a91906140e0565b905080610bb3576040517fb2d7217e00000000000000000000000000000000000000000000000000000000815260040160405180910390fd5b5050565b600d60089054906101000a900460ff1681565b6000601060008373ffffffffffffffffffffffffffffffffffffffff1673ffffffffffffffffffffffffffffffffffffffff168152602001908152602001600020549050919050565b6000807f0000000000000000000000000000000000000000000000000000000000000000905060008173ffffffffffffffffffffffffffffffffffffffff1663feaf968c6040518163ffffffff1660e01b815260040160a060405180830381865afa158015610c86573d6000803e3d6000fd5b505050506040513d601f19601f82011682018060405250810190610caa9190613fb6565b505050915050600a5481610cbe9190614060565b9250505090565b6000600260008373ffffffffffffffffffffffffffffffffffffffff1673ffffffffffffffffffffffffffffffffffffffff168152602001908152602001600020549050919050565b7f000000000000000000000000000000000000000000000000000000000000000081565b6000610d45610d408361188f565b611648565b90506305f5e100811115610d85576040517f0a5d3ef300000000000000000000000000000000000000000000000000000000815260040160405180910390fd5b610d8d613270565b610e2a600c8054610d9d90613c7a565b80601f0160208091040260200160405190810160405280929190818152602001828054610dc990613c7a565b8015610e165780601f10610deb57610100808354040283529160200191610e16565b820191906000526020600020905b815481529060010190602001808311610df957829003601f168201915b505050505082611b5890919063ffffffff16565b6000600267ffffffffffffffff811115610e4757610e46613575565b5b604051908082528060200260200182016040528015610e7a57816020015b6060815260200190600190039081610e655790505b509050610e8684611b69565b81600081518110610e9a57610e9961410d565b5b6020026020010181905250610eae83611b69565b81600181518110610ec257610ec161410d565b5b6020026020010181905250610ee08183611c3790919063ffffffff16565b6000610f39610eee84611c7f565b7f0000000000000000000000000000000000000000000000000000000000000000620493e07f000000000000000000000000000000000000000000000000000000000000000061208f565b905060405180606001604052808681526020013373ffffffffffffffffffffffffffffffffffffffff168152602001600180811115610f7b57610f7a6139e2565b5b815250600f60008381526020019081526020016000206000820151816000015560208201518160010160006101000a81548173ffffffffffffffffffffffffffffffffffffffff021916908373ffffffffffffffffffffffffffffffffffffffff16021790555060408201518160010160146101000a81548160ff0219169083600181111561100d5761100c6139e2565b5b021790555090505061101f3386612172565b5050505050565b600160009054906101000a900473ffffffffffffffffffffffffffffffffffffffff1673ffffffffffffffffffffffffffffffffffffffff163373ffffffffffffffffffffffffffffffffffffffff16146110b6576040517f08c379a00000000000000000000000000000000000000000000000000000000081526004016110ad90614188565b60405180910390fd5b60008060009054906101000a900473ffffffffffffffffffffffffffffffffffffffff169050336000806101000a81548173ffffffffffffffffffffffffffffffffffffffff021916908373ffffffffffffffffffffffffffffffffffffffff1602179055506000600160006101000a81548173ffffffffffffffffffffffffffffffffffffffff021916908373ffffffffffffffffffffffffffffffffffffffff1602179055503373ffffffffffffffffffffffffffffffffffffffff168173ffffffffffffffffffffffffffffffffffffffff167f8be0079c531659141344cd1fd0a4f28419497f9722a3daafe3b4186f6b6457e060405160405180910390a350565b600760009054906101000a900460ff1681565b60008060009054906101000a900473ffffffffffffffffffffffffffffffffffffffff16905090565b60606006805461120690613c7a565b80601f016020809104026020016040519081016040528092919081815260200182805461123290613c7a565b801561127f5780601f106112545761010080835404028352916020019161127f565b820191906000526020600020905b81548152906001019060200180831161126257829003601f168201915b5050505050905090565b6000806112946118b8565b90506112a1818585611a64565b600191505092915050565b60006112b6611940565b6112be613270565b61135b600b80546112ce90613c7a565b80601f01602080910402602001604051908101604052809291908181526020018280546112fa90613c7a565b80156113475780601f1061131c57610100808354040283529160200191611347565b820191906000526020600020905b81548152906001019060200180831161132a57829003601f168201915b505050505082611b5890919063ffffffff16565b611395600d60089054906101000a900460ff16600d60009054906101000a900467ffffffffffffffff16836121f49092919063ffffffff16565b60006113ee6113a383611c7f565b7f0000000000000000000000000000000000000000000000000000000000000000620493e07f000000000000000000000000000000000000000000000000000000000000000061208f565b905060405180606001604052808581526020013373ffffffffffffffffffffffffffffffffffffffff16815260200160006001811115611431576114306139e2565b5b815250600f60008381526020019081526020016000206000820151816000015560208201518160010160006101000a81548173ffffffffffffffffffffffffffffffffffffffff021916908373ffffffffffffffffffffffffffffffffffffffff16021790555060408201518160010160146101000a81548160ff021916908360018111156114c3576114c26139e2565b5b02179055509050508092505050919050565b600c80546114e290613c7a565b80601f016020809104026020016040519081016040528092919081815260200182805461150e90613c7a565b801561155b5780601f106115305761010080835404028352916020019161155b565b820191906000526020600020905b81548152906001019060200180831161153e57829003601f168201915b505050505081565b600b805461157090613c7a565b80601f016020809104026020016040519081016040528092919081815260200182805461159c90613c7a565b80156115e95780601f106115be576101008083540402835291602001916115e9565b820191906000526020600020905b8154815290600101906020018083116115cc57829003601f168201915b505050505081565b600f6020528060005260406000206000915090508060000154908060010160009054906101000a900473ffffffffffffffffffffffffffffffffffffffff16908060010160149054906101000a900460ff16905083565b6000600954611655610c13565b836116609190614060565b61166a91906141d7565b9050919050565b7f000000000000000000000000000000000000000000000000000000000000000081565b6000600360008473ffffffffffffffffffffffffffffffffffffffff1673ffffffffffffffffffffffffffffffffffffffff16815260200190815260200160002060008373ffffffffffffffffffffffffffffffffffffffff1673ffffffffffffffffffffffffffffffffffffffff16815260200190815260200160002054905092915050565b80600760006101000a81548160ff02191690831515021790555050565b611741611940565b81600d60006101000a81548167ffffffffffffffff021916908367ffffffffffffffff16021790555080600d60086101000a81548160ff021916908360ff1602179055505050565b7f000000000000000000000000000000000000000000000000000000000000000081565b6117b5611940565b6117be81612304565b50565b60085481565b6117cf6132e2565b600f6000838152602001908152602001600020604051806060016040529081600082015481526020016001820160009054906101000a900473ffffffffffffffffffffffffffffffffffffffff1673ffffffffffffffffffffffffffffffffffffffff1673ffffffffffffffffffffffffffffffffffffffff1681526020016001820160149054906101000a900460ff166001811115611872576118716139e2565b5b6001811115611884576118836139e2565b5b815250509050919050565b600060095461189c6108fb565b836118a79190614060565b6118b191906141d7565b9050919050565b600033905090565b6118cd8383836001612430565b505050565b600060018111156118e6576118e56139e2565b5b600f600085815260200190815260200160002060010160149054906101000a900460ff16600181111561191c5761191b6139e2565b5b036119305761192b8383612607565b61193b565b61193a83836126c7565b5b505050565b60008054906101000a900473ffffffffffffffffffffffffffffffffffffffff1673ffffffffffffffffffffffffffffffffffffffff163373ffffffffffffffffffffffffffffffffffffffff16146119ce576040517f08c379a00000000000000000000000000000000000000000000000000000000081526004016119c590614254565b60405180910390fd5b565b60006119dc8484611695565b90507fffffffffffffffffffffffffffffffffffffffffffffffffffffffffffffffff8114611a5e5781811015611a4e578281836040517ffb8f41b2000000000000000000000000000000000000000000000000000000008152600401611a4593929190614274565b60405180910390fd5b611a5d84848484036000612430565b5b50505050565b600073ffffffffffffffffffffffffffffffffffffffff168373ffffffffffffffffffffffffffffffffffffffff1603611ad65760006040517f96c6fd1e000000000000000000000000000000000000000000000000000000008152600401611acd91906138b9565b60405180910390fd5b600073ffffffffffffffffffffffffffffffffffffffff168273ffffffffffffffffffffffffffffffffffffffff1603611b485760006040517fec442f05000000000000000000000000000000000000000000000000000000008152600401611b3f91906138b9565b60405180910390fd5b611b538383836127d4565b505050565b611b6582600080846129fc565b5050565b606060006001611b7884612aa6565b01905060008167ffffffffffffffff811115611b9757611b96613575565b5b6040519080825280601f01601f191660200182016040528015611bc95781602001600182028036833780820191505090505b509050600082602001820190505b600115611c2c578080600190039150507f3031323334353637383961626364656600000000000000000000000000000000600a86061a8153600a8581611c2057611c1f6141a8565b5b04945060008503611bd7575b819350505050919050565b6000815103611c72576040517ffe936cb700000000000000000000000000000000000000000000000000000000815260040160405180910390fd5b808260a001819052505050565b60606000611c8e610100612bf9565b9050611cd86040518060400160405280600c81526020017f636f64654c6f636174696f6e000000000000000000000000000000000000000081525082612c2090919063ffffffff16565b611d0183600001516002811115611cf257611cf16139e2565b5b82612c4990919063ffffffff16565b611d496040518060400160405280600881526020017f6c616e677561676500000000000000000000000000000000000000000000000081525082612c2090919063ffffffff16565b611d7283604001516000811115611d6357611d626139e2565b5b82612c4990919063ffffffff16565b611dba6040518060400160405280600681526020017f736f75726365000000000000000000000000000000000000000000000000000081525082612c2090919063ffffffff16565b611dd1836060015182612c2090919063ffffffff16565b60008360a00151511115611e8757611e276040518060400160405280600481526020017f617267730000000000000000000000000000000000000000000000000000000081525082612c2090919063ffffffff16565b611e3081612c99565b60005b8360a0015151811015611e7c57611e718460a001518281518110611e5a57611e5961410d565b5b602002602001015183612c2090919063ffffffff16565b806001019050611e33565b50611e8681612cc1565b5b60008360800151511115611fc85760006002811115611ea957611ea86139e2565b5b83602001516002811115611ec057611ebf6139e2565b5b03611ef7576040517fa80d31f700000000000000000000000000000000000000000000000000000000815260040160405180910390fd5b611f3f6040518060400160405280600f81526020017f736563726574734c6f636174696f6e000000000000000000000000000000000081525082612c2090919063ffffffff16565b611f6883602001516002811115611f5957611f586139e2565b5b82612c4990919063ffffffff16565b611fb06040518060400160405280600781526020017f736563726574730000000000000000000000000000000000000000000000000081525082612c2090919063ffffffff16565b611fc7836080015182612ce990919063ffffffff16565b5b60008360c0015151111561207e5761201e6040518060400160405280600981526020017f627974657341726773000000000000000000000000000000000000000000000081525082612c2090919063ffffffff16565b61202781612c99565b60005b8360c0015151811015612073576120688460c0015182815181106120515761205061410d565b5b602002602001015183612ce990919063ffffffff16565b80600101905061202a565b5061207d81612cc1565b5b806000015160000151915050919050565b6000807f000000000000000000000000000000000000000000000000000000000000000073ffffffffffffffffffffffffffffffffffffffff1663461d27628688600188886040518663ffffffff1660e01b81526004016120f495949392919061433c565b6020604051808303816000875af1158015612113573d6000803e3d6000fd5b505050506040513d601f19601f8201168201806040525081019061213791906143ab565b9050807f1131472297a800fee664d1d89cfa8f7676ff07189ecc53f80bbb5f4969099db860405160405180910390a280915050949350505050565b600073ffffffffffffffffffffffffffffffffffffffff168273ffffffffffffffffffffffffffffffffffffffff16036121e45760006040517f96c6fd1e0000000000000000000000000000000000000000000000000000000081526004016121db91906138b9565b60405180910390fd5b6121f0826000836127d4565b5050565b6000612201610100612bf9565b905061224b6040518060400160405280600681526020017f736c6f744944000000000000000000000000000000000000000000000000000081525082612c2090919063ffffffff16565b6122618360ff1682612d1290919063ffffffff16565b6122a96040518060400160405280600781526020017f76657273696f6e0000000000000000000000000000000000000000000000000081525082612c2090919063ffffffff16565b6122bc8282612d1290919063ffffffff16565b6002846020019060028111156122d5576122d46139e2565b5b908160028111156122e9576122e86139e2565b5b81525050806000015160000151846080018190525050505050565b3373ffffffffffffffffffffffffffffffffffffffff168173ffffffffffffffffffffffffffffffffffffffff1603612372576040517f08c379a000000000000000000000000000000000000000000000000000000000815260040161236990614424565b60405180910390fd5b80600160006101000a81548173ffffffffffffffffffffffffffffffffffffffff021916908373ffffffffffffffffffffffffffffffffffffffff1602179055508073ffffffffffffffffffffffffffffffffffffffff1660008054906101000a900473ffffffffffffffffffffffffffffffffffffffff1673ffffffffffffffffffffffffffffffffffffffff167fed8889f560326eb138920d842192f0eb3dd22b4f139c87a2c57538e05bae127860405160405180910390a350565b600073ffffffffffffffffffffffffffffffffffffffff168473ffffffffffffffffffffffffffffffffffffffff16036124a25760006040517fe602df0500000000000000000000000000000000000000000000000000000000815260040161249991906138b9565b60405180910390fd5b600073ffffffffffffffffffffffffffffffffffffffff168373ffffffffffffffffffffffffffffffffffffffff16036125145760006040517f94280d6200000000000000000000000000000000000000000000000000000000815260040161250b91906138b9565b60405180910390fd5b81600360008673ffffffffffffffffffffffffffffffffffffffff1673ffffffffffffffffffffffffffffffffffffffff16815260200190815260200160002060008573ffffffffffffffffffffffffffffffffffffffff1673ffffffffffffffffffffffffffffffffffffffff168152602001908152602001600020819055508015612601578273ffffffffffffffffffffffffffffffffffffffff168473ffffffffffffffffffffffffffffffffffffffff167f8c5be1e5ebec7d5bd14f71427d1e84f3dd0314c0f7b2291e5b200ac8c7c3b925846040516125f89190613851565b60405180910390a35b50505050565b6000600f60008481526020019081526020016000206000015490508161262c90614469565b60001c600e81905550600e5461264182612d22565b1115612679576040517f5877587100000000000000000000000000000000000000000000000000000000815260040160405180910390fd5b600081146126c2576126c1600f600085815260200190815260200160002060010160009054906101000a900473ffffffffffffffffffffffffffffffffffffffff1682612d51565b5b505050565b6000816126d390614469565b60001c905060008103612742576000600f600085815260200190815260200160002060000154905061273b600f600086815260200190815260200160002060010160009054906101000a900473ffffffffffffffffffffffffffffffffffffffff1682612d51565b50506127d0565b8060106000600f600087815260200190815260200160002060010160009054906101000a900473ffffffffffffffffffffffffffffffffffffffff1673ffffffffffffffffffffffffffffffffffffffff1673ffffffffffffffffffffffffffffffffffffffff16815260200190815260200160002060008282546127c791906144d0565b92505081905550505b5050565b600073ffffffffffffffffffffffffffffffffffffffff168373ffffffffffffffffffffffffffffffffffffffff160361282657806004600082825461281a91906144d0565b925050819055506128fb565b6000600260008573ffffffffffffffffffffffffffffffffffffffff1673ffffffffffffffffffffffffffffffffffffffff168152602001908152602001600020549050818110156128b3578381836040517fe450d38c0000000000000000000000000000000000000000000000000000000081526004016128aa93929190614274565b60405180910390fd5b818103600260008673ffffffffffffffffffffffffffffffffffffffff1673ffffffffffffffffffffffffffffffffffffffff16815260200190815260200160002081905550505b600073ffffffffffffffffffffffffffffffffffffffff168273ffffffffffffffffffffffffffffffffffffffff16036129445780600460008282540392505081905550612992565b80600260008473ffffffffffffffffffffffffffffffffffffffff1673ffffffffffffffffffffffffffffffffffffffff168152602001908152602001600020600082825401925050819055505b8173ffffffffffffffffffffffffffffffffffffffff168373ffffffffffffffffffffffffffffffffffffffff167fddf252ad1be2c89b69c2b068fc378daa952ba7f163c4a11628f55a4df523b3ef836040516129ef9190613851565b60405180910390a3505050565b6000815103612a37576040517f22ce3edd00000000000000000000000000000000000000000000000000000000815260040160405180910390fd5b8284600001906002811115612a4f57612a4e6139e2565b5b90816002811115612a6357612a626139e2565b5b815250508184604001906000811115612a7f57612a7e6139e2565b5b90816000811115612a9357612a926139e2565b5b8152505080846060018190525050505050565b600080600090507a184f03e93ff9f4daa797ed6e38ed64bf6a1f0100000000000000008310612b04577a184f03e93ff9f4daa797ed6e38ed64bf6a1f0100000000000000008381612afa57612af96141a8565b5b0492506040810190505b6d04ee2d6d415b85acef81000000008310612b41576d04ee2d6d415b85acef81000000008381612b3757612b366141a8565b5b0492506020810190505b662386f26fc100008310612b7057662386f26fc100008381612b6657612b656141a8565b5b0492506010810190505b6305f5e1008310612b99576305f5e1008381612b8f57612b8e6141a8565b5b0492506008810190505b6127108310612bbe576127108381612bb457612bb36141a8565b5b0492506004810190505b60648310612be15760648381612bd757612bd66141a8565b5b0492506002810190505b600a8310612bf0576001810190505b80915050919050565b612c0161332b565b612c0f816000015183612dd3565b506000816020018181525050919050565b612c2d8260038351612e4c565b612c44818360000151612ff590919063ffffffff16565b505050565b612c6b60026005600660ff16901b17836000015161301190919063ffffffff16565b50612c958282604051602001612c819190613851565b604051602081830303815290604052612ce9565b5050565b612ca481600461307b565b600181602001818151612cb791906144d0565b9150818152505050565b612ccc81600761307b565b600181602001818151612cdf9190614504565b9150818152505050565b612cf68260028351612e4c565b612d0d818360000151612ff590919063ffffffff16565b505050565b612d1e82600083612e4c565b5050565b600080612d2e836130a1565b9050606460c882612d3f9190614060565b612d4991906141d7565b915050919050565b600073ffffffffffffffffffffffffffffffffffffffff168273ffffffffffffffffffffffffffffffffffffffff1603612dc35760006040517fec442f05000000000000000000000000000000000000000000000000000000008152600401612dba91906138b9565b60405180910390fd5b612dcf600083836127d4565b5050565b612ddb61334b565b6000602083612dea9190614538565b14612e1657602082612dfc9190614538565b6020612e089190614504565b82612e1391906144d0565b91505b818360200181815250506040518084526000815282810160200181811015612e3d57600080fd5b80604052505082905092915050565b60178167ffffffffffffffff1611612e8757612e818160058460ff16901b60ff1617846000015161301190919063ffffffff16565b50612ff0565b60ff8167ffffffffffffffff1611612ee557612eba601860058460ff16901b17846000015161301190919063ffffffff16565b50612edf8167ffffffffffffffff16600185600001516130dc9092919063ffffffff16565b50612fef565b61ffff8167ffffffffffffffff1611612f4457612f19601960058460ff16901b17846000015161301190919063ffffffff16565b50612f3e8167ffffffffffffffff16600285600001516130dc9092919063ffffffff16565b50612fee565b63ffffffff8167ffffffffffffffff1611612fa557612f7a601a60058460ff16901b17846000015161301190919063ffffffff16565b50612f9f8167ffffffffffffffff16600485600001516130dc9092919063ffffffff16565b50612fed565b612fc6601b60058460ff16901b17846000015161301190919063ffffffff16565b50612feb8167ffffffffffffffff16600885600001516130dc9092919063ffffffff16565b505b5b5b5b505050565b612ffd61334b565b61300983838451613169565b905092915050565b61301961334b565b60008360000151519050600060018261303291906144d0565b90508460200151821061305657613055856002836130509190614060565b61324c565b5b8451602083820101858153815183111561306e578282525b5050849250505092915050565b61309c601f60058360ff16901b17836000015161301190919063ffffffff16565b505050565b60006009546130ae6108fb565b836130b76109ad565b6130c191906144d0565b6130cb9190614060565b6130d591906141d7565b9050919050565b6130e461334b565b60008460000151519050600081846130fc91906144d0565b90508560200151811115613121576131208660028361311b9190614060565b61324c565b5b6000600185610100613133919061469c565b61313d9190614504565b90508651828101878319825116178152815184111561315a578382525b50508693505050509392505050565b61317161334b565b825182111561317f57600080fd5b600084600001515190506000838261319791906144d0565b905085602001518111156131bc576131bb866002836131b69190614060565b61324c565b5b600080875180518560208301019350808511156131d7578482525b60208901925050505b6020861061321e57805182526020826131f991906144d0565b915060208161320891906144d0565b90506020866132179190614504565b95506131e0565b60006001876020036101000a0390508019825116818451168181178552505050879450505050509392505050565b60008260000151905061325f8383612dd3565b5061326a8382612ff5565b50505050565b6040518060e001604052806000600281111561328f5761328e6139e2565b5b8152602001600060028111156132a8576132a76139e2565b5b81526020016000808111156132c0576132bf6139e2565b5b8152602001606081526020016060815260200160608152602001606081525090565b604051806060016040528060008152602001600073ffffffffffffffffffffffffffffffffffffffff16815260200160006001811115613325576133246139e2565b5b81525090565b604051806040016040528061333e61334b565b8152602001600081525090565b604051806040016040528060608152602001600081525090565b600081519050919050565b600082825260208201905092915050565b60005b8381101561339f578082015181840152602081019050613384565b60008484015250505050565b6000601f19601f8301169050919050565b60006133c782613365565b6133d18185613370565b93506133e1818560208601613381565b6133ea816133ab565b840191505092915050565b6000602082019050818103600083015261340f81846133bc565b905092915050565b6000604051905090565b600080fd5b600080fd5b600073ffffffffffffffffffffffffffffffffffffffff82169050919050565b60006134568261342b565b9050919050565b6134668161344b565b811461347157600080fd5b50565b6000813590506134838161345d565b92915050565b6000819050919050565b61349c81613489565b81146134a757600080fd5b50565b6000813590506134b981613493565b92915050565b600080604083850312156134d6576134d5613421565b5b60006134e485828601613474565b92505060206134f5858286016134aa565b9150509250929050565b60008115159050919050565b613514816134ff565b82525050565b600060208201905061352f600083018461350b565b92915050565b6000819050919050565b61354881613535565b811461355357600080fd5b50565b6000813590506135658161353f565b92915050565b600080fd5b600080fd5b7f4e487b7100000000000000000000000000000000000000000000000000000000600052604160045260246000fd5b6135ad826133ab565b810181811067ffffffffffffffff821117156135cc576135cb613575565b5b80604052505050565b60006135df613417565b90506135eb82826135a4565b919050565b600067ffffffffffffffff82111561360b5761360a613575565b5b613614826133ab565b9050602081019050919050565b82818337600083830152505050565b600061364361363e846135f0565b6135d5565b90508281526020810184848401111561365f5761365e613570565b5b61366a848285613621565b509392505050565b600082601f8301126136875761368661356b565b5b8135613697848260208601613630565b91505092915050565b6000806000606084860312156136b9576136b8613421565b5b60006136c786828701613556565b935050602084013567ffffffffffffffff8111156136e8576136e7613426565b5b6136f486828701613672565b925050604084013567ffffffffffffffff81111561371557613714613426565b5b61372186828701613672565b9150509250925092565b600067ffffffffffffffff82111561374657613745613575565b5b61374f826133ab565b9050602081019050919050565b600061376f61376a8461372b565b6135d5565b90508281526020810184848401111561378b5761378a613570565b5b613796848285613621565b509392505050565b600082601f8301126137b3576137b261356b565b5b81356137c384826020860161375c565b91505092915050565b6000602082840312156137e2576137e1613421565b5b600082013567ffffffffffffffff811115613800576137ff613426565b5b61380c8482850161379e565b91505092915050565b60006020828403121561382b5761382a613421565b5b600061383984828501613474565b91505092915050565b61384b81613489565b82525050565b60006020820190506138666000830184613842565b92915050565b600067ffffffffffffffff82169050919050565b6138898161386c565b82525050565b60006020820190506138a46000830184613880565b92915050565b6138b38161344b565b82525050565b60006020820190506138ce60008301846138aa565b92915050565b6000806000606084860312156138ed576138ec613421565b5b60006138fb86828701613474565b935050602061390c86828701613474565b925050604061391d868287016134aa565b9150509250925092565b600060ff82169050919050565b61393d81613927565b82525050565b60006020820190506139586000830184613934565b92915050565b61396781613535565b82525050565b6000602082019050613982600083018461395e565b92915050565b60006020828403121561399e5761399d613421565b5b60006139ac848285016134aa565b91505092915050565b6000602082840312156139cb576139ca613421565b5b60006139d984828501613556565b91505092915050565b7f4e487b7100000000000000000000000000000000000000000000000000000000600052602160045260246000fd5b60028110613a2257613a216139e2565b5b50565b6000819050613a3382613a11565b919050565b6000613a4382613a25565b9050919050565b613a5381613a38565b82525050565b6000606082019050613a6e6000830186613842565b613a7b60208301856138aa565b613a886040830184613a4a565b949350505050565b60008060408385031215613aa757613aa6613421565b5b6000613ab585828601613474565b9250506020613ac685828601613474565b9150509250929050565b613ad9816134ff565b8114613ae457600080fd5b50565b600081359050613af681613ad0565b92915050565b600060208284031215613b1257613b11613421565b5b6000613b2084828501613ae7565b91505092915050565b613b328161386c565b8114613b3d57600080fd5b50565b600081359050613b4f81613b29565b92915050565b613b5e81613927565b8114613b6957600080fd5b50565b600081359050613b7b81613b55565b92915050565b60008060408385031215613b9857613b97613421565b5b6000613ba685828601613b40565b9250506020613bb785828601613b6c565b9150509250929050565b613bca81613489565b82525050565b613bd98161344b565b82525050565b613be881613a38565b82525050565b606082016000820151613c046000850182613bc1565b506020820151613c176020850182613bd0565b506040820151613c2a6040850182613bdf565b50505050565b6000606082019050613c456000830184613bee565b92915050565b7f4e487b7100000000000000000000000000000000000000000000000000000000600052602260045260246000fd5b60006002820490506001821680613c9257607f821691505b602082108103613ca557613ca4613c4b565b5b50919050565b60008190508160005260206000209050919050565b60006020601f8301049050919050565b600082821b905092915050565b600060088302613d0d7fffffffffffffffffffffffffffffffffffffffffffffffffffffffffffffffff82613cd0565b613d178683613cd0565b95508019841693508086168417925050509392505050565b6000819050919050565b6000613d54613d4f613d4a84613489565b613d2f565b613489565b9050919050565b6000819050919050565b613d6e83613d39565b613d82613d7a82613d5b565b848454613cdd565b825550505050565b600090565b613d97613d8a565b613da2818484613d65565b505050565b5b81811015613dc657613dbb600082613d8f565b600181019050613da8565b5050565b601f821115613e0b57613ddc81613cab565b613de584613cc0565b81016020851015613df4578190505b613e08613e0085613cc0565b830182613da7565b50505b505050565b600082821c905092915050565b6000613e2e60001984600802613e10565b1980831691505092915050565b6000613e478383613e1d565b9150826002028217905092915050565b613e6082613365565b67ffffffffffffffff811115613e7957613e78613575565b5b613e838254613c7a565b613e8e828285613dca565b600060209050601f831160018114613ec15760008415613eaf578287015190505b613eb98582613e3b565b865550613f21565b601f198416613ecf86613cab565b60005b82811015613ef757848901518255600182019150602085019450602081019050613ed2565b86831015613f145784890151613f10601f891682613e1d565b8355505b6001600288020188555050505b505050505050565b600069ffffffffffffffffffff82169050919050565b613f4881613f29565b8114613f5357600080fd5b50565b600081519050613f6581613f3f565b92915050565b6000819050919050565b613f7e81613f6b565b8114613f8957600080fd5b50565b600081519050613f9b81613f75565b92915050565b600081519050613fb081613493565b92915050565b600080600080600060a08688031215613fd257613fd1613421565b5b6000613fe088828901613f56565b9550506020613ff188828901613f8c565b945050604061400288828901613fa1565b935050606061401388828901613fa1565b925050608061402488828901613f56565b9150509295509295909350565b7f4e487b7100000000000000000000000000000000000000000000000000000000600052601160045260246000fd5b600061406b82613489565b915061407683613489565b925082820261408481613489565b9150828204841483151761409b5761409a614031565b5b5092915050565b60006040820190506140b760008301856138aa565b6140c46020830184613842565b9392505050565b6000815190506140da81613ad0565b92915050565b6000602082840312156140f6576140f5613421565b5b6000614104848285016140cb565b91505092915050565b7f4e487b7100000000000000000000000000000000000000000000000000000000600052603260045260246000fd5b7f4d7573742062652070726f706f736564206f776e657200000000000000000000600082015250565b6000614172601683613370565b915061417d8261413c565b602082019050919050565b600060208201905081810360008301526141a181614165565b9050919050565b7f4e487b7100000000000000000000000000000000000000000000000000000000600052601260045260246000fd5b60006141e282613489565b91506141ed83613489565b9250826141fd576141fc6141a8565b5b828204905092915050565b7f4f6e6c792063616c6c61626c65206279206f776e657200000000000000000000600082015250565b600061423e601683613370565b915061424982614208565b602082019050919050565b6000602082019050818103600083015261426d81614231565b9050919050565b600060608201905061428960008301866138aa565b6142966020830185613842565b6142a36040830184613842565b949350505050565b600081519050919050565b600082825260208201905092915050565b60006142d2826142ab565b6142dc81856142b6565b93506142ec818560208601613381565b6142f5816133ab565b840191505092915050565b600061ffff82169050919050565b61431781614300565b82525050565b600063ffffffff82169050919050565b6143368161431d565b82525050565b600060a0820190506143516000830188613880565b818103602083015261436381876142c7565b9050614372604083018661430e565b61437f606083018561432d565b61438c608083018461395e565b9695505050505050565b6000815190506143a58161353f565b92915050565b6000602082840312156143c1576143c0613421565b5b60006143cf84828501614396565b91505092915050565b7f43616e6e6f74207472616e7366657220746f2073656c66000000000000000000600082015250565b600061440e601783613370565b9150614419826143d8565b602082019050919050565b6000602082019050818103600083015261443d81614401565b9050919050565b6000819050602082019050919050565b60006144608251613535565b80915050919050565b6000614474826142ab565b8261447e84614444565b905061448981614454565b925060208210156144c9576144c47fffffffffffffffffffffffffffffffffffffffffffffffffffffffffffffffff83602003600802613cd0565b831692505b5050919050565b60006144db82613489565b91506144e683613489565b92508282019050808211156144fe576144fd614031565b5b92915050565b600061450f82613489565b915061451a83613489565b925082820390508181111561453257614531614031565b5b92915050565b600061454382613489565b915061454e83613489565b92508261455e5761455d6141a8565b5b828206905092915050565b60008160011c9050919050565b6000808291508390505b60018511156145c05780860481111561459c5761459b614031565b5b60018516156145ab5780820291505b80810290506145b985614569565b9450614580565b94509492505050565b6000826145d95760019050614695565b816145e75760009050614695565b81600181146145fd576002811461460757614636565b6001915050614695565b60ff84111561461957614618614031565b5b8360020a9150848211156146305761462f614031565b5b50614695565b5060208310610133831016604e8410600b841016171561466b5782820a90508381111561466657614665614031565b5b614695565b6146788484846001614576565b9250905081840481111561468f5761468e614031565b5b81810290505b9392505050565b60006146a782613489565b91506146b283613489565b92506146df7fffffffffffffffffffffffffffffffffffffffffffffffffffffffffffffffff84846145c9565b90509291505056fea2646970667358221220cc36c2554834691dcea98e0da68db0a2577ed5d9f49c745a6bdfcc9c01894e1c64736f6c63430008190033",
  "devdoc": {
    "errors": {
      "ERC20InsufficientAllowance(address,uint256,uint256)": [
        {
          "details": "Indicates a failure with the `spender`s `allowance`. Used in transfers.",
          "params": {
            "allowance": "Amount of tokens a `spender` is allowed to operate with.",
            "needed": "Minimum amount required to perform a transfer.",
            "spender": "Address that may be allowed to operate on tokens without being their owner."
          }
        }
      ],
      "ERC20InsufficientBalance(address,uint256,uint256)": [
        {
          "details": "Indicates an error related to the current `balance` of a `sender`. Used in transfers.",
          "params": {
            "balance": "Current balance for the interacting account.",
            "needed": "Minimum amount required to perform a transfer.",
            "sender": "Address whose tokens are being transferred."
          }
        }
      ],
      "ERC20InvalidApprover(address)": [
        {
          "details": "Indicates a failure with the `approver` of a token to be approved. Used in approvals.",
          "params": {
            "approver": "Address initiating an approval operation."
          }
        }
      ],
      "ERC20InvalidReceiver(address)": [
        {
          "details": "Indicates a failure with the token `receiver`. Used in transfers.",
          "params": {
            "receiver": "Address to which tokens are being transferred."
          }
        }
      ],
      "ERC20InvalidSender(address)": [
        {
          "details": "Indicates a failure with the token `sender`. Used in transfers.",
          "params": {
            "sender": "Address whose tokens are being transferred."
          }
        }
      ],
      "ERC20InvalidSpender(address)": [
        {
          "details": "Indicates a failure with the `spender` to be approved. Used in approvals.",
          "params": {
            "spender": "Address that may be allowed to operate on tokens without being their owner."
          }
        }
      ]
    },
    "events": {
      "Approval(address,address,uint256)": {
        "details": "Emitted when the allowance of a `spender` for an `owner` is set by a call to {approve}. `value` is the new allowance."
      },
      "Transfer(address,address,uint256)": {
        "details": "Emitted when `value` tokens are moved from one account (`from`) to another (`to`). Note that `value` may be zero."
      }
    },
    "kind": "dev",
    "methods": {
      "allowance(address,address)": {
        "details": "See {IERC20-allowance}."
      },
      "approve(address,uint256)": {
        "details": "See {IERC20-approve}. NOTE: If `value` is the maximum `uint256`, the allowance is not updated on `transferFrom`. This is semantically equivalent to an infinite approval. Requirements: - `spender` cannot be the zero address."
      },
      "balanceOf(address)": {
        "details": "See {IERC20-balanceOf}."
      },
      "decimals()": {
        "details": "Returns the number of decimals used to get its user representation. For example, if `decimals` equals `2`, a balance of `505` tokens should be displayed to a user as `5.05` (`505 / 10 ** 2`). Tokens usually opt for a value of 18, imitating the relationship between Ether and Wei. This is the default value returned by this function, unless it's overridden. NOTE: This information is only used for _display_ purposes: it in no way affects any of the arithmetic of the contract, including {IERC20-balanceOf} and {IERC20-transfer}."
      },
      "handleOracleFulfillment(bytes32,bytes,bytes)": {
        "details": "Either response or error parameter will be set, but never both.",
        "params": {
          "err": "Aggregated error either from the request's source code or from the execution pipeline.",
          "requestId": "The requestId returned by FunctionsClient.sendRequest().",
          "response": "Aggregated response from the request's source code."
        }
      },
      "name()": {
        "details": "Returns the name of the token."
      },
      "symbol()": {
        "details": "Returns the symbol of the token, usually a shorter version of the name."
      },
      "totalSupply()": {
        "details": "See {IERC20-totalSupply}."
      },
      "transfer(address,uint256)": {
        "details": "See {IERC20-transfer}. Requirements: - `to` cannot be the zero address. - the caller must have a balance of at least `value`."
      },
      "transferFrom(address,address,uint256)": {
        "details": "See {IERC20-transferFrom}. Emits an {Approval} event indicating the updated allowance. This is not required by the EIP. See the note at the beginning of {ERC20}. NOTE: Does not update the allowance if the current allowance is the maximum `uint256`. Requirements: - `from` and `to` cannot be the zero address. - `from` must have a balance of at least `value`. - the caller must have allowance for ``from``'s tokens of at least `value`."
      }
    },
    "version": 1
  },
  "userdoc": {
    "kind": "user",
    "methods": {
      "acceptOwnership()": {
        "notice": "Allows an ownership transfer to be completed by the recipient."
      },
      "handleOracleFulfillment(bytes32,bytes,bytes)": {
        "notice": "Chainlink Functions response handler called by the Functions Router during fullilment from the designated transmitter node in an OCR round."
      },
      "owner()": {
        "notice": "Get the current owner"
      },
      "transferOwnership(address)": {
        "notice": "Allows an owner to begin transferring ownership to a new address."
      }
    },
    "version": 1
  },
  "storageLayout": {
    "storage": [
      {
        "astId": 816,
        "contract": "contracts/dTESLA.sol:dTESLA",
        "label": "s_owner",
        "offset": 0,
        "slot": "0",
        "type": "t_address"
      },
      {
        "astId": 818,
        "contract": "contracts/dTESLA.sol:dTESLA",
        "label": "s_pendingOwner",
        "offset": 0,
        "slot": "1",
        "type": "t_address"
      },
      {
        "astId": 2473,
        "contract": "contracts/dTESLA.sol:dTESLA",
        "label": "_balances",
        "offset": 0,
        "slot": "2",
        "type": "t_mapping(t_address,t_uint256)"
      },
      {
        "astId": 2479,
        "contract": "contracts/dTESLA.sol:dTESLA",
        "label": "_allowances",
        "offset": 0,
        "slot": "3",
        "type": "t_mapping(t_address,t_mapping(t_address,t_uint256))"
      },
      {
        "astId": 2481,
        "contract": "contracts/dTESLA.sol:dTESLA",
        "label": "_totalSupply",
        "offset": 0,
        "slot": "4",
        "type": "t_uint256"
      },
      {
        "astId": 2483,
        "contract": "contracts/dTESLA.sol:dTESLA",
        "label": "_name",
        "offset": 0,
        "slot": "5",
        "type": "t_string_storage"
      },
      {
        "astId": 2485,
        "contract": "contracts/dTESLA.sol:dTESLA",
        "label": "_symbol",
        "offset": 0,
        "slot": "6",
        "type": "t_string_storage"
      },
      {
        "astId": 4536,
        "contract": "contracts/dTESLA.sol:dTESLA",
        "label": "testing",
        "offset": 0,
        "slot": "7",
        "type": "t_bool"
      },
      {
        "astId": 4539,
        "contract": "contracts/dTESLA.sol:dTESLA",
        "label": "test",
        "offset": 0,
        "slot": "8",
        "type": "t_uint256"
      },
      {
        "astId": 4566,
        "contract": "contracts/dTESLA.sol:dTESLA",
        "label": "PRECISION",
        "offset": 0,
        "slot": "9",
        "type": "t_uint256"
      },
      {
        "astId": 4569,
        "contract": "contracts/dTESLA.sol:dTESLA",
        "label": "ADDITIONAL_FEED_PRECCISION",
        "offset": 0,
        "slot": "10",
        "type": "t_uint256"
      },
      {
        "astId": 4581,
        "contract": "contracts/dTESLA.sol:dTESLA",
        "label": "s_mintSourceCode",
        "offset": 0,
        "slot": "11",
        "type": "t_string_storage"
      },
      {
        "astId": 4583,
        "contract": "contracts/dTESLA.sol:dTESLA",
        "label": "s_redeemSourceCode",
        "offset": 0,
        "slot": "12",
        "type": "t_string_storage"
      },
      {
        "astId": 4587,
        "contract": "contracts/dTESLA.sol:dTESLA",
        "label": "secretVersion",
        "offset": 0,
        "slot": "13",
        "type": "t_uint64"
      },
      {
        "astId": 4589,
        "contract": "contracts/dTESLA.sol:dTESLA",
        "label": "secretSlot",
        "offset": 8,
        "slot": "13",
        "type": "t_uint8"
      },
      {
        "astId": 4605,
        "contract": "contracts/dTESLA.sol:dTESLA",
        "label": "s_portfolioBalance",
        "offset": 0,
        "slot": "14",
        "type": "t_uint256"
      },
      {
        "astId": 4610,
        "contract": "contracts/dTESLA.sol:dTESLA",
        "label": "s_requestIdToRequest",
        "offset": 0,
        "slot": "15",
        "type": "t_mapping(t_bytes32,t_struct(dTeslaRequest)4563_storage)"
      },
      {
        "astId": 4614,
        "contract": "contracts/dTESLA.sol:dTESLA",
        "label": "s_userToWithdrawAmount",
        "offset": 0,
        "slot": "16",
        "type": "t_mapping(t_address,t_uint256)"
      }
    ],
    "types": {
      "t_address": {
        "encoding": "inplace",
        "label": "address",
        "numberOfBytes": "20"
      },
      "t_bool": {
        "encoding": "inplace",
        "label": "bool",
        "numberOfBytes": "1"
      },
      "t_bytes32": {
        "encoding": "inplace",
        "label": "bytes32",
        "numberOfBytes": "32"
      },
      "t_enum(MintOrRedeem)4555": {
        "encoding": "inplace",
        "label": "enum dTESLA.MintOrRedeem",
        "numberOfBytes": "1"
      },
      "t_mapping(t_address,t_mapping(t_address,t_uint256))": {
        "encoding": "mapping",
        "key": "t_address",
        "label": "mapping(address => mapping(address => uint256))",
        "numberOfBytes": "32",
        "value": "t_mapping(t_address,t_uint256)"
      },
      "t_mapping(t_address,t_uint256)": {
        "encoding": "mapping",
        "key": "t_address",
        "label": "mapping(address => uint256)",
        "numberOfBytes": "32",
        "value": "t_uint256"
      },
      "t_mapping(t_bytes32,t_struct(dTeslaRequest)4563_storage)": {
        "encoding": "mapping",
        "key": "t_bytes32",
        "label": "mapping(bytes32 => struct dTESLA.dTeslaRequest)",
        "numberOfBytes": "32",
        "value": "t_struct(dTeslaRequest)4563_storage"
      },
      "t_string_storage": {
        "encoding": "bytes",
        "label": "string",
        "numberOfBytes": "32"
      },
      "t_struct(dTeslaRequest)4563_storage": {
        "encoding": "inplace",
        "label": "struct dTESLA.dTeslaRequest",
        "members": [
          {
            "astId": 4557,
            "contract": "contracts/dTESLA.sol:dTESLA",
            "label": "amountOfToken",
            "offset": 0,
            "slot": "0",
            "type": "t_uint256"
          },
          {
            "astId": 4559,
            "contract": "contracts/dTESLA.sol:dTESLA",
            "label": "requester",
            "offset": 0,
            "slot": "1",
            "type": "t_address"
          },
          {
            "astId": 4562,
            "contract": "contracts/dTESLA.sol:dTESLA",
            "label": "mintOrRedeem",
            "offset": 20,
            "slot": "1",
            "type": "t_enum(MintOrRedeem)4555"
          }
        ],
        "numberOfBytes": "64"
      },
      "t_uint256": {
        "encoding": "inplace",
        "label": "uint256",
        "numberOfBytes": "32"
      },
      "t_uint64": {
        "encoding": "inplace",
        "label": "uint64",
        "numberOfBytes": "8"
      },
      "t_uint8": {
        "encoding": "inplace",
        "label": "uint8",
        "numberOfBytes": "1"
      }
    }
  }
}